:020000040800F2
:10000000B004002081110008891100088B1100083C
:100010008D1100088F1100089111000800000000E8
:100020000000000000000000000000009311000824
:1000300095110008000000009711000899110008B0
:100040009B1100089B1100089B1100089B110008E0
:100050009B1100089B1100089B1100089B110008D0
:100060009B1100089B1100089B1100089B110008C0
:100070009B1100089B1100089B1100089B110008B0
:100080009B1100089B1100089B1100089B110008A0
:100090009B1100089B1100089B1100089B11000890
:1000A0009B1100089B1100089B1100089B11000880
:1000B0009B1100089B1100089B1100089B11000870
:1000C0009B1100089B1100089B1100089B11000860
:1000D0009B1100082D0D00089B1100089B110008C2
:1000E0009B1100089B1100089B1100089B11000840
:1000F0009B1100089B1100089B1100089B11000830
:100100009B1100089B1100089B1100089B1100081F
:100110009B1100089B1100089B1100089B1100080F
:100120009B1100089B1100089B1100089B110008FF
:10013000DFF80CD001F0F8F900480047450D000841
:10014000B00400200021F248016041608160C1607C
:1001500001614161018341837047ED491C2201F136
:100160001C0001F0D3B8EB4940000880E94818387A
:10017000018841F001010180E6490020083908802A
:10018000E4482C38018841F001010180E1481C3825
:100190000188C907FCD0018821F001010180704766
:1001A000DD48016841F088310160011D0A6842F0B4
:1001B00088320A60026802F0CC320260086800F0FF
:1001C000CC3008607047D448016801F033310160D9
:1001D000011D0A6802F033320A60026842F03332CD
:1001E0000260086840F0333008607047CB4A111F46
:1001F00010F8013B13800B885B06FCD50B8823F0BD
:1002000040030B800378002BF2D10A20108008886D
:100210004006FCD5088820F0400008807047C048A0
:10022000012181704FF6FF710180BEA0DEE700B5AD
:10023000CCA0FFF7DBFFD5A0FFF7D8FFDAA0FFF7D0
:10024000D5FFDFA0FFF7D2FFDEA0FFF7CFFFE4A0CE
:10025000FFF7CCFFF0A05DF804EBC7E710B58AB05C
:10026000F7A0FFF7C3FF01212D2000F038FF012187
:100270002E2000F034FF0121072000F030FF012183
:10028000062000F02CFF0121292000F028FF012189
:100290002A2000F024FFFFF783FF9D48EC49806887
:1002A00008600021072000F01AFF0021062000F05E
:1002B00016FF00212E2000F012FF0021292000F05F
:1002C0000EFF00212A2000F00AFF93480830006842
:1002D000012184B2072000F002FF0121062000F076
:1002E000FEFE0121292000F0FAFE01212A2000F063
:1002F000F6FE01212E2000F0F2FE2346D5A2282191
:10030000684601F061F96846FFF770FFD2A0FFF779
:100310006DFF0AB010BD10B5D5A0FFF767FF012132
:100320002E2000F0DCFE01212D2000F0D8FE01215E
:10033000292000F0D4FE01212A2000F0D0FEFFF792
:1003400042FF7348C24A816811607349008B0C31C7
:1003500008600021072000F0C2FE0021062000F006
:10036000BEFE0021292000F0BAFE00212A2000F064
:10037000B6FE00212D2000F0B2FE01212D2000F05C
:10038000AEFE0121072000F0AAFE0121062000F0A8
:10039000A6FE0121292000F0A2FE01212A2000F062
:1003A0009EFEB7A0FFF722FFBDE8104056E710B54C
:1003B0000B2823D2DFE800F0060C0E1012141618DA
:1003C0001A1C1E005248B5A1543000F0B1FF12E0D3
:1003D000B6A010E0BAA00EE0BFA00CE0C5A00AE0F5
:1003E000CDA008E0D5A006E0DBA004E0E1A002E09B
:1003F000E8A000E0F3A0BDE81040F7E6BDE810403B
:10040000F4A001F0D1B870B54548001D0468641C23
:1004100000F0D4FCF44D284600F0E9FCF3492846EE
:1004200000F0F9FC2146281D00F0F5FC3C4801686D
:10043000ED48083000F0EFFC00F0BAFCBDE8704079
:10044000EBA0D3E6E84810B503683549091D4B60B9
:1004500042680A60521C1DD0E4498B421AD10189BE
:100460002F4C2180817AA170C07AE0702088FF280B
:100470000CD0E6A0FFF7BAFEA07848B1E6A000BF16
:10048000FFF7B4FEBDE81040E7A0AFE6EEA0F1E74D
:10049000F0A0F5E7BDE81040C1E62DE9F04F85B0CA
:1004A0000024F0A100F066FF194E383600283060B5
:1004B0002BD000F049FF00903068EBA1009A00F0CB
:1004C0004AFF174F124DA0464FF6FF794FF0010B30
:1004D0004FF0020A28B13068E4A1009A00F03BFF17
:1004E00020B9306800F030FF03280FD00322E0A1CC
:1004F000306800F030FF002809D00322DDA1306809
:1005000000F029FF002802D021E243E2B4E119E221
:10051000300000202C2C014000180140043801401C
:10052000040000204C6F6164656420646566617539
:100530006C742064657669636520636F6E666967B5
:1005400075726174696F6E3A203136206269742C5D
:100550002073796E63206F6E2061646472657373BB
:10056000000000003C2D2D2D2D2D2D2D2D2D2D2D60
:100570002D2D2D2D48454C502D2D2D2D2D2D2D2D36
:100580002D2D2D2D2D2D2D3E0000000057524D2CD0
:1005900020575250202D20777269746520636F6D4B
:1005A0006D616E640000000052444D2C2052445096
:1005B000202D207265616420636F6D6D616E640033
:1005C00020000000666F726D617420636F6D6D6155
:1005D0006E6440616464726573733D64617461004C
:1005E00053415645202D20636F6D6D616E642074FC
:1005F00068617420736176652063757272656E74CC
:100600002064657669636520636F6E6669677572DD
:100610006174696F6E0000003C2D2D2D2D2D2D2D48
:100620002D2D2D2D2D2D454E442D48454C502D2D35
:100630002D2D2D2D2D2D2D2D2D2D2D3E000000008D
:100640005245414420436F6D6D616E6400000000AF
:100650000C140140255800003C2D2D2D2D72656194
:100660006420636F6D706C6574652D2D2D00000026
:10067000575249544520436F6D6D616E6400000010
:100680003C2D2D2D2D2D2D2D777269746520636FD6
:100690006D706C6574652D2D2D00000020686176ED
:1006A00065206E6F206572726F72730044617461B1
:1006B000206F7574206F662072616E6765000000A0
:1006C00041646472657373206F7574206F66207265
:1006D000616E676500000000416464726573732099
:1006E0006973206E6F74206576656E206E756D621D
:1006F0006572000041444452455353206F722044B8
:100700004154412068617665206E6F2068657820CD
:10071000666F726D6174000053746172742041647D
:100720006472657373206D6F7265207468616E20EA
:1007300053746F7020416472657373004164647216
:100740006573732068617665206E6F206865782018
:10075000666F726D61740000556E61626C65207425
:100760006F206C6F6F70206C61737420636F6D6DA0
:10077000616E6400546F6F206D75636820726570E0
:1007800065617420636F756E746572202833326200
:1007900069742900596F75207472696564206361FA
:1007A0006C63756C617465206C656E676874206637
:1007B000726F6D204E554C4C20706F696E7465726F
:1007C00000000000556E6B6E6F7720636F6D6D617A
:1007D0006E640000556E6B6E6F77207479706520C3
:1007E0006572726F7200000000F000085B138F24C6
:1007F00043757272656E7420636F6E666967757299
:100800006174696F6E2073617665640031362D62A4
:100810006974206D6F64650053796E63206F6E207C
:100820004144445245535300436F6E666967757285
:100830006174696F6E206C6F616465642066726FAD
:100840006D20464C41534800382D626974206D6F0D
:100850006465000053796E63206F6E2044415441FB
:10086000000000004000000057524D005752500059
:1008700052444D0052445000F7A1002000F07AFD90
:10088000AFF224310090002000F074FD0146009882
:100890007161706000287DD00029FCD000F054FD0B
:1008A0000090706900F050FD01907068009900F0B0
:1008B00043FC00286FD17069019900F03DFC0028CD
:1008C000F8D110220021706800F076FD6FF07F41B2
:1008D00000F04AFC002874D110220021706900F059
:1008E0006BFD398800F040FC08B10124F1E1398842
:1008F000494508D110220021706800F05DFD00F02C
:1009000039FC00287DD1C5F800B05F4610220021D7
:10091000706800F051FDA86010220021706900F09D
:100920004BFD2883C5F80C80C5F81080C5F81480ED
:10093000A5F81A80AFF2D0013068884279D0C5F8A6
:1009400004A0C6E1306800F0FFFC032829D0B246BD
:100950003068C2A1009A00F0FEFC00286BD000268F
:10096000DAF80000BEA1009A00F0F5FC50B30020B8
:10097000064306D05646DAF8000000F0E5FC0328EE
:100980005DD05646DAF8000000F0DEFC0246B5A164
:10099000306801E078E074E000F0DDFC002872D0FF
:1009A000C7E0B1A1002000F0E5FC706000286BD02A
:1009B00000F0CAFC0146706800F0BEFB18B10624C6
:1009C00087E17BE039E010220021706800F0F4FC40
:1009D0006FF07F4100F0C8FB00286FD1398849458E
:1009E00008D110220021706800F0E6FC00F0C2FB84
:1009F000002878D1C5F800A0102257460021706861
:100A000000E070E000F0D8FCA860A5F81880C5F8F8
:100A10000C80C5F81080C5F81480A5F81A80AFF2D4
:100A2000B0113068884204D1C5F804B051E100E04B
:100A300001E06F604DE1012692E7012098E7AFF2F7
:100A4000D431002000F096FC824687A1002000F0FF
:100A500091FC01465FEA0A00C6E9020162D099B141
:100A600000F072FC8246F06800F06EFC834651464E
:100A7000B06800F061FB20B95946F06800F05CFBFB
:100A800018B1042425E14FE04CE010220021F06869
:100A900000F092FC824610220021B06800F08CFC2D
:100AA000514600F061FB48B910220021F06800F0C7
:100AB00083FC6FF07F4100F057FB08B1022408E18E
:100AC0003988494511D110220021B06800F074FC2A
:100AD00000F050FB38B910220021F06800F06CFCE7
:100AE00000F048FB08B10324F3E0C5F80880A5F83E
:100AF0001880474610220021B06800F05DFCE860D5
:100B000010220021F06800F057FCC5E904076F834C
:100B10006F60306851A1884201D1032000E00420B9
:100B20002860D6E00924D4E0306800F00DFC0428E9
:100B300009D0306800F008FC02464CA1306800F093
:100B40000AFC70B333E0AFF2E421002000F012FCA5
:100B500010220021B06100F02FFC4FF0FF3100F0B7
:100B600003FB20B108242046FFF721FCB1E04148F7
:100B70000168012903D0022901D00724F3E7296085
:100B80008168A960018B2983C168E96001692961D5
:100B90004069686110220021B06900F00DFC688393
:100BA000E1E7FFE7306800F0CFFB042809D03068A8
:100BB00000F0CAFB024630A1306800F0CCFB18B14F
:100BC00007E0FFF720FC84E0306800F0BDFB04285C
:100BD00009D0306800F0B8FB024629A1306800F067
:100BE000BAFB18B107E0FFF722FB72E0306800F0B3
:100BF000ABFB072809D0306800F0A6FB024622A113
:100C0000306800F0A8FB18B107E0FFF708FB60E0D0
:100C1000306800F099FB022809D0306800F094FB9E
:100C200002461AA1306800F096FB28B109E0FF20C7
:100C30003880AFF2EC3056E0306800F085FB0228D7
:100C400028D0306800F080FB024611A1306800F027
:100C500082FB00B128E022E03D00000052414D003F
:100C6000524F4D004C4F4F5000000000534156452D
:100C7000000000004C00002048454C5000000000DF
:100C800044454641554C5400534200005357000020
:100C900053440000A7F80090AFF2904023E0306882
:100CA00000F052FB022809D0306800F04DFB0246EC
:100CB0002EA1306800F04FFB28B109E087F80280D0
:100CC000AFF270400FE0306800F03EFB022806D023
:100CD0000A2405B02046BDE8F04FFFF768BB87F84F
:100CE00002B0AFF2CC40FFF781FAF2E770B500F046
:100CF00007FB1F4CC1B200252068272812D21D4EC9
:100D00000D2903D03154401C206070BD1AA0FFF79C
:100D10006DFA20683554401C20601648FFF7BDFB73
:100D2000256070BD15A0FFF761FAF9E71848008843
:100D3000800604D51648001D0088C0B2D6E715A06D
:100D4000FFF754BA00F0A3F900F090F800F0BDF8F6
:100D500000F0CCF800F0F5F8FFF774FB4FF47A7070
:100D6000FFF701FA10A0FFF741FAFEE75341000038
:100D700000000020840000203E000000546F6F201F
:100D80006C6F6E6720636F6D6D616E6400000000B4
:100D9000003801404578657074696F6E20233120FA
:100DA0002D205541525400005265616479000000C5
:100DB0002B48016941F080010161704728482949A9
:100DC000416029494160704710B5254C206940F0C9
:100DD00004002061206940F04000206100F039F8F3
:100DE0000028FBD0206900F00400206110BD10B580
:100DF0001B4C216941F0020121616061206940F0D2
:100E00004000206100F025F80028FBD0206920F088
:100E10000200206110BD70B5114C06460D462069D8
:100E200040F00100C4F8100000F013F80028FBD0D7
:100E3000A6F8005000F00DF80028FBD0280C7080B8
:100E400000F007F80028FBD0206920F001002061A5
:100E500070BD0348C06840F30000401C70470000AC
:100E60000020024023016745AB89EFCD61488169CD
:100E700041F480418161604940F6A6600880081D08
:100E8000018842F20C02114301805C48016821F0A4
:100E9000C0010160016841F080010160016841F01A
:100EA00010010160016821F440610160016841F4B2
:100EB00000610160016821F4407101604E4808380A
:100EC000018821F040010180704762B620204C4922
:100ED000C1F800014A490020213181F80004464848
:100EE000001D018841F0200101807047414881695F
:100EF00041F4006181614348018841F08001018033
:100F0000018821F008010180018821F01001018091
:100F1000018841F0040101803A4900220C310A8025
:100F200039494FF4FA630968B1FBF3F1354B2833C3
:100F3000491E1980018821F001010180181F0280DB
:100F400070473248416841F4006141602948C169F5
:100F500041F00201C1612E48018841F08001018009
:100F6000018821F008010180294900220C310A8002
:100F7000274928310A80264918310B8843F48073A9
:100F80000B800B8823F400730B800B8843F4004321
:100F90000B801F4920310B8823F020030B801C4954
:100FA00008310B8843F007030B800B8823F01003F4
:100FB0000B800B8843F020030B800B8843F0400329
:100FC0000B80018841F004010180114924310B8814
:100FD0000A800F4A07212C321180018821F001017B
:100FE0000180018841F004010180018841F0010184
:100FF0000180704700100240083801400408014099
:1010000004E000E0002C014010000020000001403E
:1010100000040040F0B5464B0F2703EBC0051C460B
:10102000B5F804C054F830404FEA8C06BCF1080F04
:101030000FD2D4F800C0B7402CEA070CC4F800C0A7
:1010400053F8304026682F79BF00B9400E43266020
:101050000DE0203EB7406668BE4366602C79A40070
:10106000203CA14053F8304066683143616053F83A
:101070003010CC682F790126BE40B443CC6053F8C1
:101080003000C1682B799A401143C160F0BD30B582
:101090002848816941F004018161816941F00801BA
:1010A0008161816941F010018161816941F0200114
:1010B0008161816941F040018161816941F00101F3
:1010C00081611B4D002400BF05EBC400C27981790A
:1010D0002046FFF79FFF641C352CF5D330BD10B5BB
:1010E000134B012203EBC00453F830002479A240D3
:1010F00009B1026110BD426110BD0D4951F83020A7
:10110000D36801EBC0000179012088404340D360DF
:1011100070470021352809D2054A52F830108968F5
:1011200002EBC00002790120904001400846704760
:1011300008190008001002402DE9F04100250E4674
:1011400007462C460BE000BF00F0D6F80068395D7A
:10115000405C80EA8000000600D46D1C641CB44230
:10116000F2D32846BDE8F081024600208A4200D929
:101170000120704701460020C90700D001207047B8
:101180000648804706480047FEE7FEE7FEE7FEE721
:10119000FEE7FEE7FEE7FEE7FEE7FEE74512000892
:1011A000310100080CB500214B4801910091026803
:1011B00042F4803202604FF4A063026802F400320D
:1011C0000092019A521C0192009A12B9019A9A4215
:1011D000F3D10268920333D5012100913F490A6897
:1011E00042F010020A600A6822F003020A600A68EC
:1011F00042F002020A604168416041684160416812
:1012000041F480614160416821F47C114160416892
:1012100041F4E8114160016841F0807101600168AA
:101220008901FCD5416821F003014160416841F02A
:10123000020141604168C1F381010229FAD10CBD6C
:1012400000910CBD244810B5016841F00101016016
:101250004168234A114041600168224A11400160FF
:10126000016821F480210160416821F4FE014160A0
:101270004FF41F018160FFF795FF1B494FF000609D
:10128000086010BD144910B54868184A10F00C03E6
:10129000174803D0042B01D0082B0AD002604968FC
:1012A000134AC1F30311121D515C0268CA40026067
:1012B00010BD4A684B6802F470124FF0020413F438
:1012C000803F04EB924202D04B689B0301D5094B4F
:1012D00000E0064B5A43E1E70010024000200240C4
:1012E0000000FFF8FFFFF6FE08ED00E000127A00B4
:1012F0001000002000093D0000487047341B000822
:10130000A0F16101192900D82038704740EA010393
:101310009B0703D009E008C9121F08C0042AFAD2AB
:1013200003E011F8013B00F8013B521EF9D270476F
:10133000421E12F8013F002BFBD111F8013B02F8CD
:10134000013B002BF9D17047421C10F8011B00290A
:10135000FBD1801A704730B505460020034600E0F7
:101360005B1C934205D2EC5CC85C201A01D1002CB6
:10137000F6D130BD70B50F4D00B92868002412E0D9
:101380000A4602E09E4203D0521C1378002BF9D18A
:10139000DAB2224305D02BB124B1002100F8011BA1
:1013A00004E00446401C0678002EE9D1286020465F
:1013B00070BD0000240000202DE9F04791460F4643
:1013C00080460446002614F8015B2DB1FFF794FF18
:1013D0000068405DC007F6D12B2D02D02D2D18D00E
:1013E000641E4A463946204600F04FF827B1396856
:1013F000A14201D1C7F8008071054FF002040BD55E
:101400004042002803DD00F0F7F80460A007BDE8C3
:10141000F08746F48066E4E70028F8DA00F0ECF89C
:1014200004606FF00040F2E72DE9F05F0546002010
:1014300092469B4688460646814640241BE0284645
:1014400041464746224600F090F853465A46C01A95
:10145000914110D311461846224600F077F82D1A14
:1014600067EB01084F4622460120002100F06EF88C
:1014700017EB00094E41201EA4F10104DFDC4846B1
:1014800031462A464346BDE8F09F2DE9F05F82468B
:101490000078002715468B460AF10104B94630282A
:1014A00001D09DB113E014F8010B0127782803D077
:1014B000582801D045B10AE00DB1102D07D1002701
:1014C000102514F8010B02E0082500E00A2500268B
:1014D000B0460EE005FB080005FB06F1012701EB15
:1014E00010461FFA80F8B6F5803F00D3B94614F8CD
:1014F000010B294600F049F80028EBDABBF1000F98
:1015000005D00FB1641E00E05446CBF80040B9F19D
:10151000000F06D000F070F802210160C81EBDE87F
:10152000F09F48EA0640FAE7064C074D06E0E068FF
:1015300040F0010394E8070098471034AC42F6D31A
:10154000FEF7FAFD381B0008581B0008202A04DBB0
:10155000203A00FA02F1002070479140C2F12003C6
:1015600020FA03F3194390407047202A04DB203A05
:1015700021FA02F00021704721FA02F3D040C2F1B3
:10158000200291400843194670473A2800D230386B
:1015900020F02002412A01D3A2F13700884201D372
:1015A0004FF0FF30704700000FB4054B10B503A992
:1015B000044A029800F034F810BC5DF814FB0000F7
:1015C000F7180008280000200FB41CB502460020C0
:1015D00007AC00290BD0491ECDE90021054B6A4616
:1015E0002146069800F01CF8009A002111701CBCDE
:1015F0005DF814FBE1180008004870472C0000203B
:1016000002E008C8121F08C1002AFAD170477047CB
:10161000002001E001C1121F002AFBD17047000029
:101620002DE9FF4F8DB09B460F460446002606E08D
:1016300025280BD05A460F999047641C761C2078B9
:101640000028F5D111B03046BDE8F08F0025A8463E
:101650000122984900E0054314F8013F203B02FABB
:1016600003F00842F7D120782E2817D114F8010F83
:1016700045F004052A280ED06FF02F022078A0F143
:10168000300109290AD808EB880102EB410100EB7F
:101690000108641CF2E757F8048B641C20786C285E
:1016A0000DD004DC4C2812D06A2811D104E0742833
:1016B0000DD07A280CD10AE045F4001507E06178D6
:1016C00045F48015814202D1641C05F58015641C27
:1016D0002278692A45D008DC002AB3D0582A69D07C
:1016E000632A10D0642A08D13BE0702A67D0732A9D
:1016F00013D0752A5CD0782A5CD010465A460F99D0
:101700009047761CD3E017F8040B8DF800000020FA
:101710008DF80100E946012003E057F8049B4FF0E3
:10172000FF3069074FF0000501D40AE06D1C454504
:101730000DDA8542FADB19F805100029F6D106E02A
:101740006D1C8542FCDB19F805100029F8D12E44E8
:1017500004E019F8010B5A460F9990476D1EF8D214
:10176000A5E00A200021CDE90801C5F302500228B6
:101770000DD001CFC117031E71F100030DDA4FF038
:10178000000CD0EB0C006CEB01012D2308E0FF1DD9
:1017900027F00707F7E80201EDE72B0504D52B2317
:1017A0008DF8283001233BE0EB0739D02023F7E701
:1017B0000A2000E010200021CDE9080107E01020F8
:1017C000002145F00405CDE908014FF00808C5F3F4
:1017D000025002280FD001CF00214FF0000A2B0742
:1017E0001FD5702A0DD0DDE908C38CF0100C5CEA1F
:1017F000030C0CD015E0FF1D27F00707F7E80201E6
:10180000EBE740228DF828204FF0010A0BE050EA68
:10181000010306D030238DF828308DF829200223CB
:101820009A46582A04D024A20DF120090B9209E00F
:1018300026A2F9E7DDE90823FFF7F6FD0B9B9B5C89
:1018400009F8013D50EA0102F4D1ADEB0900203066
:101850000890680701D44FF001080899884502DD17
:10186000A8EB010000E000208046002506E00AA861
:101870005A46405D0F9990476D1C761C5545F6DB26
:1018800004E030205A460F999047761CB8F10001C9
:10189000A8F10108F5DC05E019F8010B5A460F998B
:1018A0009047761C0899481E08900029F4DC641CB7
:1018B000C5E60000092801003031323334353637AF
:1018C000383961626364656600000000303132338C
:1018D000343536373839414243444546000000002C
:1018E0004A68002A06D00A68531C0B6010704868CA
:1018F000401E4860704738B504468DF800006946C0
:101900000320ABBE204638BD0008014000000301A3
:10191000000801400100030100080140020003012A
:101920000008014003000301000801400400030116
:101930000008014005000301000801400600030102
:101940000008014007000301001401400F000301DB
:10195000001401400E000301001401400D000301BA
:10196000001401400C000301001401400B000301AE
:10197000001401400A0003010014014009000301A2
:101980000014014008000301001401400700030196
:10199000001401400600030100140140050003018A
:1019A000001401400400030100140140030003017E
:1019B0000014014002000301001401400100030172
:1019C0000014014000000301001801400F00000155
:1019D000001801400E000001001801400D00000138
:1019E000001801400C000001001801400B0000012C
:1019F000001801400A000001001801400900000120
:101A00000018014008000001001801400700000113
:101A10000018014006000001001801400500000107
:101A200000180140040000010018014003000001FB
:101A300000180140020000010018014001000001EF
:101A400000180140000000010008014008000301E7
:101A5000000801400B000301000801400C000301D5
:101A600000100140000003010010014001000301CB
:101A700000100140020003010010014003000301B7
:101A800000100140060000010010014007000001A5
:101A9000001001400800030100100140090003018B
:101AA0000008014009000301000801400A00030189
:101AB0000040404040404040404041414141414061
:101AC0004040404040404040404040404040404016
:101AD00040050202020202020202020202020202A5
:101AE00002202020202020202020200202020202AA
:101AF0000202909090909090101010101010101002
:101B0000101010101010101010101010020202020D
:101B10000202888888888888080808080808080851
:101B2000080808080808080808080808020202024D
:101B300040000000B11A0008581B000800000020F7
:101B40003000000000160008881B0008300000204C
:101B500080040000101600080000000000000000D3
:101B6000000000000000000000A24A040000000085
:101B7000000000000102030406070809000000003D
:081B800000000000000000005D
:0400000508000131BD
:00000001FF
