:020000040800F2
:10000000B00400203D110008451100084711000808
:10001000491100084B1100084D11000800000000B4
:100020000000000000000000000000004F11000868
:10003000511100080000000053110008551100087C
:1000400057110008571100085711000857110008F0
:1000500057110008571100085711000857110008E0
:1000600057110008571100085711000857110008D0
:1000700057110008571100085711000857110008C0
:1000800057110008571100085711000857110008B0
:1000900057110008571100085711000857110008A0
:1000A0005711000857110008571100085711000890
:1000B0005711000857110008571100085711000880
:1000C0005711000857110008571100085711000870
:1000D00057110008BF0C00085711000857110008FD
:1000E0005711000857110008571100085711000850
:1000F0005711000857110008571100085711000840
:10010000571100085711000857110008571100082F
:10011000571100085711000857110008571100081F
:10012000571100085711000857110008571100080F
:10013000DFF80CD001F0B8F900480047D70C0008F0
:10014000B00400204000F0490880EF4818380188CA
:1001500041F001010180EC49002008390880EA489B
:100160002C38018841F001010180E7481C380188E2
:10017000C907FCD0018821F0010101807047E348E4
:10018000016841F088310160011D0A6842F088323F
:100190000A60026802F0CC320260086800F0CC30DD
:1001A00008607047D948016801F033310160011DD2
:1001B0000A6802F033320A60026842F033320260A9
:1001C000086840F0333008607047D14AB2F104014A
:1001D00010F8013B13800B885B06FCD50B8823F0DD
:1001E00040030B800378002BF2D10A20108008888E
:1001F0004006FCD5088820F0400008807047C548BC
:10020000012181704FF6FF710180C3A0DDE700B5C9
:10021000D1A0FFF7DAFFDAA0FFF7D7FFDFA0FFF7E3
:10022000D4FFE4A0FFF7D1FFE3A0FFF7CEFFE9A0E2
:10023000FFF7CBFFF5A05DF804EBC6E710B58AB079
:10024000FCA0FFF7C2FF01212D2000F026FF0121B5
:100250002E2000F022FF0121072000F01EFF0121C7
:10026000062000F01AFF0121292000F016FF0121CD
:100270002A2000F012FFFFF782FFF248F24980685F
:1002800008600021072000F008FF0021062000F090
:1002900004FF00212E2000F000FF0021292000F0A3
:1002A000FCFE00212A2000F0F8FE98480830006883
:1002B000012184B2072000F0F0FE0121062000F0A9
:1002C000ECFE0121292000F0E8FE01212A2000F0A7
:1002D000E4FE01212E2000F0E0FE2346DBA22821CF
:1002E000684601F031F96846FFF76FFFD8A0FFF7C5
:1002F0006CFF0AB010BD10B5DBA0FFF766FF01214F
:100300002E2000F0CAFE01212D2000F0C6FE0121A2
:10031000292000F0C2FE01212A2000F0BEFEFFF7D6
:1003200041FFC848C84A816811607849008B0C3188
:1003300008600021072000F0B0FE0021062000F038
:10034000ACFE0021292000F0A8FE00212A2000F0A8
:10035000A4FE00212D2000F0A0FE01212D2000F0A0
:100360009CFE0121072000F098FE0121062000F0EC
:1003700094FE0121292000F090FE01212A2000F0A6
:100380008CFEBDA0FFF721FFBDE8104056E70B280B
:100390001DD2DFE800F006080A0C0E101214161821
:1003A0001A00BCA012E0BEA010E0C2A00EE0C7A0E0
:1003B0000CE0CDA00AE0D5A008E0DDA006E0E3A0B7
:1003C00004E0E9A002E0F0A000E0FBA0FDE6FEA052
:1003D00001F0AAB870B54F48001D0468641C00F015
:1003E000DFFCFE4D284600F0F4FCFD49284600F0F5
:1003F00004FD2146281D00F000FD46480168F7482D
:10040000083000F0FAFC00F0C5FCBDE87040F5A033
:10041000DBE6F24810B503683E49091D4B604268AF
:100420000A60521C1ED0EE498B421BD10189394C07
:100430002180817AA170C07AE0702088FF280DD0D9
:10044000EFA000BFFFF7C1FEA07848B1EFA000BF4A
:10045000FFF7BBFEBDE81040F0A0B6E6F7A0F1E75D
:10046000F9A0F5E7BDE81040C9E62DE9F04F85B0E9
:100470000024F9A100F03EFF724E383600283060AB
:1004800040D000F021FF00903068F4A1009A00F005
:1004900022FF204F6B4DA0464FF6FF794FF0010B26
:1004A0004FF0020A28B13068EDA1009A00F013FF66
:1004B00020B9306800F008FF03280ED00322E9A11C
:1004C000306800F008FF00281DD00322E6A1306844
:1004D00000F001FF002816D020E2E4A1002000F087
:1004E00009FF00901BA1002000F004FF01460098C6
:1004F000716170600028C3D00029C1D000F0E4FE13
:100500000090B5E1A6E204E22C2C01400018014065
:1005100004380140040000204C6F6164656420646D
:10052000656661756C742064657669636520636FC8
:100530006E66696775726174696F6E3A2031362034
:100540006269742C2073796E63206F6E206164641D
:1005500072657373000000003C2D2D2D2D2D2D2D67
:100560002D2D2D2D2D2D2D2D48454C502D2D2D2D46
:100570002D2D2D2D2D2D2D2D2D2D2D3E000000004E
:1005800057524D2C20575250202D20777269746598
:1005900020636F6D6D616E640000000052444D2C4D
:1005A00020524450202D207265616420636F6D6D70
:1005B000616E640020000000666F726D61742063DC
:1005C0006F6D6D616E6440616464726573733D64E8
:1005D0006174610053415645202D20636F6D6D613C
:1005E0006E6420746861742073617665206375722F
:1005F00072656E742064657669636520636F6E66EC
:10060000696775726174696F6E0000003C2D2D2D55
:100610002D2D2D2D2D2D2D2D2D2D454E442D484587
:100620004C502D2D2D2D2D2D2D2D2D2D2D2D2D3EA7
:10063000000000005245414420436F6D6D616E64BF
:1006400000000000300000200C140140255800007C
:100650003C2D2D2D2D7265616420636F6D706C656E
:1006600074652D2D2D000000575249544520436FCD
:100670006D6D616E640000003C2D2D2D2D2D2D2DF6
:10068000777269746520636F6D706C6574652D2D6C
:100690002D0000004E6F206572726F7273000000B3
:1006A00044617461206F7574206F662072616E679B
:1006B0006500000041646472657373206F75742077
:1006C0006F662072616E67650000000041646472AD
:1006D000657373206973206E6F74206576656E2074
:1006E0006E756D626572000041444452455353205B
:1006F0006F7220444154412068617665206E6F20FE
:1007000068657820666F726D617400005374617261
:10071000742041646472657373206D6F7265207418
:1007200068616E2053746F7020416472657373004A
:10073000416464726573732068617665206E6F2012
:1007400068657820666F726D61740000556E616235
:100750006C6520746F206C6F6F70206C61737420F7
:10076000636F6D6D616E6400546F6F206D756368AB
:100770002072657065617420636F756E7465722098
:100780002833326269742900596F75207472696563
:10079000642063616C63756C617465206C656E6761
:1007A00068742066726F6D204E554C4C20706F69D6
:1007B0006E74657200000000556E6B6E6F7720637B
:1007C0006F6D6D616E640000556E6B6E6F77207497
:1007D000797065206572726F7200000000F0000889
:1007E0005B138F2443757272656E7420636F6E663F
:1007F000696775726174696F6E20736176656400F4
:1008000031362D626974206D6F64650053796E63B3
:10081000206F6E204144445245535300436F6E662F
:10082000696775726174696F6E206C6F616465646D
:100830002066726F6D20464C41534800382D626926
:1008400074206D6F6465000053796E63206F6E20B5
:1008500044415441000000004000000057524D0048
:100860005752500052444D00524450003D00000089
:10087000706900F029FD01907068009900F03AFC61
:10088000002873D17069019900F034FC0028F8D178
:1008900010220021706800F04FFD6FF07F4100F0E2
:1008A00041FC002873D110220021706900F044FD42
:1008B000398800F037FC08B10124D1E13988494575
:1008C00008D110220021706800F036FD00F030FCE5
:1008D00000287CD1C5F800B05F4610220021706866
:1008E00000F02AFDA86010220021706900F024FDAC
:1008F0002883C5F80C80C5F81080C5F81480A5F8C9
:100900001A80AFF2A8013068884278D0C5F804A0F8
:10091000A6E1306800F0D8FC032828D0B246306841
:10092000FDA1009A00F0D7FC00286AD05FF0000615
:10093000DAF80000F9A1009A00F0CDFC40B30020E5
:10094000064306D05646DAF8000000F0BDFC032846
:100950005BD05646DAF8000000F0B6FC0246F0A183
:10096000306800F0B8FC002873D0C8E06FE0EDA15B
:10097000002000F0BFFC706000286BD000F0A4FCE9
:100980000146706800F0B6FB18B1062468E17BE010
:1009900039E010220021706800F0CEFC6FF07F413A
:1009A00000F0C0FB00286FD13988494508D11022DA
:1009B0000021706800F0C0FC00F0BAFB002878D17C
:1009C000C5F800A0102257460021706800E070E0D2
:1009D00000F0B2FCA860A5F81880C5F80C80C5F836
:1009E0001080C5F81480A5F81A80AFF2881130681D
:1009F000884204D1C5F804B032E100E001E06F6044
:100A00002EE1012694E701209AE7AFF2A8310020F9
:100A100000F070FC8246C3A1002000F06BFC014690
:100A20005FEA0A00C6E9020162D099B100F04CFC0D
:100A30008246F06800F048FC83465146B06800F0FA
:100A400059FB20B95946F06800F054FB18B1042452
:100A500006E14FE04CE010220021F06800F06CFC51
:100A6000824610220021B06800F066FC514600F07A
:100A700059FB48B910220021F06800F05DFC6FF0CE
:100A80007F4100F04FFB08B10224E9E03988494575
:100A900011D110220021B06800F04EFC00F048FB9C
:100AA00038B910220021F06800F046FC00F040FB4D
:100AB00008B10324D4E0C5F80880A5F8188047469B
:100AC00010220021B06800F037FCE86010220021FD
:100AD000F06800F031FCC5E904076F836F6030688F
:100AE0008DA1884201D1032000E004202860B7E0F6
:100AF0000924B5E0306800F0E7FB042809D030682D
:100B000000F0E2FB024688A1306800F0E4FB70B31D
:100B100033E0AFF2BC21002000F0ECFB10220021FA
:100B2000B06100F009FC4FF0FF3100F0FBFA20B19A
:100B300008242046FFF72BFC92E07D48016801293C
:100B400003D0022901D00724F3E729608168A96056
:100B5000018B2983C168E960016929614069686185
:100B600010220021B06900F0E7FB6883E1E7FFE7AE
:100B7000306800F0A9FB042809D0306800F0A4FB1D
:100B800002466CA1306800F0A6FB18B107E0FFF741
:100B900021FC65E0306800F097FB042809D030683C
:100BA00000F092FB024665A1306800F094FB18B19A
:100BB00007E0FFF72CFB53E0306800F085FB0728C7
:100BC00009D0306800F080FB02465EA1306800F07A
:100BD00082FB18B107E0FFF712FB41E0306800F03C
:100BE00073FB022809D0306800F06EFB024656A164
:100BF000306800F070FB28B109E0FF203880AFF2C8
:100C0000C43037E0306800F05FFB022809D030685C
:100C100000F05AFB02464DA1306800F05CFB28B1A1
:100C200009E0A7F80090AFF2284023E0306800F018
:100C30004BFB022809D0306800F046FB024644A175
:100C4000306800F048FB28B109E087F80280AFF275
:100C500008400FE0306800F037FB022806D00A2475
:100C600005B02046BDE8F04FFFF791BB87F802B012
:100C7000AFF26840FFF7A9FAF2E770B500F01EFB8B
:100C8000344CC1B200252068272814D2284E3836AB
:100C90000D2903D03154401C206070BD2EA0FFF7F9
:100CA00094FA20683554401C206021483830FFF702
:100CB000DCFB256070BD29A0FFF787FAF9E72C4817
:100CC0000088800604D52A48001D0088C0B2D4E7F9
:100CD00028A0FFF77ABA8AB000F0B7F900F0B8F8A8
:100CE00000F0E5F800F0F4F800F01DF9FFF791FBD3
:100CF00025A0FFF76AFA264D00242888C3B2AFF278
:100D0000B4622821684600F01FFC6846FFF75DFAD0
:100D1000641C642CF1D3FEE752414D00524F4D004C
:100D20004C4F4F500000000053415645000000005A
:100D30004C00002048454C5000000000444546410E
:100D4000554C5400534200005357000053440000D8
:100D500053410000000000203E000000546F6F204F
:100D60006C6F6E6720636F6D6D616E6400000000D4
:100D7000003801404578657074696F6E202331201A
:100D80002D205541525400005265616479000000E5
:100D9000240400402B48016941F080010161704743
:100DA00028482949416029494160704710B5254CC0
:100DB000206940F004002061206940F0400020617B
:100DC00000F039F80028FBD0206900F00400206111
:100DD00010BD10B51B4C216941F002012161606119
:100DE000206940F04000206100F025F80028FBD089
:100DF000206920F00200206110BD70B5114C06463C
:100E00000D46206940F00100C4F8100000F013F80E
:100E10000028FBD0A6F8005000F00DF80028FBD009
:100E2000280C708000F007F80028FBD0206920F023
:100E30000100206170BD0348C06840F30000401C01
:100E4000704700000020024023016745AB89EFCDC9
:100E50005848816941F480418161574940F6A66054
:100E60000880081D018842F20C021143018053489A
:100E7000016821F0C0010160016841F0800101605A
:100E8000016841F010010160016821F440610160D6
:100E9000016841F400610160016821F44071016062
:100EA00045480838018821F040010180704762B64A
:100EB00020204349C1F8000141490020213181F837
:100EC00000043D48001D018841F020010180704769
:100ED0003848816941F4006181613A48018841F0F4
:100EE00080010180018821F008010180018821F042
:100EF00010010180018841F0040101803149002284
:100F00000C310A8030494FF4FA630968B1FBF3F100
:100F10002C4B2833491E1980018821F001010180E2
:100F2000181F028070472348C16941F00201C16166
:100F30002648018841F080010180018821F00801E4
:100F40000180224A00210C321180204A283211806F
:100F5000018821F0010101800721121D11801B4928
:100F600018310A8842F480720A800A8822F470429A
:100F70000A80164920310A8822F020020A8013498B
:100F800008310A8842F007020A800A8822F010021B
:100F90000A800A8842F020020A800A8842F0400251
:100FA0000A80018841F004010180018841F00101BB
:100FB00001807047001002400838014004080140D9
:100FC00004E000E0002C014010000020000400407C
:100FD000F0B5464B0F2703EBC0051C46B5F804C01F
:100FE00054F830404FEA8C06BCF1080F0FD2D4F809
:100FF00000C0B7402CEA070CC4F800C053F83040DA
:1010000026682F79BF00B9400E4326600DE0203ED0
:10101000B7406668BE4366602C79A400203CA140BE
:1010200053F8304066683143616053F83010CC6843
:101030002F790126BE40B443CC6053F83000C1681C
:101040002B799A401143C160F0BD30B528488169C1
:1010500041F004018161816941F008018161816988
:1010600041F010018161816941F020018161816954
:1010700041F040018161816941F0010181611B4DB5
:10108000002400BF05EBC400C27981792046FFF738
:101090009FFF641C362CF5D330BD10B5134B0122D5
:1010A00003EBC00453F830002479A24009B1026177
:1010B00010BD426110BD0D4951F83020D36801EBDD
:1010C000C0000179012088404340D360704700216F
:1010D000362809D2054A52F83010896802EBC00060
:1010E00002790120904001400846704788180008A6
:1010F000001002402DE9F04100250E4607462C461F
:101100000BE000BF00F0D6F80068395D405C80EA73
:101110008000000600D46D1C641CB442F2D3284643
:10112000BDE8F081024600208A4200D901207047C4
:1011300001460020C90700D00120704706488047BB
:1011400006480047FEE7FEE7FEE7FEE7FEE7FEE7AC
:10115000FEE7FEE7FEE7FEE70112000831010008A6
:101160000CB500214B4801910091026842F4803295
:1011700002604FF4A063026802F400320092019A08
:10118000521C0192009A12B9019A9A42F3D1026854
:10119000920333D5012100913F490A6842F01002C1
:1011A0000A600A6822F003020A600A6842F002023A
:1011B0000A604168416041684160416841F4806172
:1011C0004160416821F47C114160416841F4E811BB
:1011D0004160016841F08071016001688901FCD5BE
:1011E000416821F003014160416841F00201416022
:1011F0004168C1F381010229FAD10CBD00910CBDF7
:10120000244810B5016841F0010101604168234A9A
:10121000114041600168224A11400160016821F4D7
:1012200080210160416821F4FE0141604FF41F01FB
:101230008160FFF795FF1B494FF00060086010BD0B
:10124000144910B54868184A10F00C03174803D029
:10125000042B01D0082B0AD002604968134AC1F35D
:101260000311121D515C0268CA40026010BD4A6839
:101270004B6802F470124FF0020413F4803F04EB49
:10128000924202D04B689B0301D5094B00E0064B0C
:101290005A43E1E700100240002002400000FFF83E
:1012A000FFFFF6FE08ED00E000127A0010000020BB
:1012B00000093D0000487047BC1A0008A0F1610118
:1012C000192900D820387047421C10F8011B00294A
:1012D000FBD1801A704730B505460020034600E078
:1012E0005B1C934205D2EC5CC85C201A01D1002C37
:1012F000F6D130BD70B50F4D00B92868002412E05A
:101300000A4602E09E4203D0521C1378002BF9D10A
:10131000DAB2224305D02BB124B1002100F8011B21
:1013200004E00446401C0678002EE9D128602046DF
:1013300070BD0000240000202DE9F04791460F46C3
:1013400080460446002614F8015B2DB1FFF7B2FF7A
:101350000068405DC007F6D12B2D02D02D2D18D08E
:10136000641E4A463946204600F04FF827B13968D6
:10137000A14201D1C7F8008071054FF002040BD5DE
:101380004042002803DD00F0F7F80460A007BDE844
:10139000F08746F48066E4E70028F8DA00F0ECF81D
:1013A00004606FF00040F2E72DE9F05F0546002091
:1013B00092469B4688460646814640241BE02846C6
:1013C00041464746224600F090F853465A46C01A16
:1013D000914110D311461846224600F077F82D1A95
:1013E00067EB01084F4622460120002100F06EF80D
:1013F00017EB00094E41201EA4F10104DFDC484632
:1014000031462A464346BDE8F09F2DE9F05F82460B
:101410000078002715468B460AF10104B9463028AA
:1014200001D09DB113E014F8010B0127782803D0F7
:10143000582801D045B10AE00DB1102D07D1002781
:10144000102514F8010B02E0082500E00A2500260B
:10145000B0460EE005FB080005FB06F1012701EB95
:1014600010461FFA80F8B6F5803F00D3B94614F84D
:10147000010B294600F049F80028EBDABBF1000F18
:1014800005D00FB1641E00E05446CBF80040B9F11E
:10149000000F06D000F070F802210160C81EBDE800
:1014A000F09F48EA0640FAE7064C074D06E0E06880
:1014B00040F0010394E8070098471034AC42F6D39B
:1014C000FEF73AFEC01A0008E01A0008202A04DBE2
:1014D000203A00FA02F1002070479140C2F1200347
:1014E00020FA03F3194390407047202A04DB203A86
:1014F00021FA02F00021704721FA02F3D040C2F134
:10150000200291400843194670473A2800D23038EB
:1015100020F02002412A01D3A2F13700884201D3F2
:101520004FF0FF30704700000FB4054B10B503A912
:10153000044A029800F034F810BC5DF814FB000077
:1015400077180008280000200FB41CB502460020C0
:1015500007AC00290BD0491ECDE90021054B6A4696
:101560002146069800F01CF8009A002111701CBC5E
:101570005DF814FB61180008004870472C0000203B
:1015800002E008C8121F08C1002AFAD1704770474C
:10159000002001E001C1121F002AFBD170470000AA
:1015A0002DE9FF4F8DB09B460F460446002606E00E
:1015B00025280BD05A460F999047641C761C20783A
:1015C0000028F5D111B03046BDE8F08F0025A846BF
:1015D0000122984900E0054314F8013F203B02FA3C
:1015E00003F00842F7D120782E2817D114F8010F04
:1015F00045F004052A280ED06FF02F022078A0F1C4
:10160000300109290AD808EB880102EB410100EBFF
:101610000108641CF2E757F8048B641C20786C28DE
:101620000DD004DC4C2812D06A2811D104E07428B3
:101630000DD07A280CD10AE045F4001507E0617856
:1016400045F48015814202D1641C05F58015641CA7
:101650002278692A45D008DC002AB3D0582A69D0FC
:10166000632A10D0642A08D13BE0702A67D0732A1D
:1016700013D0752A5CD0782A5CD010465A460F9950
:101680009047761CD3E017F8040B8DF8000000207B
:101690008DF80100E946012003E057F8049B4FF064
:1016A000FF3069074FF0000501D40AE06D1C454585
:1016B0000DDA8542FADB19F805100029F6D106E0AB
:1016C0006D1C8542FCDB19F805100029F8D12E4469
:1016D00004E019F8010B5A460F9990476D1EF8D295
:1016E000A5E00A200021CDE90801C5F30250022837
:1016F0000DD001CFC117031E71F100030DDA4FF0B9
:10170000000CD0EB0C006CEB01012D2308E0FF1D59
:1017100027F00707F7E80201EDE72B0504D52B2397
:101720008DF8283001233BE0EB0739D02023F7E781
:101730000A2000E010200021CDE9080107E0102078
:10174000002145F00405CDE908014FF00808C5F374
:10175000025002280FD001CF00214FF0000A2B07C2
:101760001FD5702A0DD0DDE908C38CF0100C5CEA9F
:10177000030C0CD015E0FF1D27F00707F7E8020166
:10178000EBE740228DF828204FF0010A0BE050EAE9
:10179000010306D030238DF828308DF8292002234C
:1017A0009A46582A04D024A20DF120090B9209E090
:1017B00026A2F9E7DDE90823FFF7F6FD0B9B9B5C0A
:1017C00009F8013D50EA0102F4D1ADEB09002030E7
:1017D0000890680701D44FF001080899884502DD98
:1017E000A8EB010000E000208046002506E00AA8E2
:1017F0005A46405D0F9990476D1C761C5545F6DBA7
:1018000004E030205A460F999047761CB8F1000149
:10181000A8F10108F5DC05E019F8010B5A460F990B
:101820009047761C0899481E08900029F4DC641C37
:10183000C5E600000928010030313233343536372F
:10184000383961626364656600000000303132330C
:1018500034353637383941424344454600000000AC
:101860004A68002A06D00A68531C0B60107048684A
:10187000401E4860704738B504468DF80000694640
:101880000320ABBE204638BD000801400000030124
:1018900000080140010003010008014002000301AB
:1018A0000008014003000301000801400400030197
:1018B0000008014005000301000801400600030183
:1018C0000008014007000301001401400F0003015C
:1018D000001401400E000301001401400D0003013B
:1018E000001401400C000301001401400B0003012F
:1018F000001401400A000301001401400900030123
:101900000014014008000301001401400700030116
:10191000001401400600030100140140050003010A
:1019200000140140040003010014014003000301FE
:1019300000140140020003010014014001000301F2
:101940000014014000000301001801400F000001D5
:10195000001801400E000001001801400D000001B8
:10196000001801400C000001001801400B000001AC
:10197000001801400A0000010018014009000001A0
:101980000018014008000001001801400700000194
:101990000018014006000001001801400500000188
:1019A000001801400400000100180140030000017C
:1019B0000018014002000001001801400100000170
:1019C0000018014000000001000801400800030168
:1019D000000801400B000301000801400C00030156
:1019E000001001400000030100100140010003014C
:1019F0000010014002000301001001400300030138
:101A00000010014006000001001001400700000125
:101A1000001001400800030100100140090003010B
:101A20000008014009000301000801400A00030109
:101A3000000C014005000001004040404040404093
:101A40004040414141414140404040404040404091
:101A50004040404040404040400502020202020235
:101A60000202020202020202022020202020202084
:101A70002020200202020202020290909090909098
:101A80001010101010101010101010101010101056
:101A900010101010020202020202888888888888CA
:101AA00008080808080808080808080808080808B6
:101AB000080808080202020240000000391A000863
:101AC000E01A000800000020300000008015000827
:101AD000101B000830000020800400009015000852
:101AE00000000000000000000000000000000000F6
:101AF00000A24A04000000000000000001020304EC
:101B000006070809000000000000000000000000B7
:0400000508000131BD
:00000001FF
