:020000040800F2
:1000000090040020F50E0008FD0E0008FF0E000809
:10001000010F0008030F0008050F00080000000092
:10002000000000000000000000000000070F0008B2
:10003000090F0008000000000B0F00080D0F00085A
:100040000F0F00080F0F00080F0F00080F0F000818
:100050000F0F00080F0F00080F0F00080F0F000808
:100060000F0F00080F0F00080F0F00080F0F0008F8
:100070000F0F00080F0F00080F0F00080F0F0008E8
:100080000F0F00080F0F00080F0F00080F0F0008D8
:100090000F0F00080F0F00080F0F00080F0F0008C8
:1000A0000F0F00087B0900080F0F00080F0F000852
:1000B0000F0F00080F0F00080F0F00080F0F0008A8
:1000C0000F0F00080F0F00080F0F00080F0F000898
:1000D0000F0F0008650900080F0F00080F0F000838
:1000E0000F0F00080F0F00080F0F00080F0F000878
:1000F0000F0F00080F0F00080F0F00080F0F000868
:100100000F0F00080F0F00080F0F00080F0F000857
:100110000F0F00080F0F00080F0F00080F0F000847
:100120000F0F00080F0F00080F0F00080F0F000837
:10013000DFF80CD001F094F8004800479D09000852
:10014000900400204000F0490880EF4818380188EA
:1001500041F001010180EC49002008390880EA489B
:100160002C38018841F001010180E7481C380188E2
:10017000C907FCD0018821F0010101807047E348E4
:10018000016841F088310160011D0A6842F088323F
:100190000A60026802F0CC320260086800F0CC30DD
:1001A00008607047D948016801F033310160011DD2
:1001B0000A6802F033320A60026842F033320260A9
:1001C000086840F0333008607047D14AB2F104014A
:1001D00010F8013B13800B885B06FCD50B8823F0DD
:1001E00040030B800378002BF2D10A20108008888E
:1001F0004006FCD5088820F0400008807047C548BC
:1002000000B5012101604160C3A0FFF7DEFFC5A07A
:10021000FFF7DBFFC7A05DF804EBD6E700B5CEA083
:10022000FFF7D3FFD1A0FFF7D0FFDAA0FFF7CDFF94
:10023000E0A0FFF7CAFFE6A0FFF7C7FFE5A0FFF7C2
:10024000C4FFEBA0FFF7C1FFF7A05DF804EBBCE72C
:1002500010B58AB0FEA0FFF7B8FF01212D2000F0F5
:100260001CFE01212E2000F018FE0121072000F0C5
:1002700014FE0121062000F010FE0121292000F0CB
:100280000CFE01212A2000F008FEFFF778FFA148AC
:10029000F3491C38406808600021072000F0FDFD8C
:1002A0000021062000F0F9FD00212E2000F0F5FDD0
:1002B0000021292000F0F1FD00212A2000F0EDFDB1
:1002C000924808300068012184B2072000F0E5FD63
:1002D0000121062000F0E1FD0121292000F0DDFDD3
:1002E00001212A2000F0D9FD01212E2000F0D5FDAA
:1002F0002346DCA22821684601F002F86846FFF791
:1003000064FFD9A0FFF761FF0AB010BD10B5DCA0F3
:10031000FFF75BFF01212E2000F0BFFD01212D2002
:1003200000F0BBFD0121292000F0B7FD01212A20AA
:1003300000F0B3FDFFF736FF7648C94A1C38416824
:100340001160724940690C3108600021072000F0FB
:10035000A4FD0021062000F0A0FD0021292000F0CE
:100360009CFD00212A2000F098FD00212D2000F0A6
:1003700094FD01212D2000F090FD0121072000F0C7
:100380008CFD0121062000F088FD0121292000F0CC
:1003900084FD01212A2000F080FDBDA0FFF715FF9C
:1003A000BDE8104054E72DE9F04100250E46074610
:1003B0002C460AE000F05AFE0068395D405C80EA95
:1003C0008000000600D46D1C641CB442F2D32846A1
:1003D000BDE8F08101460020B1F1807F00D301200B
:1003E00070474C4A0146002052681AB1B1F5803F6F
:1003F00003D301E0FF2900D9012070472DE9F04126
:10040000444C283C606800F03BFE0646A06800F0C3
:1004100037FE0746002531466068FFF7C4FFE0B1AC
:1004200000263946A068FFF7BEFFC0B10020064293
:100430001DD010220021606800F05AFE354E1022B7
:100440001C3E00217060A06800F052FE7061706870
:10045000FFF7C0FF28B110250AE00126E1E70120DF
:10046000E5E77069FFF7BDFF10B1082500E0202522
:100470002846ADE740B1082808D0102808D0202829
:1004800008D08AA000F02CBF8DA004E08FA002E06D
:1004900093A000E098A098E670B5A0480468641C9A
:1004A00000F018FB9E4D284600F02DFB9D49284684
:1004B00000F03DFB2146281D00F039FB154C984803
:1004C0000830216800F033FB954861680C3000F07B
:1004D0002EFB00F0F9FABDE8704093A075E610B568
:1004E00098A0FFF772FE8E4803688C494B60426803
:1004F0000A60521C06D08B498B4203D18168054C9F
:10050000216031E144E100002C2C01400018014041
:1005100004380140580000204461746120313620C5
:100520006269740053594E43206F6E206164647297
:1005300065737300436F6E66696775726174696F86
:100540006E206C6F616465642066726F6D206465F7
:100550006661756C7400000068656C70202D2074F5
:100560006869732068656C70000000003C2D2D2DBB
:100570002D2D2D2D2D2D2D2D2D2D2D2D48454C5036
:100580002D2D2D2D2D2D2D2D2D2D2D2D2D2D2D3E8A
:100590000000000057522C2057524D2C205752502B
:1005A000202D20777269746520636F6D6D616E64B4
:1005B0000000000052442C2052444D2C2052445044
:1005C000202D207265616420636F6D6D616E640023
:1005D00020000000666F726D617420636F6D6D6145
:1005E0006E6440616464726573733D64617461003C
:1005F00053415645202D20636F6D6D616D742074DD
:1006000068617420736176652063757272656E74BB
:100610002064657669636520636F6E6669677572CD
:100620006174696F6E0000003C2D2D2D2D2D2D2D38
:100630002D2D2D2D2D2D454E442D48454C502D2D25
:100640002D2D2D2D2D2D2D2D2D2D2D3E000000007D
:100650005245414420436F6D6D616E64000000009F
:100660000C140140255800003C2D2D2D2D72656184
:100670006420636F6D706C6574652D2D2D00000016
:10068000575249544520436F6D6D616E6400000000
:100690003C2D2D2D2D2D2D2D777269746520636FC6
:1006A0006D706C6574652D2D2D000000556E6B6EA0
:1006B0006F772074797065206572726F7200000028
:1006C0004E6F206572726F72730000004461746136
:1006D000206F7574206F662072616E676500000080
:1006E00041646472657373206F7574206F66207245
:1006F000616E67650000000044617461206F7220C4
:10070000616464726573732068617665206E6F2022
:1007100068657820666F726D6174000008000020C3
:1007200000F000085B138F2443757272656E7420AD
:10073000636F6E66696775726174696F6E2073614D
:1007400076656400507265706172696E67206465D9
:100750007669636520636F6E666967757261746937
:100760006F6E2E2E2E000000C068606061B192A0F6
:10077000FFF72BFD606848B193A000BFFFF725FD90
:10078000BDE8104093A020E59AA0F1E79DA0F5E711
:10079000BDE8104033E52DE9F0479D4C206800F09E
:1007A0006FFC81464A469BA1206800F070FCD0B1E6
:1007B00000264A4698A1206800F069FCA8B10020F4
:1007C00006434A4695A1206800F061FC78B10020FC
:1007D0008F4F06434FF0000507F10C070DD0FFF7D0
:1007E0000DFE30B12AE00126E3E70120E8E7012011
:1007F000EEE73D60BDE8F04788E54A4688A12068FD
:1008000000F045FCE8B14FF000084A4685A1206899
:1008100000F03DFCC0B1002048EA00084A4682A131
:10082000206800F034FC88B15FF0000058EA00084E
:100830004FF0010610D0FFF7E1FD48B1BDE8F047E9
:1008400018E64FF00108E0E70120E5E70120EDE7B9
:100850003E60BDE8F047FBE4042274A1206800F08C
:1008600016FC002845D0042272A1206800F00FFC7D
:1008700050B3042271A1206800F009FC38B30822AB
:1008800070A1206800F003FC20B34A466FA12068E5
:1008900000F0FDFB5E4F2837F8B14A466CA1206896
:1008A00000F0F5FBE0B14A466AA1206800F0EFFBDA
:1008B000C8B14A4668A1206800F0E9FBB0B16748BA
:1008C0004068BDE8F04780E4BDE8F047E4E5BDE8F6
:1008D000F047A3E4BDE8F04791E44AA07D60F0E76B
:1008E00039A07E60EDE75EA03D60EAE760A03E6073
:1008F000E7E7BDE8F08770B561A100F0D7FB0446DB
:1009000060A1002000F0D2FB05463DA1002000F0D0
:10091000CDFB3F490C60C1E90150BDE870403AE7AA
:1009200070B500F0A7FB4D4CC1B2002520782728F8
:1009300014D2374E38360D2903D03154401C207064
:1009400070BD51A0FFF741FC20783554401C207049
:100950002F483830FFF7CFFF257070BD4BA0FFF751
:1009600034FCF9E74E480088800604D54C48001D49
:100970000088C0B2D4E74BA027E44F48018821F09B
:10098000010101804D480168C907016802D021F0CA
:10099000010101E041F001010160704700F055FAEA
:1009A00000F0B7F900F0E4F900F0ECF8FFF797FD7C
:1009B00043A0FFF70AFCFEE753796E63206F6E20B9
:1009C000616464726573730031362D626974206DE1
:1009D0006F646500436F6E66696775726174696FF5
:1009E0006E206C6F616465642066726F6D20464C8A
:1009F0004153480053796E63206F6E2044617461E7
:100A000000000000382D626974206D6F646500007D
:100A1000300000205752000057524D0057525000EE
:100A20005244000052444D00524450004C4F4F502D
:100A300000000000534156450000000048454C505E
:100A40000000000044454641554C5400534200000C
:100A500053570000534400005341000000000020A1
:100A600053796E63206F6E204441544100000000B2
:100A700053796E63206F6E204144445245535300B6
:100A8000400000003D0000003E000000546F6F2059
:100A90006C6F6E6720636F6D6D616E6400000000A7
:100AA000003801404578657074696F6E20233120ED
:100AB0002D20554152540000102C01400C0C0140D7
:100AC00052656164790000002B48016941F08001A2
:100AD00001617047284829494160294941607047B0
:100AE00010B5254C206940F004002061206940F0D9
:100AF0004000206100F039F80028FBD0206900F0A8
:100B00000400206110BD10B51B4C216941F00201A9
:100B100021616061206940F04000206100F025F80B
:100B20000028FBD0206920F00200206110BD70B5C4
:100B3000114C06460D46206940F00100C4F8100033
:100B400000F013F80028FBD0A6F8005000F00DF8D4
:100B50000028FBD0280C708000F007F80028FBD09C
:100B6000206920F00100206170BD0348C06840F397
:100B70000000401C70470000002002402301674530
:100B8000AB89EFCD8A48816941F400618161894870
:100B9000018841F080010180018821F00801018075
:100BA000018821F010010180018841F004010180D9
:100BB000804900220C310A807F494FF4FA630968AA
:100BC000B1FBF3F17B4B2833491E1980018821F0DA
:100BD00001010180181F028070477548816941F04A
:100BE0000801816175490A6822F00C020A600A68EE
:100BF00042F003020A60816941F4006181616D483D
:100C0000018841F080010180018821F00801018004
:100C1000018821F010010180018841F00401018068
:100C200064490C310A8842F001020A80614A0021BD
:100C3000283211805F4B07222C331A80028822F061
:100C4000010202805B482430018070475848816966
:100C500041F00801816159490A6822F00C020A60DA
:100C60000A6842F003020A60C16941F00101C161F2
:100C70008004018841F080010180018821F0080191
:100C80000180018821F010010180018841F00401F8
:100C90000180818941F001018181012101858185E6
:100CA000018821F0010101800021818470474348BF
:100CB000016821F004010160016841F00801016050
:100CC000016841F0030101603948C16941F0020146
:100CD000C1613B48018841F08001018038492031E1
:100CE0000A8842F480720A80091F0A8842F0700262
:100CF0000A80334A0021283211804721121D1180B9
:100D00002F4A24213C321180018821F00101018009
:100D100070472748816941F480418161294940F643
:100D2000A6600880081D018842F20C021143018070
:100D30002548016821F0C0010160016841F080018F
:100D40000160016841F010010160016821F4406117
:100D50000160016841F400610160016821F44071A3
:100D6000016018480838018821F04001018070476F
:100D700010B562B6252000F00EF8192000F00BF82F
:100D80001249002081F800040E48001D018841F03E
:100D90002001018010BD002809DB00F01F020121A5
:100DA00091404009800000F1E020C0F80011704738
:100DB00000100240002C014010000020000C0140F7
:100DC00000040040083801400408014025E000E02C
:100DD000F0B5464B0F2703EBC0051C46B5F804C021
:100DE00054F830404FEA8C06BCF1080F0FD2D4F80B
:100DF00000C0B7402CEA070CC4F800C053F83040DC
:100E000026682F79BF00B9400E4326600DE0203ED2
:100E1000B7406668BE4366602C79A400203CA140C0
:100E200053F8304066683143616053F83010CC6845
:100E30002F790126BE40B443CC6053F83000C1681E
:100E40002B799A401143C160F0BD30B528488169C3
:100E500041F004018161816941F00801816181698A
:100E600041F010018161816941F020018161816956
:100E700041F040018161816941F0010181611B4DB7
:100E8000002400BF05EBC400C27981792046FFF73A
:100E90009FFF641C362CF5D330BD10B5134B0122D7
:100EA00003EBC00453F830002479A24009B1026179
:100EB00010BD426110BD0D4951F83020D36801EBDF
:100EC000C0000179012088404340D3607047362834
:100ED0000AD2064951F83020926801EBC00001792E
:100EE00001208840104070470020704740160008DD
:100EF000001002400648804706480047FEE7FEE72C
:100F0000FEE7FEE7FEE7FEE7FEE7FEE7FEE7FEE7B9
:100F1000B90F0008310100080CB500214B480191C0
:100F20000091026842F4803202604FF4A0630268CC
:100F300002F400320092019A521C0192009A12B9F6
:100F4000019A9A42F3D10268920333D501210091AC
:100F50003F490A6842F010020A600A6822F0030260
:100F60000A600A6842F002020A6041684160416812
:100F70004160416841F480614160416821F47C1125
:100F80004160416841F4E8114160016841F08071BD
:100F9000016001688901FCD5416821F003014160CD
:100FA000416841F0020141604168C1F381010229B9
:100FB000FAD10CBD00910CBD244810B5016841F078
:100FC000010101604168234A114041600168224AE1
:100FD00011400160016821F480210160416821F421
:100FE000FE0141604FF41F018160FFF795FF1B492F
:100FF0004FF00060086010BD144910B54868184AE9
:1010000010F00C03174803D0042B01D0082B0AD092
:1010100002604968134AC1F30311121D515C026852
:10102000CA40026010BD4A684B6802F470124FF06B
:10103000020413F4803F04EB924202D04B689B03FE
:1010400001D5094B00E0064B5A43E1E7001002408E
:10105000002002400000FFF8FFFFF6FE08ED00E070
:1010600000127A001000002000093D00004870477F
:1010700074180008A0F16101192900D820387047C0
:10108000421C10F8011B0029FBD1801A704730B5B3
:1010900005460020034600E05B1C934205D2EC5C51
:1010A000C85C201A01D1002CF6D130BD70B50F4DAF
:1010B00000B92868002412E00A4602E09E4203D0EC
:1010C000521C1378002BF9D1DAB2224305D02BB190
:1010D00024B1002100F8011B04E00446401C0678FE
:1010E000002EE9D12860204670BD000024000020B9
:1010F0002DE9F04791460F4680460446002614F835
:10110000015B2DB1FFF7B2FF0068405DC007F6D16B
:101110002B2D02D02D2D18D0641E4A46394620466C
:1011200000F04FF827B13968A14201D1C7F800801B
:1011300071054FF002040BD54042002803DD00F09A
:10114000F7F80460A007BDE8F08746F48066E4E79E
:101150000028F8DA00F0ECF804606FF00040F2E7E5
:101160002DE9F05F0546002092469B4688460646DC
:10117000814640241BE0284641464746224600F06F
:1011800090F853465A46C01A914110D3114618465A
:10119000224600F077F82D1A67EB01084F462246E9
:1011A0000120002100F06EF817EB00094E41201ECF
:1011B000A4F10104DFDC484631462A464346BDE837
:1011C000F09F2DE9F05F82460078002715468B4698
:1011D0000AF10104B946302801D09DB113E014F89A
:1011E000010B0127782803D0582801D045B10AE027
:1011F0000DB1102D07D10027102514F8010B02E0C6
:10120000082500E00A250026B0460EE005FB080090
:1012100005FB06F1012701EB10461FFA80F8B6F531
:10122000803F00D3B94614F8010B294600F049F875
:101230000028EBDABBF1000F05D00FB1641E00E00F
:101240005446CBF80040B9F1000F06D000F070F81A
:1012500002210160C81EBDE8F09F48EA0640FAE797
:10126000064C074D06E0E06840F0010394E80700F3
:1012700098471034AC42F6D3FEF75EFF881800089A
:10128000A8180008202A04DB203A00FA02F1002006
:1012900070479140C2F1200320FA03F319439040B4
:1012A0007047202A04DB203A21FA02F0002170471F
:1012B00021FA02F3D040C2F12002914008431946BE
:1012C00070473A2800D2303820F02002412A01D35A
:1012D000A2F13700884201D34FF0FF307047000081
:1012E0000FB4054B10B503A9044A029800F034F876
:1012F00010BC5DF814FB00002F1600082800002029
:101300000FB41CB50246002007AC00290BD0491EC3
:10131000CDE90021054B6A462146069800F01CF8ED
:10132000009A002111701CBC5DF814FB191600080E
:10133000004870472C00002002E008C8121F08C1B6
:10134000002AFAD170477047002001E001C1121F46
:10135000002AFBD1704700002DE9FF4F8DB09B465E
:101360000F460446002606E025280BD05A460F9962
:101370009047641C761C20780028F5D111B03046C7
:10138000BDE8F08F0025A8460122984900E00543FA
:1013900014F8013F203B02FA03F00842F7D120780D
:1013A0002E2817D114F8010F45F004052A280ED075
:1013B0006FF02F022078A0F1300109290AD808EB3C
:1013C000880102EB410100EB0108641CF2E757F8C9
:1013D000048B641C20786C280DD004DC4C2812D0BF
:1013E0006A2811D104E074280DD07A280CD10AE0C3
:1013F00045F4001507E0617845F48015814202D17B
:10140000641C05F58015641C2278692A45D008DC27
:10141000002AB3D0582A69D0632A10D0642A08D190
:101420003BE0702A67D0732A13D0752A5CD0782AE3
:101430005CD010465A460F999047761CD3E017F8B7
:10144000040B8DF8000000208DF80100E946012012
:1014500003E057F8049B4FF0FF3069074FF0000599
:1014600001D40AE06D1C45450DDA8542FADB19F816
:1014700005100029F6D106E06D1C8542FCDB19F849
:1014800005100029F8D12E4404E019F8010B5A4642
:101490000F9990476D1EF8D2A5E00A200021CDE9F2
:1014A0000801C5F3025002280DD001CFC117031E59
:1014B00071F100030DDA4FF0000CD0EB0C006CEB77
:1014C00001012D2308E0FF1D27F00707F7E80201BF
:1014D000EDE72B0504D52B238DF8283001233BE0C5
:1014E000EB0739D02023F7E70A2000E01020002185
:1014F000CDE9080107E01020002145F00405CDE901
:1015000008014FF00808C5F3025002280FD001CFA0
:1015100000214FF0000A2B071FD5702A0DD0DDE9FE
:1015200008C38CF0100C5CEA030C0CD015E0FF1D16
:1015300027F00707F7E80201EBE740228DF82820A3
:101540004FF0010A0BE050EA010306D030238DF87A
:1015500028308DF8292002239A46582A04D024A244
:101560000DF120090B9209E026A2F9E7DDE9082335
:10157000FFF7F6FD0B9B9B5C09F8013D50EA010269
:10158000F4D1ADEB090020300890680701D44FF08A
:1015900001080899884502DDA8EB010000E0002061
:1015A0008046002506E00AA85A46405D0F999047FC
:1015B0006D1C761C5545F6DB04E030205A460F9929
:1015C0009047761CB8F10001A8F10108F5DC05E0B0
:1015D00019F8010B5A460F999047761C0899481E36
:1015E00008900029F4DC641CC5E60000092801000D
:1015F0003031323334353637383961626364656689
:10160000000000003031323334353637383941424A
:1016100043444546000000004A68002A06D00A6894
:10162000531C0B6010704868401E4860704738B506
:1016300004468DF8000069460320ABBE204638BD45
:1016400000080140000003010008014001000301FF
:1016500000080140020003010008014003000301EB
:1016600000080140040003010008014005000301D7
:1016700000080140060003010008014007000301C3
:10168000001401400F000301001401400E0003018B
:10169000001401400D000301001401400C0003017F
:1016A000001401400B000301001401400A00030173
:1016B0000014014009000301001401400800030167
:1016C000001401400700030100140140060003015B
:1016D000001401400500030100140140040003014F
:1016E0000014014003000301001401400200030143
:1016F0000014014001000301001401400000030137
:10170000001801400F000001001801400E00000108
:10171000001801400D000001001801400C000001FC
:10172000001801400B000001001801400A000001F0
:1017300000180140090000010018014008000001E4
:1017400000180140070000010018014006000001D8
:1017500000180140050000010018014004000001CC
:1017600000180140030000010018014002000001C0
:1017700000180140010000010018014000000001B4
:101780000008014008000301000801400B000301AC
:10179000000801400C00030100100140000003019B
:1017A000001001400100030100100140020003018C
:1017B0000010014003000301001001400600000179
:1017C0000010014007000001001001400800030163
:1017D0000010014009000301000801400900030155
:1017E000000801400A000301000C01400000000154
:1017F0000040404040404040404041414141414024
:1018000040404040404040404040404040404040D8
:101810004005020202020202020202020202020267
:10182000022020202020202020202002020202026C
:1018300002029090909090901010101010101010C4
:1018400010101010101010101010101002020202D0
:101850000202888888888888080808080808080814
:101860000808080808080808080808080202020210
:1018700040000000F1170008554E4B4E4F572043D3
:101880004F4D4D414E440000A818000800000020B4
:101890003000000038130008D8180008300000207D
:1018A00060040000481300080000000078180008D9
:1018B000000000000000000000A24A040000000038
:1018C00000000000010203040607080900000000F0
:0818D000000000000000000010
:0400000508000131BD
:00000001FF
