:020000040800F2
:1000000088040020E50C0008ED0C0008EF0C000847
:10001000F10C0008F30C0008F50C000800000000CB
:10002000000000000000000000000000F70C0008C5
:10003000F90C000800000000FB0C0008FD0C000893
:10004000FF0C0008FF0C0008FF0C0008FF0C000864
:10005000FF0C0008FF0C0008FF0C0008FF0C000854
:10006000FF0C0008FF0C0008FF0C0008FF0C000844
:10007000FF0C0008FF0C0008FF0C0008FF0C000834
:10008000FF0C0008FF0C0008FF0C0008FF0C000824
:10009000FF0C0008FF0C0008FF0C0008FF0C000814
:1000A000FF0C00085D070008FF0C0008FF0C0008AB
:1000B000FF0C0008FF0C0008FF0C0008FF0C0008F4
:1000C000FF0C0008FF0C0008FF0C0008FF0C0008E4
:1000D000FF0C000847070008FF0C0008FF0C000891
:1000E000FF0C0008FF0C0008FF0C0008FF0C0008C4
:1000F000FF0C0008FF0C0008FF0C0008FF0C0008B4
:10010000FF0C0008FF0C0008FF0C0008FF0C0008A3
:10011000FF0C0008FF0C0008FF0C0008FF0C000893
:10012000FF0C0008FF0C0008FF0C0008FF0C000883
:10013000DFF80CD000F08CFF00480047B307000840
:10014000880400204000FD490880FC4818380188D8
:1001500041F001010180F949002008390880F74881
:100160002C38018841F001010180F4481C380188D5
:10017000C907FCD0018821F0010101807047F048D7
:10018000016841F088310160011D0A6842F088323F
:100190000A60026802F0CC320260086800F0CC30DD
:1001A00008607047E648016801F033310160011DC5
:1001B0000A6802F033320A60026842F033320260A9
:1001C000086840F0333008607047DE4AB2F104013D
:1001D00010F8013B13800B885B06FCD50B8823F0DD
:1001E00040030B800378002BF2D10A20108008888E
:1001F0004006FCD5088820F0400008807047D2A057
:10020000E3E7DAA0E1E710B58AB0DDA0FFF7DDFF94
:1002100001212D2000F039FD01212E2000F035FDB7
:100220000121072000F031FD0121062000F02DFD05
:100230000121292000F029FD01212A2000F025FDBF
:10024000FFF79DFFD248D34940680860002107208E
:1002500000F01BFD0021062000F017FD00212E20DC
:1002600000F013FD0021292000F00FFD00212A20BD
:1002700000F00BFDB24808300068012184B207206D
:1002800000F003FD0121062000F0FFFC01212920E0
:1002900000F0FBFC01212A2000F0F7FC01212E20B8
:1002A00000F0F3FC2346BCA22821684600F010FFB2
:1002B0006846FFF78AFFB9A0FFF787FF0AB010BDB5
:1002C00010B5BCA0FFF781FF01212E2000F0DDFC5E
:1002D00001212D2000F0D9FC0121292000F0D5FCBE
:1002E00001212A2000F0D1FCFFF75CFFA848A94AB1
:1002F00041681160924940690C3108600021072073
:1003000000F0C3FC0021062000F0BFFC00212920E2
:1003100000F0BBFC00212A2000F0B7FC00212D20BA
:1003200000F0B3FC01212D2000F0AFFC01210720DB
:1003300000F0ABFC0121062000F0A7FC01212920E0
:1003400000F0A3FC01212A2000F09FFC9DA0FFF7F4
:100350003CFFBDE8104056E72DE9F04100250E4670
:1003600007462C460BE000BF00F078FD0068395DC1
:10037000405C80EA8000000600D46D1C641CB4421E
:10038000F2D32846BDE8F08101460020B1F1807F1C
:1003900000D301207047924A0146002052781AB1DA
:1003A000B1F5803F03D301E0FF2900D90120704758
:1003B00070B500F087FA8B4D284600F09CFA884C07
:1003C0002846617800F0ABFA2178281D00F0A7FAE2
:1003D00000F072FABDE8704083A0F6E62DE9F05F08
:1003E0006B4C0C3C206800F043FD8346606800F0D5
:1003F0003FFD8146A06800F03BFD82465A4681A140
:10040000206800F03CFD20B300275A467EA12068FA
:1004100000F035FDF8B1002007435A467BA1206863
:1004200000F02DFDC8B10020594D07434FF00006E4
:100430001DD049466068FFF78FFF80B10027514605
:10044000A068FFF789FF60B1002007420DD02E6041
:100450003AE00127D9E70120DEE70120E4E70127A0
:10046000EDE70120F1E76AA01BE16FA019E15A4610
:1004700072A1206800F003FDD0B34FF000085A4687
:100480006FA1206800F0FBFC98B3002048EA000848
:100490005A466CA1206800F0F2FC58B35FF00000EF
:1004A00058EA00084FF0010730D049466068FFF76E
:1004B00053FF38B300265146A068FFF74DFF18B32D
:1004C00000200642D1D02F6010220021606800F089
:1004D00007FD686010220021A06800F001FD68613E
:1004E0006868FFF751FF0028BDD1BDE8F05FE7E67F
:1004F00001E003E004E04FF00108C0E70120C5E798
:100500000120CDE70126D6E70120DAE704224EA13B
:10051000206800F0B4FC00280FD004224CA1206811
:1005200000F0ADFC38B104224BA1206800F0A7FC1C
:1005300010B1082294E0B7E0B9E0CAE02C2C0140E9
:100540000018014004380140436F6E666967757298
:100550006174696F6E206C6F616465642066726F90
:100560006D2064656661756C7400000068656C7070
:10057000202D20746869732068656C70000000008D
:100580005245414420436F6D6D616E640000000070
:10059000400000200C140140255800003C2D2D2D5A
:1005A0002D7265616420636F6D706C6574652D2DAF
:1005B0002D000000575249544520436F6D6D616E08
:1005C000640000003C2D2D2D2D2D2D2D777269748A
:1005D0006520636F6D706C6574652D2D2D000000B6
:1005E0001000002000F0000843757272656E7420E0
:1005F000636F6E66696775726174696F6E2073618F
:10060000766564005752000057524D005752500013
:1006100041646472657373206F7574206F66207215
:10062000616E6765000000004241442044617461CE
:10063000206F72204164647265737300524400003D
:1006400052444D00524450004C4F4F5000000000A7
:10065000534156450000000048454C500000000042
:100660005AA1206800F00BFC20B35A4659A120681B
:1006700000F005FC584D00B35A4658A1206800F020
:10068000FEFBE8B15A4656A1206800F0F8FBD0B155
:100690005A4654A1206800F0F2FBB8B1A5F1100051
:1006A0004068BDE8F05F90E5BDE8F05F80E6BDE83A
:1006B000F05FA6E5BDE8F05FA1E56E704AA0F0E747
:1006C0006F704CA0EDE72E704DA0EAE72F7050A0A0
:1006D000E7E7BDE8F09F70B551A100F0DFFB0446ED
:1006E00050A1002000F0DAFB054648A1002000F0F0
:1006F000D5FB4D490C60C1E90150BDE870406DE685
:1007000070B500F0AFFB344CC1B2103C002520782E
:10071000272814D2444E28360D2903D03154401CCA
:10072000207070BD41A0FFF750FD20783554401C6B
:1007300020703D482830FFF7CEFF257070BD3CA0EB
:10074000FFF743FDF9E73F480088800604D53D48A0
:10075000001D0088C0B2D3E73BA036E53F480188C2
:1007600021F0010101803E480168C907016802D0FB
:1007700021F0010101E041F001010160704700B585
:1007800038A0FFF722FD40480168134A083A51603B
:100790003E4A91420AD101780F4A0F311170007818
:1007A000103050703AA05DF804EB0EE55DF804EBF4
:1007B00025E500F042FA00F0A4F900F0D1F900F0CC
:1007C000D9F83BA0FFF701FDFEE700004445464194
:1007D000554C5400534200001000002053570000B5
:1007E0005344000053410000382D626974206D6F3E
:1007F0006465000031362D626974206D6F64650098
:1008000053796E63206F6E20444154410000000014
:1008100053796E63206F6E20414444524553530018
:10082000400000003D000000340000203E000000B9
:10083000546F6F206C6F6E6720636F6D6D616E64B7
:1008400000000000003801404578657074696F6EE3
:10085000202331202D20554152540000102C0140FE
:100860000C0C0140507265706172696E672064659E
:100870007669636520636F6E666967757261746916
:100880006F6E2E2E2E00000000F000085B138F24E8
:10089000436F6E66696775726174696F6E206C6F05
:1008A000616465642066726F6D20464C4153480058
:1008B00052656164790000002B48016941F08001B4
:1008C00001617047284829494160294941607047C2
:1008D00010B5254C206940F004002061206940F0EB
:1008E0004000206100F039F80028FBD0206900F0BA
:1008F0000400206110BD10B51B4C216941F00201BC
:1009000021616061206940F04000206100F025F81D
:100910000028FBD0206920F00200206110BD70B5D6
:10092000114C06460D46206940F00100C4F8100045
:1009300000F013F80028FBD0A6F8005000F00DF8E6
:100940000028FBD0280C708000F007F80028FBD0AE
:10095000206920F00100206170BD0348C06840F3A9
:100960000000401C70470000002002402301674542
:10097000AB89EFCD8A48816941F400618161894882
:10098000018841F080010180018821F00801018087
:10099000018821F010010180018841F004010180EB
:1009A000804900220C310A807F494FF4FA630968BC
:1009B000B1FBF3F17B4B2833491E1980018821F0EC
:1009C00001010180181F028070477548816941F05C
:1009D0000801816175490A6822F00C020A600A6800
:1009E00042F003020A60816941F4006181616D484F
:1009F000018841F080010180018821F00801018017
:100A0000018821F010010180018841F0040101807A
:100A100064490C310A8842F001020A80614A0021CF
:100A2000283211805F4B07222C331A80028822F073
:100A3000010202805B482430018070475848816978
:100A400041F00801816159490A6822F00C020A60EC
:100A50000A6842F003020A60C16941F00101C16104
:100A60008004018841F080010180018821F00801A3
:100A70000180018821F010010180018841F004010A
:100A80000180818941F001018181012101858185F8
:100A9000018821F0010101800021818470474348D1
:100AA000016821F004010160016841F00801016062
:100AB000016841F0030101603948C16941F0020158
:100AC000C1613B48018841F08001018038492031F3
:100AD0000A8842F480720A80091F0A8842F0700274
:100AE0000A80334A0021283211804721121D1180CB
:100AF0002F4A24213C321180018821F0010101801C
:100B000070472748816941F480418161294940F655
:100B1000A6600880081D018842F20C021143018082
:100B20002548016821F0C0010160016841F08001A1
:100B30000160016841F010010160016821F4406129
:100B40000160016841F400610160016821F44071B5
:100B5000016018480838018821F040010180704781
:100B600010B562B6252000F00EF8192000F00BF841
:100B70001249002081F800040E48001D018841F050
:100B80002001018010BD002809DB00F01F020121B7
:100B900091404009800000F1E020C0F8001170474A
:100BA00000100240002C014018000020000C014001
:100BB00000040040083801400408014025E000E03E
:100BC000F0B5464B0F2703EBC0051C46B5F804C033
:100BD00054F830404FEA8C06BCF1080F0FD2D4F81D
:100BE00000C0B7402CEA070CC4F800C053F83040EE
:100BF00026682F79BF00B9400E4326600DE0203EE5
:100C0000B7406668BE4366602C79A400203CA140D2
:100C100053F8304066683143616053F83010CC6857
:100C20002F790126BE40B443CC6053F83000C16830
:100C30002B799A401143C160F0BD30B528488169D5
:100C400041F004018161816941F00801816181699C
:100C500041F010018161816941F020018161816968
:100C600041F040018161816941F0010181611B4DC9
:100C7000002400BF05EBC400C27981792046FFF74C
:100C80009FFF641C362CF5D330BD10B5134B0122E9
:100C900003EBC00453F830002479A24009B102618B
:100CA00010BD426110BD0D4951F83020D36801EBF1
:100CB000C0000179012088404340D3607047362846
:100CC0000AD2064951F83020926801EBC000017940
:100CD0000120884010407047002070470014000831
:100CE000001002400648804706480047FEE7FEE73E
:100CF000FEE7FEE7FEE7FEE7FEE7FEE7FEE7FEE7CC
:100D0000A90D0008310100080CB500214B480191E4
:100D10000091026842F4803202604FF4A0630268DE
:100D200002F400320092019A521C0192009A12B908
:100D3000019A9A42F3D10268920333D501210091BE
:100D40003F490A6842F010020A600A6822F0030272
:100D50000A600A6842F002020A6041684160416824
:100D60004160416841F480614160416821F47C1137
:100D70004160416841F4E8114160016841F08071CF
:100D8000016001688901FCD5416821F003014160DF
:100D9000416841F0020141604168C1F381010229CB
:100DA000FAD10CBD00910CBD244810B5016841F08A
:100DB000010101604168234A114041600168224AF3
:100DC00011400160016821F480210160416821F433
:100DD000FE0141604FF41F018160FFF795FF1B4941
:100DE0004FF00060086010BD144910B54868184AFB
:100DF00010F00C03174803D0042B01D0082B0AD0A5
:100E000002604968134AC1F30311121D515C026864
:100E1000CA40026010BD4A684B6802F470124FF07D
:100E2000020413F4803F04EB924202D04B689B0310
:100E300001D5094B00E0064B5A43E1E700100240A0
:100E4000002002400000FFF8FFFFF6FE08ED00E082
:100E500000127A001800002000093D000048704789
:100E600034160008A0F16101192900D82038704714
:100E7000421C10F8011B0029FBD1801A704730B5C5
:100E800005460020034600E05B1C934205D2EC5C63
:100E9000C85C201A01D1002CF6D130BD70B50F4DC1
:100EA00000B92868002412E00A4602E09E4203D0FE
:100EB000521C1378002BF9D1DAB2224305D02BB1A2
:100EC00024B1002100F8011B04E00446401C067810
:100ED000002EE9D12860204670BD00002C000020C3
:100EE0002DE9F04791460F4680460446002614F847
:100EF000015B2DB1FFF7B2FF0068405DC007F6D17E
:100F00002B2D02D02D2D18D0641E4A46394620467E
:100F100000F04FF827B13968A14201D1C7F800802D
:100F200071054FF002040BD54042002803DD00F0AC
:100F3000E7F80460A007BDE8F08746F48066E4E7C0
:100F40000028F8DA00F0DCF804606FF00040F2E707
:100F50002DE9F05F0546002092469B4688460646EE
:100F6000814640241BE0284641464746224600F081
:100F700090F853465A46C01A914110D3114618466C
:100F8000224600F077F82D1A67EB01084F462246FB
:100F90000120002100F06EF817EB00094E41201EE1
:100FA000A4F10104DFDC484631462A464346BDE849
:100FB000F09F2DE9F05F82460078002715468B46AA
:100FC0000AF10104B946302801D09DB113E014F8AC
:100FD000010B0127782803D0582801D045B10AE039
:100FE0000DB1102D07D10027102514F8010B02E0D8
:100FF000082500E00A250026B0460EE005FB0800A3
:1010000005FB06F1012701EB10461FFA80F8B6F543
:10101000803F00D3B94614F8010B294600F049F887
:101020000028EBDABBF1000F05D00FB1641E00E021
:101030005446CBF80040B9F1000F06D000F060F83C
:1010400002210160C81EBDE8F09F48EA0640FAE7A9
:10105000064C074D06E0E06840F0010394E8070005
:1010600098471034AC42F6D3FFF766F848160008EC
:1010700068160008202A04DB203A00FA02F100205A
:1010800070479140C2F1200320FA03F319439040C6
:101090007047202A04DB203A21FA02F00021704731
:1010A00021FA02F3D040C2F12002914008431946D0
:1010B00070473A2800D2303820F02002412A01D36C
:1010C000A2F13700884201D34FF0FF307047000093
:1010D0000FB41CB50246002007AC00290BD0491EF6
:1010E000CDE90021054B6A462146069800F01CF820
:1010F000009A002111701CBC5DF814FBE913000874
:10110000004870473000002002E008C8121F08C1E4
:10111000002AFAD170477047002001E001C1121F78
:10112000002AFBD1704700002DE9FF4F8DB09B4690
:101130000F460446002606E025280BD05A460F9994
:101140009047641C761C20780028F5D111B03046F9
:10115000BDE8F08F0025A8460122984900E005432C
:1011600014F8013F203B02FA03F00842F7D120783F
:101170002E2817D114F8010F45F004052A280ED0A7
:101180006FF02F022078A0F1300109290AD808EB6E
:10119000880102EB410100EB0108641CF2E757F8FB
:1011A000048B641C20786C280DD004DC4C2812D0F1
:1011B0006A2811D104E074280DD07A280CD10AE0F5
:1011C00045F4001507E0617845F48015814202D1AD
:1011D000641C05F58015641C2278692A45D008DC5A
:1011E000002AB3D0582A69D0632A10D0642A08D1C3
:1011F0003BE0702A67D0732A13D0752A5CD0782A16
:101200005CD010465A460F999047761CD3E017F8E9
:10121000040B8DF8000000208DF80100E946012044
:1012200003E057F8049B4FF0FF3069074FF00005CB
:1012300001D40AE06D1C45450DDA8542FADB19F848
:1012400005100029F6D106E06D1C8542FCDB19F87B
:1012500005100029F8D12E4404E019F8010B5A4674
:101260000F9990476D1EF8D2A5E00A200021CDE924
:101270000801C5F3025002280DD001CFC117031E8B
:1012800071F100030DDA4FF0000CD0EB0C006CEBA9
:1012900001012D2308E0FF1D27F00707F7E80201F1
:1012A000EDE72B0504D52B238DF8283001233BE0F7
:1012B000EB0739D02023F7E70A2000E010200021B7
:1012C000CDE9080107E01020002145F00405CDE933
:1012D00008014FF00808C5F3025002280FD001CFD3
:1012E00000214FF0000A2B071FD5702A0DD0DDE931
:1012F00008C38CF0100C5CEA030C0CD015E0FF1D49
:1013000027F00707F7E80201EBE740228DF82820D5
:101310004FF0010A0BE050EA010306D030238DF8AC
:1013200028308DF8292002239A46582A04D024A276
:101330000DF120090B9209E026A2F9E7DDE9082367
:10134000FFF706FE0B9B9B5C09F8013D50EA01028A
:10135000F4D1ADEB090020300890680701D44FF0BC
:1013600001080899884502DDA8EB010000E0002093
:101370008046002506E00AA85A46405D0F9990472E
:101380006D1C761C5545F6DB04E030205A460F995B
:101390009047761CB8F10001A8F10108F5DC05E0E2
:1013A00019F8010B5A460F999047761C0899481E68
:1013B00008900029F4DC641CC5E60000092801003F
:1013C00030313233343536373839616263646566BB
:1013D000000000003031323334353637383941427D
:1013E00043444546000000004A68002A06D00A68C7
:1013F000531C0B6010704868401E48607047000026
:101400000008014000000301000801400100030141
:10141000000801400200030100080140030003012D
:101420000008014004000301000801400500030119
:101430000008014006000301000801400700030105
:10144000001401400F000301001401400E000301CD
:10145000001401400D000301001401400C000301C1
:10146000001401400B000301001401400A000301B5
:1014700000140140090003010014014008000301A9
:10148000001401400700030100140140060003019D
:101490000014014005000301001401400400030191
:1014A0000014014003000301001401400200030185
:1014B0000014014001000301001401400000030179
:1014C000001801400F000001001801400E0000014B
:1014D000001801400D000001001801400C0000013F
:1014E000001801400B000001001801400A00000133
:1014F0000018014009000001001801400800000127
:10150000001801400700000100180140060000011A
:10151000001801400500000100180140040000010E
:101520000018014003000001001801400200000102
:1015300000180140010000010018014000000001F6
:101540000008014008000301000801400B000301EE
:10155000000801400C0003010010014000000301DD
:1015600000100140010003010010014002000301CE
:1015700000100140030003010010014006000001BB
:1015800000100140070000010010014008000301A5
:101590000010014009000301000801400900030197
:1015A000000801400A000301000C01400000000196
:1015B0000040404040404040404041414141414066
:1015C000404040404040404040404040404040401B
:1015D00040050202020202020202020202020202AA
:1015E00002202020202020202020200202020202AF
:1015F0000202909090909090101010101010101007
:101600001010101010101010101010100202020212
:101610000202888888888888080808080808080856
:101620000808080808080808080808080202020252
:1016300040000000B1150008554E4B4E4F57204357
:101640004F4D4D414E440000681600080000002038
:1016500034000000081100089C1600083400002027
:10166000540400001811000800000000381600089B
:10167000000000000000000000000000000000006A
:1016800000A24A0400000000000000000102030460
:0C16900006070809000000000000000030
:0400000508000131BD
:00000001FF
