:020000040800F2
:1000000088040020310F0008390F00083B0F00085A
:100010003D0F00083F0F0008410F000800000000DE
:10002000000000000000000000000000430F000876
:10003000450F000800000000470F0008490F0008A6
:100040004B0F00084B0F00084B0F00084B0F000828
:100050004B0F00084B0F00084B0F00084B0F000818
:100060004B0F00084B0F00084B0F00084B0F000808
:100070004B0F00084B0F00084B0F00084B0F0008F8
:100080004B0F00084B0F00084B0F00084B0F0008E8
:100090004B0F00084B0F00084B0F00084B0F0008D8
:1000A0004B0F00088B0900084B0F00084B0F00088E
:1000B0004B0F00084B0F00084B0F00084B0F0008B8
:1000C0004B0F00084B0F00084B0F00084B0F0008A8
:1000D0004B0F0008750900084B0F00084B0F000874
:1000E0004B0F00084B0F00084B0F00084B0F000888
:1000F0004B0F00084B0F00084B0F00084B0F000878
:100100004B0F00084B0F00084B0F00084B0F000867
:100110004B0F00084B0F00084B0F00084B0F000857
:100120004B0F00084B0F00084B0F00084B0F000847
:10013000DFF80CD001F0B2F800480047AD09000824
:10014000880400204000EE490880ED4818380188F6
:1001500041F001010180EA49002008390880E8489F
:100160002C38018841F001010180E5481C380188E4
:10017000C907FCD0018821F0010101807047E148E6
:10018000016841F088310160011D0A6842F088323F
:100190000A60026802F0CC320260086800F0CC30DD
:1001A00008607047D748016801F033310160011DD4
:1001B0000A6802F033320A60026842F033320260A9
:1001C000086840F0333008607047CF4AB2F104014C
:1001D00010F8013B13800B885B06FCD50B8823F0DD
:1001E00040030B800378002BF2D10A20108008888E
:1001F0004006FCD5088820F0400008807047C348BE
:1002000000B5012101604160C1A0FFF7DEFFC3A07E
:10021000FFF7DBFFC5A05DF804EBD6E700B5CCA087
:10022000FFF7D3FFD4A0FFF7D0FFDBA0FFF7CDFF90
:10023000E0A0FFF7CAFFE0A0FFF7C7FFE5A0FFF7C8
:10024000C4FFF2A05DF804EBBFE710B58AB0F9A0D7
:10025000FFF7BBFF01212D2000F03DFE01212E20E4
:1002600000F039FE0121072000F035FE01210620B3
:1002700000F031FE0121292000F02DFE01212A206D
:1002800000F029FEFFF77BFFEE48EF494068086069
:100290000021072000F01FFE0021062000F01BFEB9
:1002A00000212E2000F017FE0021292000F013FE6F
:1002B00000212A2000F00FFE92480830006801213A
:1002C00084B2072000F007FE0121062000F003FEA3
:1002D0000121292000F0FFFD01212A2000F0FBFD73
:1002E00001212E2000F0F7FD2346D8A228216846E0
:1002F00001F024F86846FFF768FFD5A0FFF765FF17
:100300000AB010BD10B5D8A0FFF75FFF01212E2065
:1003100000F0E1FD01212D2000F0DDFD012129206B
:1003200000F0D9FD01212A2000F0D5FDFFF73AFFAA
:10033000C448C54A41681160724940690C3108607F
:100340000021072000F0C7FD0021062000F0C3FDBA
:100350000021292000F0BFFD00212A2000F0BBFD74
:1003600000212D2000F0B7FD01212D2000F0B3FD6C
:100370000121072000F0AFFD0121062000F0ABFDB8
:100380000121292000F0A7FD01212A2000F0A3FD72
:10039000B9A0FFF71AFFBDE8104056E72DE9F0417C
:1003A00000250E4607462C460BE000BF00F07CFE01
:1003B0000068395D405C80EA8000000600D46D1C56
:1003C000641CB442F2D32846BDE8F0814F4A01468E
:1003D00000205268002A02D0C90700D001207047CF
:1003E00001460020B1F1807F00D301207047474AC9
:1003F0000146002052681AB1B1F5803F03D301E0F5
:10040000FF2900D9012070472DE9F0418D4C0C3CAB
:10041000606800F053FE0546A06800F04FFE0746F6
:10042000002629466068FFF7B9FFD8B10025394694
:10043000A068FFF7B3FFB8B10020054222D0102218
:100440000021606800F072FE7E4D1022002168607D
:10045000A06800F06BFE68616868FFF7C1FF28B113
:10046000022610E00125E2E70120E6E76869FFF7D0
:10047000BEFF08B1012606E06868FFF7A7FF10B1CC
:10048000032600E0042630469EE7072811D2DFE865
:1004900000F00406080A0C0E0E007EA008E080A002
:1004A00006E084A004E089A002E08FA000E097A00D
:1004B0008BE698A000F032BF70B514480838046885
:1004C000641C00F025FB984D284600F03AFB974944
:1004D000284600F04AFB2146281D00F046FB0B4C45
:1004E00091480830216800F040FB8F4861680C306B
:1004F00000F03BFB00F006FBBDE870408CA064E61A
:100500002C2C01400018014004380140100000204C
:1005100044617461203136206269740053594E433E
:10052000206F6E206164647265737300436F6E6642
:10053000696775726174696F6E206C6F6164656460
:100540002066726F6D2064656661756C74000000D2
:100550003C2D2D2D2D2D2D2D2D2D2D2D2D2D2D2DBC
:1005600048454C502D2D2D2D2D2D2D2D2D2D2D2D46
:100570002D2D2D3E0000000057522C2057524D2C9F
:1005800020575250202D20777269746520636F6D5B
:100590006D616E640000000052442C2052444D2CCA
:1005A00020524450202D207265616420636F6D6D70
:1005B000616E640020000000666F726D61742063DC
:1005C0006F6D6D616E6440616464726573733D64E8
:1005D0006174610053415645202D20636F6D6D613C
:1005E0006E6420746861742073617665206375722F
:1005F00072656E742064657669636520636F6E66EC
:10060000696775726174696F6E0000003C2D2D2D55
:100610002D2D2D2D2D2D2D2D2D2D454E442D484587
:100620004C502D2D2D2D2D2D2D2D2D2D2D2D2D3EA7
:10063000000000005245414420436F6D6D616E64BF
:1006400000000000440000200C1401402558000068
:100650003C2D2D2D2D7265616420636F6D706C656E
:1006600074652D2D2D000000575249544520436FCD
:100670006D6D616E640000003C2D2D2D2D2D2D2DF6
:10068000777269746520636F6D706C6574652D2D6C
:100690002D0000004E6F206572726F7273000000B3
:1006A00044617461206F7574206F662072616E679B
:1006B0006500000041646472657373206F75742077
:1006C0006F662072616E67650000000041646472AD
:1006D000657373206973206E6F74206576656E2074
:1006E0006E756D626572000041444452455353205B
:1006F0006F7220444154412068617665206E6F20FE
:1007000068657820666F726D61740000746573743B
:1007100000000000556E6B6E6F7720747970652055
:100720006572726F7200000000F000085B138F2486
:1007300043757272656E7420636F6E666967757259
:100740006174696F6E2073617665640010B59EA058
:10075000FFF73BFDA5480368A5494B6042680A6066
:10076000521C1BD0A3498B4218D18168A04C08347D
:100770002160C068606069B19FA000BFFFF725FDE0
:10078000606848B1A0A000BFFFF71FFDBDE81040A2
:10079000A0A01AE5A7A0F1E7AAA0F5E7BDE81040E0
:1007A0002DE52DE9F047AA4C206800F087FC814632
:1007B0004A46A8A1206800F088FCD0B100264A462D
:1007C000A5A1206800F081FCA8B1002006434A469C
:1007D000A2A1206800F079FC78B100209C4F06436C
:1007E0004FF0000507F10C070DD0FFF70DFE30B1FB
:1007F0002AE00126E3E70120E8E70120EEE73D607B
:10080000BDE8F0477EE54A4695A1206800F05DFC12
:10081000E8B14FF000084A4692A1206800F055FC6C
:10082000C0B1002048EA00084A468FA1206800F0C5
:100830004CFC88B15FF0000058EA00084FF0010658
:1008400010D0FFF7E1FD48B1BDE8F0471DE64FF0DD
:100850000108E0E70120E5E70120EDE73E60BDE8A3
:10086000F047F2E4042281A1206800F02EFC002869
:1008700046D004227FA1206800F027FC58B3042250
:100880007EA1206800F021FC40B308227DA12068F1
:1008900000F01BFC28B34A467CA1206800F015FC40
:1008A000534F083700B34A4679A1206800F00DFC89
:1008B000E8B14A4677A1206800F007FCD0B14A466B
:1008C00075A1206800F001FCB8B1A7F110004068E4
:1008D000BDE8F04779E4BDE8F047EDE5BDE8F04755
:1008E0009CE4BDE8F0478AE456A07D60F0E746A0AE
:1008F0007E60EDE769A03D60EAE76CA03E60E7E757
:10090000BDE8F08770B56DA100F0EEFB04466CA168
:10091000002000F0E9FB054649A1002000F0E4FBBF
:100920004B490C60C1E90150BDE8704039E770B532
:1009300000F0BEFB2E4CC1B2083C002520782728D1
:1009400014D2434E28360D2903D03154401C207058
:1009500070BD5CA0FFF739FC20783554401C207036
:100960003B482830FFF7CEFF257070BD56A0FFF73B
:100970002CFCF9E759480088800604D55748001D2B
:100980000088C0B2D3E756A01FE45A48018821F07E
:100990000101018058480168C907016802D021F0AF
:1009A000010101E041F001010160704700F06BFAC4
:1009B00000F0CDF900F0FAF900F002F9FFF7C6FEF9
:1009C0004EA0FFF702FCFEE7507265706172696E1F
:1009D000672064657669636520636F6E6669677515
:1009E000726174696F6E2E2E2E00000000F00008F8
:1009F000080000205B138F2453796E63206F6E20F4
:100A0000616464726573730031362D626974206DA0
:100A10006F646500436F6E66696775726174696FB4
:100A20006E206C6F616465642066726F6D20464C49
:100A30004153480053796E63206F6E2044617461A6
:100A400000000000382D626974206D6F646500003D
:100A5000380000205752000057524D0057525000A6
:100A60005244000052444D00524450004C4F4F50ED
:100A700000000000534156450000000048454C501E
:100A80000000000044454641554C540053420000CC
:100A900053570000534400005341000053796E63E4
:100AA000206F6E20444154410000000053796E6372
:100AB000206F6E20414444524553530040000000D3
:100AC0003D0000003E000000546F6F206C6F6E67A9
:100AD00020636F6D6D616E6400000000003801409E
:100AE0004578657074696F6E202331202D20554143
:100AF00052540000102C01400C0C014052656164FE
:100B0000790000002B48016941F0800101617047C4
:100B100028482949416029494160704710B5254C52
:100B2000206940F004002061206940F0400020610D
:100B300000F039F80028FBD0206900F004002061A3
:100B400010BD10B51B4C216941F0020121616061AB
:100B5000206940F04000206100F025F80028FBD01B
:100B6000206920F00200206110BD70B5114C0646CE
:100B70000D46206940F00100C4F8100000F013F8A1
:100B80000028FBD0A6F8005000F00DF80028FBD09C
:100B9000280C708000F007F80028FBD0206920F0B6
:100BA0000100206170BD0348C06840F30000401C94
:100BB000704700000020024023016745AB89EFCD5C
:100BC0008A48816941F4006181618948018841F066
:100BD00080010180018821F008010180018821F055
:100BE00010010180018841F0040101808049002248
:100BF0000C310A807F494FF4FA630968B1FBF3F1C5
:100C00007B4B2833491E1980018821F001010180A6
:100C1000181F028070477548816941F008018161A1
:100C200075490A6822F00C020A600A6842F0030261
:100C30000A60816941F4006181616D48018841F079
:100C400080010180018821F008010180018821F0E4
:100C500010010180018841F00401018064490C31D8
:100C60000A8842F001020A80614A0021283211807C
:100C70005F4B07222C331A80028822F00102028087
:100C80005B482430018070475848816941F0080171
:100C9000816159490A6822F00C020A600A6842F030
:100CA00003020A60C16941F00101C1618004018849
:100CB00041F080010180018821F008010180018854
:100CC00021F010010180018841F004010180818937
:100CD00041F001018181012101858185018821F097
:100CE000010101800021818470474348016821F09F
:100CF00004010160016841F008010160016841F0F0
:100D0000030101603948C16941F00201C1613B48FA
:100D1000018841F080010180384920310A8842F47D
:100D200080720A80091F0A8842F070020A80334AE2
:100D30000021283211804721121D11802F4A2421C1
:100D40003C321180018821F0010101807047274861
:100D5000816941F480418161294940F6A66008809B
:100D6000081D018842F20C021143018025480168E8
:100D700021F0C0010160016841F08001016001685B
:100D800041F010010160016821F4406101600168D7
:100D900041F400610160016821F44071016018486C
:100DA0000838018821F040010180704710B562B613
:100DB000252000F00EF8192000F00BF81249002051
:100DC00081F800040E48001D018841F020010180D7
:100DD00010BD002809DB00F01F02012191404009ED
:100DE000800000F1E020C0F80011704700100240C0
:100DF000002C014018000020000C014000040040BD
:100E0000083801400408014025E000E0F0B5464BF9
:100E10000F2703EBC0051C46B5F804C054F830405A
:100E20004FEA8C06BCF1080F0FD2D4F800C0B740CF
:100E30002CEA070CC4F800C053F8304026682F791C
:100E4000BF00B9400E4326600DE0203EB740666803
:100E5000BE4366602C79A400203CA14053F830408A
:100E600066683143616053F83010CC682F790126F1
:100E7000BE40B443CC6053F83000C1682B799A402F
:100E80001143C160F0BD30B52848816941F00401CB
:100E90008161816941F008018161816941F010013E
:100EA0008161816941F020018161816941F04001E6
:100EB0008161816941F0010181611B4D002400BF06
:100EC00005EBC400C27981792046FFF79FFF641CBF
:100ED000362CF5D330BD10B5134B012203EBC00403
:100EE00053F830002479A24009B1026110BD42617B
:100EF00010BD0D4951F83020D36801EBC0000179D5
:100F0000012088404340D360704736280AD2064902
:100F100051F83020926801EBC0000179012088402F
:100F200010407047002070477C16000800100240F7
:100F30000648804706480047FEE7FEE7FEE7FEE773
:100F4000FEE7FEE7FEE7FEE7FEE7FEE7F50F000837
:100F5000310100080CB500214B4801910091026855
:100F600042F4803202604FF4A063026802F400325F
:100F70000092019A521C0192009A12B9019A9A4267
:100F8000F3D10268920333D5012100913F490A68E9
:100F900042F010020A600A6822F003020A600A683E
:100FA00042F002020A604168416041684160416864
:100FB00041F480614160416821F47C1141604168E5
:100FC00041F4E8114160016841F0807101600168FD
:100FD0008901FCD5416821F003014160416841F07D
:100FE000020141604168C1F381010229FAD10CBDBF
:100FF00000910CBD244810B5016841F00101016069
:101000004168234A114041600168224A1140016051
:10101000016821F480210160416821F4FE014160F2
:101020004FF41F018160FFF795FF1B494FF00060EF
:10103000086010BD144910B54868184A10F00C0338
:10104000174803D0042B01D0082B0AD0026049684E
:10105000134AC1F30311121D515C0268CA400260B9
:1010600010BD4A684B6802F470124FF0020413F48A
:10107000803F04EB924202D04B689B0301D5094BA1
:1010800000E0064B5A43E1E7001002400020024016
:101090000000FFF8FFFFF6FE08ED00E000127A0006
:1010A0001800002000093D0000487047B0180008F3
:1010B000A0F16101192900D820387047421C10F8AE
:1010C000011B0029FBD1801A704730B5054600206E
:1010D000034600E05B1C934205D2EC5CC85C201A1E
:1010E00001D1002CF6D130BD70B50F4D00B9286884
:1010F000002412E00A4602E09E4203D0521C1378FC
:10110000002BF9D1DAB2224305D02BB124B1002152
:1011100000F8011B04E00446401C0678002EE9D1CB
:101120002860204670BD00002C0000202DE9F0470B
:1011300091460F4680460446002614F8015B2DB107
:10114000FFF7B2FF0068405DC007F6D12B2D02D03B
:101150002D2D18D0641E4A463946204600F04FF81F
:1011600027B13968A14201D1C7F8008071054FF05D
:1011700002040BD54042002803DD00F0F7F80460BC
:10118000A007BDE8F08746F48066E4E70028F8DAB7
:1011900000F0ECF804606FF00040F2E72DE9F05F3A
:1011A0000546002092469B468846064681464024D6
:1011B0001BE0284641464746224600F090F8534639
:1011C0005A46C01A914110D311461846224600F0E3
:1011D00077F82D1A67EB01084F46224601200021BF
:1011E00000F06EF817EB00094E41201EA4F1010437
:1011F000DFDC484631462A464346BDE8F09F2DE9EC
:10120000F05F82460078002715468B460AF10104FC
:10121000B946302801D09DB113E014F8010B012725
:10122000782803D0582801D045B10AE00DB1102D1F
:1012300007D10027102514F8010B02E0082500E073
:101240000A250026B0460EE005FB080005FB06F166
:10125000012701EB10461FFA80F8B6F5803F00D356
:10126000B94614F8010B294600F049F80028EBDADA
:10127000BBF1000F05D00FB1641E00E05446CBF85F
:101280000040B9F1000F06D000F070F802210160B3
:10129000C81EBDE8F09F48EA0640FAE7064C074D35
:1012A00006E0E06840F0010394E807009847103436
:1012B000AC42F6D3FEF740FFC4180008E41800085B
:1012C000202A04DB203A00FA02F100207047914006
:1012D000C2F1200320FA03F3194390407047202AFB
:1012E00004DB203A21FA02F00021704721FA02F3D0
:1012F000D040C2F1200291400843194670473A2875
:1013000000D2303820F02002412A01D3A2F1370068
:10131000884201D34FF0FF30704700000FB4054BF7
:1013200010B503A9044A029800F034F810BC5DF827
:1013300014FB00006B160008300000200FB41CB531
:101340000246002007AC00290BD0491ECDE9002140
:10135000054B6A462146069800F01CF8009A0021C9
:1013600011701CBC5DF814FB55160008004870474E
:101370003400002002E008C8121F08C1002AFAD178
:1013800070477047002001E001C1121F002AFBD105
:10139000704700002DE9FF4F8DB09B460F46044675
:1013A000002606E025280BD05A460F999047641C6A
:1013B000761C20780028F5D111B03046BDE8F08FBA
:1013C0000025A8460122984900E0054314F8013F92
:1013D000203B02FA03F00842F7D120782E2817D1DB
:1013E00014F8010F45F004052A280ED06FF02F02E3
:1013F0002078A0F1300109290AD808EB880102EB16
:10140000410100EB0108641CF2E757F8048B641CEF
:1014100020786C280DD004DC4C2812D06A2811D119
:1014200004E074280DD07A280CD10AE045F40015A8
:1014300007E0617845F48015814202D1641C05F50E
:101440008015641C2278692A45D008DC002AB3D0B4
:10145000582A69D0632A10D0642A08D13BE0702A48
:1014600067D0732A13D0752A5CD0782A5CD01046D6
:101470005A460F999047761CD3E017F8040B8DF865
:10148000000000208DF80100E946012003E057F834
:10149000049B4FF0FF3069074FF0000501D40AE0CC
:1014A0006D1C45450DDA8542FADB19F80510002957
:1014B000F6D106E06D1C8542FCDB19F80510002909
:1014C000F8D12E4404E019F8010B5A460F999047C1
:1014D0006D1EF8D2A5E00A200021CDE90801C5F370
:1014E000025002280DD001CFC117031E71F1000375
:1014F0000DDA4FF0000CD0EB0C006CEB01012D234A
:1015000008E0FF1D27F00707F7E80201EDE72B05CC
:1015100004D52B238DF8283001233BE0EB0739D08D
:101520002023F7E70A2000E010200021CDE9080180
:1015300007E01020002145F00405CDE908014FF037
:101540000808C5F3025002280FD001CF00214FF048
:10155000000A2B071FD5702A0DD0DDE908C38CF0D7
:10156000100C5CEA030C0CD015E0FF1D27F00707F8
:10157000F7E80201EBE740228DF828204FF0010A3E
:101580000BE050EA010306D030238DF828308DF8A7
:10159000292002239A46582A04D024A20DF12009BA
:1015A0000B9209E026A2F9E7DDE90823FFF7F6FD33
:1015B0000B9B9B5C09F8013D50EA0102F4D1ADEBB5
:1015C000090020300890680701D44FF001080899FD
:1015D000884502DDA8EB010000E0002080460025E0
:1015E00006E00AA85A46405D0F9990476D1C761C8C
:1015F0005545F6DB04E030205A460F999047761C9B
:10160000B8F10001A8F10108F5DC05E019F8010BBB
:101610005A460F999047761C0899481E0890002951
:10162000F4DC641CC5E600000928010030313233C7
:10163000343536373839616263646566000000000E
:1016400030313233343536373839414243444546F8
:10165000000000004A68002A06D00A68531C0B608C
:1016600010704868401E4860704738B504468DF8D1
:10167000000069460320ABBE204638BD000801408B
:1016800000000301000801400100030100080140BF
:1016900002000301000801400300030100080140AB
:1016A0000400030100080140050003010008014097
:1016B0000600030100080140070003010014014077
:1016C0000F000301001401400E000301001401404B
:1016D0000D000301001401400C000301001401403F
:1016E0000B000301001401400A0003010014014033
:1016F0000900030100140140080003010014014027
:10170000070003010014014006000301001401401A
:10171000050003010014014004000301001401400E
:101720000300030100140140020003010014014002
:1017300001000301001401400000030100180140F2
:101740000F000001001801400E00000100180140C8
:101750000D000001001801400C00000100180140BC
:101760000B000001001801400A00000100180140B0
:1017700009000001001801400800000100180140A4
:101780000700000100180140060000010018014098
:10179000050000010018014004000001001801408C
:1017A0000300000100180140020000010018014080
:1017B0000100000100180140000000010008014084
:1017C00008000301000801400B000301000801406C
:1017D0000C00030100100140000003010010014053
:1017E000010003010010014002000301001001404C
:1017F0000300030100100140060000010010014039
:101800000700000100100140080003010010014022
:10181000090003010008014009000301000801401C
:101820000A000301000C014000000001004040409C
:1018300040404040404041414141414040404040A3
:10184000404040404040404040404040400502024F
:10185000020202020202020202020202022020200E
:10186000202020202020200202020202020290906A
:101870009090909010101010101010101010101068
:1018800010101010101010100202020202028888BC
:1018900088888888080808080808080808080808C8
:1018A00008080808080808080202020240000000B0
:1018B0002D180008554E4B4E4F5720434F4D4D416C
:1018C0004E440000E418000800000020380000002A
:1018D000741300081C190008380000205004000090
:1018E0008413000800000000B41800080000000085
:1018F00000000000000000000000000000A24A04F8
:1019000000000000000000000102030406070809AF
:0C191000000000000000000000000000CB
:0400000508000131BD
:00000001FF
