:020000040800F2
:1000000000000120E51400082D1500082D1500083A
:100010002D1500082D1500082D1500080000000002
:100020000000000000000000000000002D15000886
:100030002D150008000000002D1500082D150008E2
:100040002D1500082D1500082D1500082D15000888
:100050002D1500082D1500082D1500082D15000878
:100060002D1500082D1500082D1500082D15000868
:100070002D1500082D1500082D1500082D15000858
:100080002D1500082D1500082D1500082D15000848
:100090002D1500082D1500082D1500082D15000838
:1000A0002D1500082D1500082D1500082D15000828
:1000B0002D1500082D1500082D1500082D15000818
:1000C0002D1500082D1500082D1500082D15000808
:1000D0002D150008151000082D1500082D15000815
:1000E0002D1500082D1500082D1500082D150008E8
:1000F0002D1500082D1500082D1500082D150008D8
:100100002D1500082D1500082D1500082D150008C7
:100110002D1500082D1500082D1500082D150008B7
:100120002D1500082D1500082D1500082D150008A7
:1001300000000000000000000000000000000000BF
:1001400000000000000000000000000000000000AF
:10015000000000000000000000000000000000009F
:10016000000000000000000000000000000000008F
:10017000000000000000000000000000000000007F
:10018000000000000000000000000000000000006F
:10019000000000000000000000000000000000005F
:1001A000000000000000000000000000000000004F
:1001B000000000000000000000000000000000003F
:1001C000000000000000000000000000000000002F
:1001D000000000000000000000000000000000001F
:0401E0005FF8E0F1F3
:1001E400034613F8012B002AFBD1181A0138704773
:1001F4000348044B834202D0034B03B118477047B2
:10020400680000206800002000000000054806493E
:10021400091A891001EBD171491002D0034B03B1C3
:1002240018477047680000206800002000000000A4
:1002340010B5064C237843B9FFF7DAFF044B13B12A
:100244000448AFF300800123237010BD6800002030
:10025400000000005C2A000808B5054B1BB10549E5
:100264000548AFF30080BDE80840FFF7CFBF00BFEB
:10027400000000006C0000205C2A0008054B0022EE
:100284001A705A705A609A60DA601A619A82DA8235
:10029400704700BF8400002030B4054C054D0FCDDD
:1002A4000FC495E8030084E8030030BC704700BF26
:1002B4009C00002084000020400080B20C4B9885F4
:1002C4009A8A42F001029A8200229A841A8842F0A1
:1002D40001021A801A46138A13F0010FFBD0044A54
:1002E400138A23F001031B041B0C1382704700BF05
:1002F400002C0140084B1A6842F088321A605A6890
:1003040042F088325A601A6802F0CC321A605A6895
:1003140002F0CC325A60704700180140084B1A684A
:1003240002F033321A605A6802F033325A601A68A3
:1003340042F033321A605A6842F033325A607047DE
:1003440000180140104A10F8013B9380138813F001
:10035400400FFBD0138823F040031B041B0C1380B5
:100364000378002BEFD1084B0A229A801A4613888F
:1003740013F0400FFBD0044A138823F040031B04FE
:100384001B0C1380704700BF0038014008B5054BB3
:1003940001229A704FF6FF721A800348FFF7D2FFCA
:1003A40008BD00BFF40000208C2A000808B50B48E3
:1003B400FFF7C8FF0A48FFF7C5FF0A48FFF7C2FF67
:1003C4000948FFF7BFFF0948FFF7BCFF0848FFF7DC
:1003D400B9FF0848FFF7B6FF08BD00BFCC2A0008E4
:1003E400F42A0008102B0008282B00082C2B0008E6
:1003F400482B0008802B000808B501212E2000F0AE
:1004040095FE01212D2000F091FE0121292000F00C
:100414008DFE01212A2000F089FEFFF77FFF1F4B8C
:1004240059681F4AD1609A8A1E4BDA60A3F58A3351
:1004340000229A841A46938C9BB2022BFBD1002192
:10044400072000F073FE0021062000F06FFE00215B
:10045400292000F06BFE00212A2000F067FE002115
:100464002D2000F063FE104A938C9BB2072BFBD126
:1004740001212D2000F05AFE0121072000F056FE34
:100484000121062000F052FE0121292000F04EFE39
:1004940001212A2000F04AFE08BD00BF840000208C
:1004A40000140140001801400004004010B501216F
:1004B4002D2000F03BFE01212E2000F037FE01210B
:1004C400072000F033FE0121062000F02FFE012159
:1004D400292000F02BFE01212A2000F027FEFFF73F
:1004E40009FF1D4B5A681D4BDA601D4A938C9BB261
:1004F400022BFBD10021072000F018FE002106206A
:1005040000F014FE00212E2000F010FE002129200E
:1005140000F00CFE00212A2000F008FE114B9C681C
:10052400A4B20F4A938C9BB2072BFBD10121072065
:1005340000F0FCFD0121062000F0F8FD0121292036
:1005440000F0F4FD01212A2000F0F0FD01212E200D
:1005540000F0ECFD204610BD840000200014014092
:100564000004004000180140624B1B78002B00F08F
:10057400C0802DE9F04FA9B0012B0FD0022B2FD052
:10058400033BDBB2012B4BD9FFF786FEFFF776FE68
:10059400584B0022DA8229B0BDE8F08F5648FFF7A5
:1005A400D1FE0024554F564E534DFFF725FFFFF75C
:1005B4007DFF03463A4628210DEB010000F0FAFFC7
:1005C4000AA8FFF7BFFE3046FFF7BCFE2846FFF738
:1005D400B9FE0134474BDA8AA3B29A42E5D2D3E793
:1005E4004548FFF7AFFE0024444F464E424DFFF707
:1005F4005DFF03463A4628210DEB010000F0DAFFC7
:100604000AA8FFF79FFE3046FFF79CFE2846FFF737
:1006140099FE0134374BDA8AA3B29A42E7D2B3E7A0
:100624003948FFF78FFE4FF00009324CDFF8CC80D9
:100634002827364D05F10C062F48FFF783FE636823
:10064400424639461EA800F0B5FFA38A4246394601
:1006540014A800F0AFFF2E4A01AB07CA03C323F866
:10066400022B120C1A701EA901A800F0D7FFFFF785
:1006740069FE04AB95E8070003C31A804FF0000B32
:100684008DF81AB014A904A800F0C8FFFFF75AFEA9
:10069400FFF7B2FEFFF70AFF824603464246394699
:1006A4000AA800F087FF07AB96E8070003C31A8087
:1006B4008DF826B00AA907A800F0B0FFFFF742FEA4
:1006C4006368226913446360A38A53450CBF1148CD
:1006D4001148FFF737FE1148FFF734FE9620FFF765
:1006E400EBFD09F10109E28A1FFA89F39A42A3D2C8
:1006F4004AE7704784000020182E0008542E000892
:10070400582E0008742E0008902E0008742A000841
:10071400F02E0008A42E0008A82E0008B42E00080D
:10072400F8B50A283FD8DFE800F006161A1E22267C
:100734002A2E32363A001E4D2846FFF751FD074651
:1007440046191C4C0FCC78517160B260F360284696
:10075400FFF7F8FDF8BD1848FFF7F4FDFAE717486E
:10076400FFF7F0FDF6E71648FFF7ECFDF2E7154852
:10077400FFF7E8FDEEE71448FFF7E4FDEAE7134866
:10078400FFF7E0FDE6E71248FFF7DCFDE2E711487A
:10079400FFF7D8FDDEE71048FFF7D4FDDAE70F488E
:1007A400FFF7D0FDD6E70E4800F0ECFED2E700BF1D
:1007B400C4000020F02B0008002C0008142C0008B2
:1007C4002C2C0008682C00088C2C0008B42C000881
:1007D400D02C0008EC2C00080C2D00083C2D00083F
:1007E4004C2D000838B50D4B1D6800F095FD0C4CE0
:1007F400204600F09DFD0B49204600F0B1FD691C28
:10080400094800F0ADFD094B1968094800F0A8FD3E
:1008140000F07AFD0748FFF795FD38BDEC00002095
:1008240000F000085B138F2404F00008F40000209B
:1008340008F00008C02B000808B5144B1968144AC6
:10084400516004331B681360B3F1FF3F02D0114BB6
:10085400994202D0FFF79AFD08BD0F4B0F4A10686A
:1008640018601B88FF2B0CBF0D480E48FFF76AFD6C
:10087400094B9B7833B90C48FFF764FD0B48FFF72D
:1008840061FDE9E70A48FFF75DFDF7E700F00008BE
:10089400EC0000205B138F24F400002008F0000813
:1008A400602D00086C2D0008782D0008982D000894
:1008B400882D0008F8B5B04900F0D2FEAF4B18609F
:1008C400002800F034830446FFF78AFC05460246FC
:1008D400AB49204600F0B2FE28B12A46A949204679
:1008E40000F0ACFE08B9032D43D00322A6492046EC
:1008F40000F0A4FE38B10322A449204600F09EFE75
:10090400002840F0F980032D00F0A9802A46A04970
:10091400204600F093FE50B12A469E49204600F03E
:100924008DFE002840F0B181032D00F0EE802A46B0
:100934009949204600F082FE002840F09382042D5D
:1009440000F04D822A469549204600F077FE0028A3
:1009540000F092822A469249204600F06FFE002859
:1009640040F08A82042D40F08782FFF71FFD0024A7
:10097400DEE28C49002000F073FE04468A49002020
:1009840000F06EFE05467D4B5C605861002C00F063
:10099400D382002800F0D2822046FFF721FC0646CD
:1009A4002846FFF71DFC05463146204600F0F8FCBA
:1009B40008B10424BCE22946704B586900F0F0FCED
:1009C40008B10424B4E2102200216C4B586800F0F2
:1009D40013FF6FF07F4100F0F9FC08B10224A7E295
:1009E40010220021654B586900F006FF6F4B1988EF
:1009F40000F0ECFC0446002840F0A2826B4B1A88FD
:100A04004FF6FF739A421ED0694D01232B705B4E43
:100A140010220021706800F0EFFE686010220021AF
:100A2400706900F0E9FEA8820023AB60EB602B61E3
:100A3400EB823268524B9A4207BF2B4601225C4B31
:100A440002225A7074E2102200214C4B586800F0C4
:100A5400D3FE00F0C0FC0028D6D0032468E252493B
:100A6400002000F0FDFD0446444B5860002800F0CF
:100A74006982FFF7B5FB0146204600F091FC08B1FE
:100A8400062455E2102200213C4B586800F0B4FEC5
:100A94006FF07F4100F09AFC0446002840F0548235
:100AA400424B1A884FF6FF739A4219D0404D0223E5
:100AB4002B70324E10220021706800F09DFE686099
:100AC4000023AB82AB60EB602B61EB8232682E4B70
:100AD4009A4207BF2B460122354B02225A7027E265
:100AE40010220021254B586800F086FE00F073FCAC
:100AF4000028DBD003241BE22A462549204600F0C7
:100B04009DFD00283FF410AF06E72A49002000F0BD
:100B1400A7FD04462349002000F0A2FD0546224912
:100B2400002000F09DFD0646144B9C60DD6098613A
:100B3400002C00F00B82002D00F00A82002800F047
:100B440009822046FFF74CFB07462846FFF748FB7F
:100B540005463046FFF744FB06463946204600F07A
:100B64001FFC08B10624E3E12946044BD86800F0D1
:100B740017FC08B30624DBE1C02D0008F8000020B0
:100B8400C42D0008C82D0008D02D0008D42D00085D
:100B9400D82D0008DC2D0008E82D0008F02D0008F1
:100BA400F82D0008CC2D0008B02E0008F400002019
:100BB40084000020502E00083146A14B986900F0B3
:100BC400EFFB08B10624B3E19D4C10220021A0687C
:100BD40000F012FE054610220021E06800F00CFE31
:100BE4000146284600F0F2FB08B10224A0E11022DD
:100BF4000021E06800F000FE6FF07F4100F0E6FBAA
:100C04000446002840F0A8818E4B1A884FF6FF73E3
:100C14009A4223D08C4D05232B7000266E60AE8241
:100C2400874F10223146B86800F0E6FDA860102214
:100C34003146F86800F0E0FDE8602E61102231468C
:100C4400B86900F0D9FDE8823A68804B9A4207BF40
:100C54002B4601227C4B02225A7069E110220021AA
:100C6400774B986800F0C8FD00F0B5FB08B1032489
:100C74005EE110220021724BD86800F0BDFD00F047
:100C8400AAFB0028C6D0032452E12A467049204614
:100C940000F0D4FC06462A466E49204600F0CEFCFD
:100CA40016B100287FF443AE032D7FF440AE6A49A9
:100CB400002000F0D5FC04466849002000F0D0FC78
:100CC40005465F4B9C60D860002C00F047810028EB
:100CD40000F046812046FFF783FA06462846FFF7D0
:100CE4007FFA05463146204600F05AFB08B1042439
:100CF4001EE12946524BD86800F052FB08B1042487
:100D040016E14F4C10220021A06800F075FD054645
:100D140010220021E06800F06FFD0146284600F033
:100D240055FB08B1022403E110220021E06800F021
:100D340063FD6FF07F4100F049FB0446002840F05A
:100D44001181404B1A884FF6FF739A4227D03C4BCF
:100D54001B683F4A93420CBF032304233A4D2B7074
:100D6400374E10220021B06800F046FDA860102222
:100D74000021F06800F040FDE860AA686A60002382
:100D84006B70304B19884FF6FF7399421ED02E4B6F
:100D9400BD21998201211961801AD882C8E01022EC
:100DA4000021274B986800F027FD00F014FB08B1E0
:100DB4000324BDE010220021214BD86800F01CFD63
:100DC40000F009FB0028C2D00324B1E04BF6BD5368
:100DD400AB8202232B61831A5B08EB82A8E01F49D4
:100DE40000F03EFC164B9861002800F0BD801022F4
:100DF400002100F001FD4FF0FF3100F0E7FA044656
:100E0400002840F0B380164B1A78531EDBB2012B36
:100E140001D907248CE00C4D2A70114B5A686A6082
:100E24009A8AAA829A68AA60DA68EA601B692B61C6
:100E340010220021024B986900F0DEFCE88277E082
:100E4400F8000020F400002084000020D82D0008C1
:100E5400E02D0008E42D0008502E0008B02E0008F4
:100E64009C0000202A464549204600F0E7FB002864
:100E74007FF470AD042D21D02A464149204600F06C
:100E8400DDFB08B9072D1DD02A463E49204600F057
:100E9400D5FB18BB022D19D02A463B49204600F049
:100EA400CDFB002868D02A463849204600F0C6FB0E
:100EB40000285FD1022D32D00A2439E0FFF792FCDA
:100EC400002435E0FFF762FA002431E0304BFF22C2
:100ED4001A803048FFF736FA002429E02A462E49C2
:100EE400204600F0ABFB50B9022DD5D1284B4FF66C
:100EF400FF721A802948FFF725FA002418E02A46D1
:100F04002149204600F09AFB0028CCD1022D2FD194
:100F140000241F4B9C702248FFF714FA08E01C4B76
:100F240001229A701F48FFF70DFA002400E00924FB
:100F34002046FFF7F5FBF8BD0924F9E70924F7E794
:100F44000124F5E70924F3E70224F1E70924EFE794
:100F54000924EDE70924EBE70224E9E70924E7E79C
:100F64000924E5E70224E3E70724E1E70824DFE7AF
:100F74000A24DDE70A24DBE70A24D9E7F02D000878
:100F8400002E0008082E0008102E0008142E000859
:100F9400F4000020602D00080C2E00086C2D0008C1
:100FA400782D0008882D000838B5144BC35C03F075
:100FB4000303022B08BF2038114B1B68262B16D8BD
:100FC400C0B20D2805D0591C0D4A11600D4AD054E9
:100FD40038BD0D48FFF7B6F9094C23685A1C226046
:100FE40008480025C554FFF765FC2560F0E707486D
:100FF400FFF7A8F9024B00221A60E9E7A5300008C0
:10100400B4000020C4000020A82B0008AC2B00086A
:1010140008B5074B1B8813F0200F05D0044B9888A4
:10102400C0B2FFF7C1FF08BD0248FFF78BF9FAE72A
:1010340000380140DC2B000808B500F04BF800F044
:101044008DF800F0BFF800F0CFF800F003F9FFF7D7
:10105400F3FB0348FFF776F9FFF786FAFCE700BFD6
:10106400B82D0008F0B41A4B03EBC0039C88072C7E
:101074001CD8174B53F830502E68A3000F279F40FD
:1010840026EA07062E602E68994031432960104BEA
:1010940053F83030D9680120A04021EA0001D9601A
:1010A400D968A2400A43DA60F0BC7047084B53F891
:1010B40030305E68A4F10805AD000F27AF4026EA82
:1010C40007065E605E68A94031435960DFE700BFF0
:1010D400FC2E000838B5134B9A6942F004029A6159
:1010E4009A6942F008029A619A6942F010029A6180
:1010F4009A6942F020029A619A6942F040029A6128
:101104009A6942F001029A610024074D05EBC40379
:10111400DA799979E0B2FFF7A5FF0134352CF5D1DE
:1011240038BD00BF00100240FC2E000849B10A4B34
:1011340053F8302003EBC000818801238B401361F6
:101144007047054B53F8302003EBC000818801231E
:101154008B405361704700BFFC2E0008174A936907
:1011640043F480439361A2F5584240F6A663138189
:10117400938943F4005343F00C039381104B596853
:1011840021F0C0015960596841F0800159605968E3
:1011940041F010015960596821F44061596059685F
:1011A40041F400615960596821F440715960138811
:1011B40023F040031B041B0C1380704700100240F3
:1011C4000008014062B6064B20225A60002283F8D0
:1011D4002523044A938943F020039381704700BF79
:1011E40000E100E000380140164A936943F40063CB
:1011F4009361154B1A8842F080021A801A8822F0F3
:1012040008021204120C1A801A8822F01002120426
:10121400120C1A801A8842F004021A800021998163
:101224000A4A12680A48A0FB0202D209013A92B2A1
:101234001A851A8822F001021204120C1A80998469
:10124400704700BF00100240002C01400000002045
:10125400D34D62102A4A536843F40063536002F585
:101264008832D36943F00203D361264B1A8842F0D3
:1012740080021A801A8822F008021204120C1A80C2
:101284000021998119851A8B42F480721A831A8B72
:1012940022F400721204120C1A831A8B42F40042D4
:1012A4001A831A8C22F020021204120C1A841A894E
:1012B40042F007021A811A8922F010021204120C59
:1012C4001A811A8942F020021A811A8942F04002D6
:1012D4001A811A8842F004021A809A8C998407228F
:1012E4009A851A8822F001021204120C1A801A88B4
:1012F40042F004021A801A8842F001021A807047F0
:101304000000014000040040024A136943F08003D6
:101314001361704700200240034B044A5A6002F1F3
:1013240088325A60704700BF00200240230167459D
:101334000A4B1A6942F002021A6158611A6942F0B2
:1013440040021A611A46D36813F0010FFBD1034A15
:10135400136923F002031361704700BF00200240A9
:101364000E4A136943F001031361D36813F0010FAC
:10137400FBD18BB20380094AD36813F0010FFBD170
:10138400090C4180054AD36813F0010FFBD1034ACD
:10139400136923F001031361704700BF002002406A
:1013A40010B479B1431E0844441E0020064913F8C2
:1013B400012F525C12F0440F08BF0130A342F6D152
:1013C40010BC70470846FBE7A5300008884294BF6C
:1013D40000200120704700F00100704782B03C4BB0
:1013E4001A6842F001021A6059683A4A0A405A607F
:1013F4001A6822F0847222F480321A601A6822F485
:1014040080221A605A6822F4FE025A604FF41F02C6
:101414009A600022009201921A6842F480321A60A3
:101424001A46136803F400330193009B01330093BD
:10143400019B1BB9009BB3F5A06FF2D1244B1B6831
:1014440013F4003F14BF012300230193019B012BDC
:1014540005D0214B4FF000629A6002B070471F4BD9
:101464001A6842F010021A601A6822F003021A6025
:101474001A6842F002021A60A3F580535A685A604F
:101484005A685A605A6842F480625A605A6822F470
:101494007C125A605A6842F4E8125A601A6842F0A0
:1014A40080721A601A46136813F0007FFBD0084B51
:1014B4005A6822F003025A605A6842F002025A60E3
:1014C4001A46536803F00C03082BFAD1C1E700BF96
:1014D400001002400000FFF800ED00E00020024090
:1014E400002103E00B4B5B58435004310A480B4B7B
:1014F40042189A42F6D30A4A02E0002342F8043B17
:10150400084B9A42F9D3FFF769FF00F00FF8FFF791
:1015140093FD704748320008000000206800002056
:101524006800002024010020FEE7000070B50026BA
:101534000C4D0D4C641BA410A64209D101F08CFA89
:1015440000260A4D0A4C641BA410A64205D170BDA6
:1015540055F8043B98470136EEE755F8043B9847A5
:101564000136F2E7403200084032000840320008F9
:101574004432000803460244934200D1704703F802
:10158400011BF9E70FB40A4B13B51C6824B1A36916
:1015940013B9204600F092F905AB049AA1682046DD
:1015A400019300F055FC02B0BDE8104004B0704750
:1015B400040000200CB430B5174B0C1E9DB01D6800
:1015C40008DA8B234FF0FF302B601DB0BDE83040AC
:1015D40002B070474FF40273ADF814300CBF2346C9
:1015E40004F1FF33049307934FF6FF7302900690C0
:1015F400ADF81630209A21AB02A92846019300F0D9
:1016040007FB431CBCBF8B232B60002CDDD00022C6
:10161400029B1A70D9E700BF04000020034610B5EE
:101624001A4612F8014B3CB9013B11F8012B03F89F
:10163400012F002AF9D110BD1346F1E710B56AB1A4
:101644000139841810F8013B11F8012F934203D19A
:10165400A04201D0002BF5D1981A10BD1046FCE72A
:10166400134B2DE9F0411D680646AC6D0F46B4B925
:10167400502000F0C3F9A865C0E90044C0E9024461
:10168400C0E90444C0E90A44C0E90C44C0E90E447A
:10169400C0E91044C0E91244846104774462AA6D2D
:1016A40039463046BDE8F041012300F003B800BFDD
:1016B40004000020F0B518B9106808B9F0BD204640
:1016C40004460F4614F8015B17F8016B1EB965B99F
:1016D40015602846F2E7B542F6D1002BEFD114602D
:1016E4000370EBE71C460CE015B90E4614F8013BF9
:1016F40016F8015BAB42F7D1002BF3D0002304F8BA
:10170400013C1460DAE700002DE9F04786460846FC
:10171400384F054615F8014BE65D16F0080634D13E
:101724002D2C34D14FF001082C78851C002B5CD073
:10173400102B09D1302C07D1287800F0DF0058286D
:101744004ED110236C780235B8F1000F14BF4FF05E
:10175400004C6FF0004C0027BCFBF3F9384603FB48
:1017640019CAA4F13006092E18D83446A34224DD40
:101774007E1C07D081451DD301D1A2451ADB012768
:1017840000FB034015F8014BEBE72846C1E72B2C7F
:1017940008BF2C78B04608BF851CC7E7A4F14106F2
:1017A400192E01D8373CE1E7A4F16106192E04D8BB
:1017B400573CDBE74FF0FF37E4E77B1C06D12223DD
:1017C4006046CEF8003042B9BDE8F087B8F1000FAA
:1017D40000D04042002AF7D007B1691E1160F3E738
:1017E4003024002BB0D10823AEE7302CA4D00A2338
:1017F400AAE700BFA530000813460A46014602487E
:101804000068FFF781BF00BF04000020002310B56B
:101814000446C0E90033836081814366C281C0E924
:1018240004338361194608225C30FFF7A3FE054B9D
:1018340024626362044BA362044BE362044B23639C
:1018440010BD00BFDD230008FF2300083724000873
:101854005B240008014900F0AFB800BF3527000839
:1018640070B568254A1E55430E4605F1740100F013
:1018740019F9044640B10021C0E900160C30A060FB
:1018840005F16802FFF776FE204670BD014800F0BE
:10189400B2B800BF1C010020014800F0ADB800BF81
:1018A4001C010020014800F0A6B800BF1701002069
:1018B400014800F0A1B800BF1701002010B504468C
:1018C400FFF7F0FFA3691BB1BDE81040FFF7F0BFBD
:1018D400C4E912332365134B134A1B68A262A34263
:1018E40008BF0123204608BFA36100F01FF8606011
:1018F400204600F01BF8A060204600F017F80022F4
:10190400E06004216068FFF781FF01220921A068DB
:10191400FFF77CFF02221221E068FFF777FF012323
:10192400A361D1E7A831000859180008F8B50746A3
:10193400FFF7ACFF1E4B1E68B36913B93046FFF7BF
:10194400BDFF4836D6E90134013B03D533680BB3F8
:101954003668F7E7B4F90C50D5B9164B04F15800C2
:10196400E360656600F046F8FFF796FF2560C4E97A
:101974000155C4E90455A5610822294604F15C0017
:10198400FFF7F8FDC4E90D55C4E912552046F8BD2A
:101994006834D9E704213846FFF762FF0446306013
:1019A4000028D5D1FFF778FF0C233B60EEE700BF9A
:1019B400A83100080100FFFF2DE9F843804689465D
:1019C400002600F1480414B93046BDE8F883D4E990
:1019D4000175013F01D52468F5E7AB89012B07D9CF
:1019E400B5F90E30013303D029464046C8470643B3
:1019F4006835EEE77047704770470000024B0146B8
:101A0400186800F04FB800BF0400002038B5054640
:101A1400002943D051F8043C0C1F002BB8BFE41834
:101A240000F06EFF1E4A1368104633B963601460F9
:101A34002846BDE8384000F069BFA3420BD92168AD
:101A44006218934201BF1A685B685218226063608F
:101A54000460EDE713465A680AB1A242FAD919683C
:101A64005818A0420BD120680144581882421960CA
:101A7400DED110685268014419605A60D8E702D96F
:101A84000C232B60D4E7206821188A4201BF116817
:101A940052680918216062605C60C9E738BD00BF04
:101AA400B8000020F8B5CD1C25F0030508350C2D31
:101AB40038BF0C25002D064601DBA94203D90C23AF
:101AC40033600020F8BD00F01BFF21490A6814466A
:101AD4009CB9204F3B6823B92146304600F06CFC8A
:101AE40038602946304600F067FC431C23D10C23A0
:101AF4003046336000F00AFFE3E723685B1B17D42A
:101B04000B2B03D923601C44256004E06368A242C4
:101B14000CBF0B605360304600F0F8FE04F10B007C
:101B2400231D20F00700C21ACCD01B1AA350C9E70A
:101B340022466468CCE7C41C24F00304A042E3D02A
:101B4400211A304600F038FC0130DDD1CFE700BF68
:101B5400B8000020BC0000202DE9F0478E688246C2
:101B64009E420C469146984638D8B1F80CC01CF4F5
:101B7400906F31D062692568096902EB42026F1ADD
:101B840002EBD272013355103B449D4238BF1D46CF
:101B94001CF4806F30D02946FFF784FF064650B905
:101BA4000C234FF0FF30CAF80030A38943F0400300
:101BB400A381BDE8F0873A46216900F079FEA38944
:101BC40023F4906343F08003A38126613E4426609E
:101BD40046466561ED1BA560464500D9464632463A
:101BE4004946206800F072FEA36800209B1BA36096
:101BF40023681E442660DCE72A4600F08DFE064674
:101C04000028E2D121695046FFF700FFC8E7000031
:101C14002DE9F04F1E468B899DB01B0607460D46E5
:101C240014460ED50B6963B94021FFF73BFF2860CA
:101C3400286120B90C233B604FF0FF30C9E04023FA
:101C44006B610023099320238DF8293030234FF052
:101C5400010ADFF898918DF82A30039623461E4630
:101C640013F8012B0AB1252AF9D1B6EB040B0BD0DA
:101C74005B46224629463846FFF76EFF013000F0E6
:101C8400A380099B5B4409933378002B00F09C806C
:101C940000234FF0FF32CDE9052301360493079367
:101CA4008DF853301A933446052214F8011B4F481B
:101CB40000F0F0FD049BC0B9D90644BF20228DF882
:101CC40053201A0744BF2B228DF8532032782A2A36
:101CD40013D0344600200A26079A214611F8013B06
:101CE400303B092B4BD970B914E0A0EB09000AFA78
:101CF40000F0184304902646D5E7039A111D126894
:101D04000391002A01DB079204E0524243F00203EC
:101D14000792049323782E2B0CD163782A2B33D18A
:101D2400039B02341A1D1B680392002BB8BF4FF0AB
:101D3400FF3305932E4E03222178304600F0AAFD8E
:101D440038B14023801B03FA00F0049B01340343A1
:101D5400049314F8011B062226488DF8281000F07D
:101D640099FD002838D0244B13BB039B073323F081
:101D7400070308330393099B434409936EE706FB67
:101D8400023201200C46A8E700230A261946013432
:101D94000593204610F8012B303A092A03D9002B69
:101DA400C8D00591C6E706FB012101230446F0E7EC
:101DB40003AB00932A46114B04A93846AFF30080C5
:101DC400B0F1FF3F8046D6D1AB895B063FF534AF17
:101DD40009981DB0BDE8F08F03AB00932A46074B6A
:101DE40004A9384600F0D2F9EAE700BF0C32000833
:101DF4001232000816320008000000005D1B0008C3
:101E0400936810B4013B002B936007DA9469A342F2
:101E140001DB0A2902D110BC00F022BB1368581C54
:101E240010601970084610BC7047F8B506460F4696
:101E34001446D518AC4201D1002007E03A4614F804
:101E4400011B3046FFF7DCFF431CF3D1F8BD000053
:101E54002DE9F04F0D469DB014461E46074618B1B5
:101E640083690BB9FFF72AFD854B9D421BD17D6821
:101E74006B6ED90705D4AB899A0502D4A86DFFF718
:101E8400BAFDAB891B0701D52B69EBB92946384646
:101E940000F04AFBC0B16B6ED8070ED54FF0FF308F
:101EA4001DB0BDE8F08F774B9D4201D1BD68DFE7DF
:101EB400754B9D4208BFFD68DAE7AB899905EDD4FF
:101EC400A86DFFF799FDE9E70023099320238DF816
:101ED400293030234FF0010ADFF8B0918DF82A3011
:101EE400039623461E4613F8012B0AB1252AF9D17D
:101EF400B6EB040B0BD05B46224629463846FFF767
:101F040094FF013000F0A380099B5B44099333786C
:101F1400002B00F09C8000234FF0FF32CDE9052315
:101F24000136049307938DF853301A9334460522EF
:101F340014F8011B554800F0ADFC049BC0B9DA0647
:101F440044BF20228DF85320180744BF2B228DF85C
:101F5400532032782A2A13D0344600200A26079ABE
:101F6400214611F8013B303B092B4BD970B914E0E1
:101F7400A0EB09000AFA00F0184304902646D5E7BE
:101F8400039A111D12680391002A01DB079204E0F1
:101F9400524243F002030792049323782E2B0CD170
:101FA40063782A2B33D1039B02341A1D1B680392D6
:101FB400002BB8BF4FF0FF330593354E0322217831
:101FC400304600F067FC38B14023801B03FA00F070
:101FD400049B01340343049314F8011B06222D4887
:101FE4008DF8281000F056FC00283FD02A4B13BB74
:101FF400039B073323F0070308330393099B4344EC
:1020040009936EE706FB023201200C46A8E7002381
:102014000A26194601340593204610F8012B303A5C
:10202400092A03D9002BC8D00591C6E706FB012174
:1020340001230446F0E703AB00932A46174B04A997
:102044003846AFF30080B0F1FF3F8046D6D16B6EC7
:10205400D90705D4AB899A0502D4A86DFFF7CCFC47
:10206400AB895B063FF51AAF099819E703AB0093F8
:102074002A460A4B04A9384600F088F8E3E700BF73
:10208400CC310008EC310008AC3100080C320008F7
:102094001232000816320008000000002F1E00084B
:1020A4002DE9F04791461F468A680B69064693421C
:1020B400B8BF1346C9F8003091F843200C46DDF848
:1020C400208012B10133C9F800302368990642BF59
:1020D400D9F800300233C9F80030256815F0060538
:1020E40007D104F1190AE368D9F800209B1AAB421E
:1020F40029DC94F843302268003318BF0123920688
:102104002ED404F1430239463046C047013021D071
:102114002368E56803F00603042B18BF0025D9F8EB
:1021240000204FF0000908BFAD1AA368226908BF58
:1021340025EAE5759342C4BF9B1AED181A344D4540
:102144001AD1002008E00123524639463046C047E0
:10215400013003D14FF0FF30BDE8F0870135C2E70D
:102164003020E11881F843005A1C94F845102244A9
:10217400023382F84310C4E701232246394630462D
:10218400C0470130E6D009F10109D8E72DE9F04351
:1021940006460C4601F14300097E85B06E29984637
:1021A40017460C9B00F0BB8024D8632939D00AD889
:1021B400002900F0C480582900F0928004F14205FF
:1021C40084F8421035E0642901D06929F6D12568E4
:1021D4001A6815F0800F02F104012CD012681960FE
:1021E400002A03DA2D23524284F84330DFF8C0C1B9
:1021F4000A233FE0732900F0A68008D86F2921D074
:102204007029DBD1226842F02002226003E07529A4
:1022140018D07829D2D17822DFF898C184F84520E3
:1022240062E01A6804F14205111D1960136884F80C
:102234004230012394E0126815F0400F196018BF72
:1022440012B2CDE7D4F800C01A681CF0800F02F176
:1022540004051D6001D0126803E01CF0400FFAD0A1
:1022640012886F290CBF08230A23DFF844C1002118
:1022740084F843106568002DA8BF2168A560A4BF39
:1022840021F0040121600AB9002D46D00546B2FBB5
:10229400F3F103FB112E1CF80EE0934205F801ED57
:1022A40039D9082B0BD12368DA0708D5236962686A
:1022B4009A42DEBF302305F8013C05F1FF35401B8F
:1022C4002061CDF800803B4603AA21463046FFF743
:1022D400E7FE013049D14FF0FF3005B0BDE8F0838F
:1022E400DFF8CCC084F845101D68216855F8042B2C
:1022F4001D600D060BD5CD0744BF41F020012160C0
:102304001AB9236823F0200323601023AFE74B0698
:1023140048BF92B2EFE70A46B9E70546C1E71A6833
:10232400D4F800C0151D61691CF0800F1D6013688E
:1023340001D0196003E01CF0400FFAD0198000238B
:1023440005462361BDE71A68111D1960156800214F
:102354006268284600F09EFA08B1401B606063681A
:102364002361002384F84330ABE723692A463946C6
:102374003046C0470130AED023689B0713D4E068D1
:10238400039B9842B8BF1846A7E701234A4639463B
:102394003046C04701309ED00135E368039A9B1A4A
:1023A400AB42F2DCEBE7002504F11909F5E700BFC5
:1023B4001D3200082E32000838B50023054C0546AE
:1023C4000846236000F032FB431C02D1236803B1AA
:1023D4002B6038BD2001002010B50C46B1F90E1059
:1023E40000F0C0FA0028ABBF636DA3891B1823F467
:1023F4008053ACBF6365A38110BD2DE9F0411F4636
:102404008B890546DB050C46164605D502230022BA
:10241400B1F90E1000F0C8F9A389324623F48053B1
:10242400A381B4F90E103B462846BDE8F04100F004
:1024340069B810B50C46B1F90E1000F0B5F9431C9B
:10244400A38915BF606523F4805343F48053A381AB
:1024540018BFA38110BDB1F90E1000F0D3B800006D
:10246400F8B50E461446054618B183690BB9FFF753
:1024740025FA214B9C422BD16C68A369A360A389E4
:102484001A072FD523696BB323692068F6B2C01AE3
:1024940063693746834204DC2146284600F048F944
:1024A40030BBA3680130013BA36023685A1C22603F
:1024B4001E706369834204D0A389DB0706D50A2E04
:1024C40004D12146284600F033F988B93846F8BDCE
:1024D4000A4B9C4201D1AC68CFE7094B9C4208BF30
:1024E400EC68CAE72146284600F01EF80028CBD045
:1024F4004FF0FF37EAE700BFCC310008EC310008A9
:10250400AC31000838B50546084611460022054C92
:1025140022601A4600F098FA431C02D1236803B1E2
:102524002B6038BD20010020324B70B51D68064673
:102534000C4625B1AB6913B92846FFF7BFF92E4BFA
:102544009C420FD16C68B4F90C309AB215072CD4A4
:10255400D00611D40922326043F04003A3814FF026
:10256400FF303EE0254B9C4201D1AC68EBE7244BA5
:102574009C4208BFEC68E6E7510712D5616B41B194
:1025840004F14403994202D03046FFF73FFA002396
:102594006363A38923F02403A38100236360236975
:1025A4002360A38943F00803A38123694BB9A3895A
:1025B40003F42073B3F5007F03D02146304600F0C6
:1025C40029F9A28912F001030CD00023A3606369E6
:1025D4005B42A361236953B9B4F90C3013F0800052
:1025E400BAD170BD920758BF6369A360F2E70020B7
:1025F400F7E700BF04000020CC310008EC310008EC
:10260400AC31000838B50023054C05460846236064
:1026140000F0E4F9431C02D1236803B12B6038BDF8
:10262400200100208A892DE9F041054610070C4657
:1026340058D44B68002B05DC0B6C002B02DC00200B
:10264400BDE8F081E66A002EF9D0002312F480522E
:102654002F682B6032D0606DA3895A0705D5636853
:10266400C01A636B0BB1236CC01A00230246E66ADE
:10267400216A2846B047431CA38906D129681D292D
:1026840049D82A4ACA40D60745D500226260226941
:10269400D904226004D5421C01D12B6803B96065BA
:1026A400616B2F600029CAD004F14403994202D01F
:1026B4002846FFF7ABF900206063C1E7216A0123D4
:1026C4002846B047411CC7D12B68002BC4D01D2B12
:1026D40001D0162B01D12F60B1E7A38943F0400349
:1026E400A381ADE70F69002FA9D0930718BF00237A
:1026F4000E6808BF4B69A6EB07080F608B60B8F142
:10270400000F9CDD43463A46216A2846A66AB04734
:10271400002806DCA38943F04003A3814FF0FF3077
:102724008EE70744A8EB0008E9E700BF010040205A
:1027340038B50B6905460C4613B90025284638BD43
:1027440018B183690BB9FFF7B9F8144B9C421BD13C
:102754006C68B4F90C30002BEFD0626ED00704D44F
:10276400990502D4A06DFFF746F928462146FFF7E4
:1027740059FF636E0546DA07E0D4A3899B05DDD4CF
:10278400A06DFFF739F9D9E7054B9C4201D1AC683C
:10279400DFE7044B9C4208BFEC68DAE7CC31000861
:1027A400EC310008AC31000838B50546084611463E
:1027B4000022054C22601A4600F028F9431C02D17D
:1027C400236803B12B6038BD2001002070B50E468C
:1027D400B1F90E1096B0002914461D4607DA0023FD
:1027E4002B60B3891A0610D44FF480630EE06A4656
:1027F40000F0CAF80028F2DB019A02F47042A2F554
:1028040000535A425A412A60EEE7402300202360D5
:1028140016B070BD8B8973B59D0706460C4607D567
:1028240004F14703236023610123636102B070BD97
:1028340001AB6A46FFF7CAFF009905463046FFF729
:1028440031F948B9B4F90C309A05EFD423F00303F5
:1028540043F00203A381E3E70D4BB362A389206035
:1028640043F08003A381009B20616361019B5BB102
:10287400B4F90E10304600F099F828B1A38923F07A
:10288400030343F00103A381A3891D43A581CDE77D
:102894005918000810B5C9B202449042034601D148
:1028A400002303E01C7801308C42F6D1184610BD99
:1028B4000A44914200F1FF3300D1704710B511F87A
:1028C400014B914203F8014FF9D110BD884210B574
:1028D40001EB020302D983421C4607D8421E9942E7
:1028E40008D011F8014B02F8014FF8E783189A1A3F
:1028F4009A4200D110BD14F8011D03F8011DF7E739
:102904000148FFF778B800BF180100200148FFF71D
:1029140073B800BF18010020F8B5074614460E46E8
:1029240021B91146BDE8F840FFF7BCB822B9FFF75A
:102934006DF825462846F8BD00F048F8A0420FD2AD
:1029440021463846FFF7AEF805460028F2D0314656
:102954002246FFF7ADFF31463846FFF757F8E9E75F
:102964003546E7E738B50546084611460022054CCA
:1029740022601A4600F052F8431C02D1236803B1C6
:102984002B6038BD2001002038B50023064C0546D5
:1029940008461146236000F029F8431C02D123683D
:1029A40003B12B6038BD00BF2001002038B50023DF
:1029B400054C05460846236000F020F8431C02D16C
:1029C400236803B12B6038BD2001002051F8043C7A
:1029D400181F002BBCBF0B58C01870475822024B5D
:1029E4004FF0FF301A607047200100205822024B3C
:1029F4004FF0FF301A607047200100205822024B2C
:102A040000201A60704700BF200100205822024BAA
:102A14004FF0FF301A607047200100205822024B0B
:102A24004FF0FF301A60704720010020044A054926
:102A34001368002B08BF0B461844106018467047F3
:102A4400C0000020280100205822024B4FF0FF3024
:102A54001A60704720010020F8B500BFF8BC08BC1C
:102A64009E467047F8B500BFF8BC08BC9E46704748
:102A74005772697465643D30780000005265616482
:102A840065643D30780000004C6F616465642064C7
:102A9400656661756C742064657669636520636F2F
:102AA4006E66696775726174696F6E3A203136209B
:102AB4006269742C2073796E63206F6E2061646484
:102AC40072657373000000003C2D2D2D2D2D2D2DCE
:102AD4002D2D2D2D2D2D2D2D48454C502D2D2D2DAD
:102AE4002D2D2D2D2D2D2D2D2D2D2D3E00000000B5
:102AF40057524D2C20575250202D207772697465FF
:102B040020636F6D6D616E640000000052444D2CB3
:102B140020524450202D207265616420636F6D6DD6
:102B2400616E640020000000666F726D6174206342
:102B34006F6D6D616E6440616464726573733D644E
:102B44006174610053415645202D20636F6D6D61A2
:102B54006E64207468617420736176652063757295
:102B640072656E742064657669636520636F6E6652
:102B7400696775726174696F6E0000003C2D2D2DBC
:102B84002D2D2D2D2D2D2D2D2D2D454E442D4845EE
:102B94004C502D2D2D2D2D2D2D2D2D2D2D2D2D3E0E
:102BA400000000003E000000546F6F206C6F6E67E1
:102BB40020636F6D6D616E64000000004375727276
:102BC400656E7420636F6E66696775726174696F90
:102BD4006E207361766564004578657074696F6E04
:102BE400202331202D205541525400002068617665
:102BF40065206E6F206572726F7273004441544198
:102C0400206F7574206F662072616E676500000026
:102C140041444452455353206F7574206F662072AB
:102C2400616E6765000000004144445245535320DF
:102C34006973206E6F74206576656E206E756D62A3
:102C440065720A53657420444154412073697A655E
:102C54002038206269740A436F6D6D616E64202DA3
:102C64002053420041444452455353206F72204440
:102C74004154412068617665206E6F206865782034
:102C8400666F726D61740000535441525420414484
:102C94004452455353206D6F7265207468616E20F1
:102CA40053544F50204144445245535300000000B4
:102CB400414444524553532068617665206E6F2029
:102CC40068657820666F726D61740000556E61628C
:102CD4006C6520746F206C6F6F70206C617374204E
:102CE400636F6D6D616E6400546F6F206D75636802
:102CF4002072657065617420636F756E74657220EF
:102D04002833326269742900596F752074726965B9
:102D1400642063616C63756C617465206C656E67B7
:102D240068742066726F6D204E554C4C20706F692C
:102D34006E74657200000000556E6B6E6F772063D1
:102D44006F6D6D616E640000556E6B6E6F772074ED
:102D5400797065206572726F72000000382D6269A7
:102D640074206D6F6465000031362D626974206DC6
:102D74006F64650053796E63206F6E204441544143
:102D84000000000053796E63206F6E20414444526A
:102D940045535300436F6E66696775726174696F5A
:102DA4006E206C6F616465642066726F6D20464CA2
:102DB40041534800526561647900000040000000FE
:102DC40057524D00575250003D00000052444D00F0
:102DD4005244500046444D004644500052414D0078
:102DE400524F4D004C4F4F50000000005341564588
:102DF4000000000048454C50000000004445464196
:102E0400554C5400534200005357000053440000F3
:102E1400534100003C2D2D2D2D2D2D2D2D2D2D2DEF
:102E24002D2D2D2D2D2D2D2D2D2D2D2D2D2D2D2DCE
:102E34002D2D2D2D2D2D2D2D2D2D2D2D2D2D2D2DBE
:102E44002D2D2D2D2D2D2D2D2D2D2D2D2D00000035
:102E5400255800003C2D2D2D2D2D2D2D77726974B4
:102E64006520636F6D706C6574652D2D2D0A0A00E5
:102E74003C2D2D2D2D2D2D2D7265616420636F6DDC
:102E8400706C6574652D2D2D0A0A000054657374E9
:102E94002052414D20616464726573733A000000EE
:102EA4004F4B00004552524F522121210000000097
:102EB4003C2D2D2D2D2D2D2D2D2D2D2D2D2D2D2D2F
:102EC4002D2D2D2D2D2D2D2D2D2D2D2D2D2D2D2D2E
:102ED4002D2D2D2D2D2D2D2D2D2D2D2D2D2D2D2D1E
:102EE4002D2D2D2D2D2D2D2D2D0A000041646472C4
:102EF4006573733D30780000000801400000030151
:102F04000008014001000301000801400200030120
:102F1400000801400300030100080140040003010C
:102F240000080140050003010008014006000301F8
:102F34000008014007000301001401400F000301D1
:102F4400001401400E000301001401400D000301B0
:102F5400001401400C000301001401400B000301A4
:102F6400001401400A000301001401400900030198
:102F7400001401400800030100140140070003018C
:102F84000014014006000301001401400500030180
:102F94000014014004000301001401400300030174
:102FA4000014014002000301001401400100030168
:102FB4000014014000000301001801400F0000014B
:102FC400001801400E000001001801400D0000012E
:102FD400001801400C000001001801400B00000122
:102FE400001801400A000001001801400900000116
:102FF400001801400800000100180140070000010A
:1030040000180140060000010018014005000001FD
:1030140000180140040000010018014003000001F1
:1030240000180140020000010018014001000001E5
:1030340000180140000000010008014008000301DD
:10304400000801400B000301000801400C000301CB
:1030540000100140000003010010014001000301C1
:1030640000100140020003010010014003000301AD
:10307400001001400600000100100140070000019B
:103084000010014008000301001001400900030181
:103094000008014009000301000801400A0003017F
:1030A4000020202020202020202028282828282014
:1030B400202020202020202020202020202020200C
:1030C4002088101010101010101010101010101074
:1030D4001004040404040404040404101010101064
:1030E400101041414141414101010101010101012E
:1030F4000101010101010101010101011010101080
:1031040010104242424242420202020202020202FF
:103114000202020202020202020202021010101053
:10312400200000000000000000000000000000007B
:10313400000000000000000000000000000000008B
:10314400000000000000000000000000000000007B
:10315400000000000000000000000000000000006B
:10316400000000000000000000000000000000005B
:10317400000000000000000000000000000000004B
:10318400000000000000000000000000000000003B
:10319400000000000000000000000000000000002B
:1031A40000000000080000200000000000000000F3
:1031B400000000000000000000000000000000000B
:1031C40000000000000000000000000000000000FB
:1031D40000000000000000000000000000000000EB
:1031E40000000000000000000000000000000000DB
:1031F40000000000000000000000000000000000CB
:103204000000000000000000232D302B2000686C1B
:103214004C006566674546470030313233343536F5
:10322400373839414243444546003031323334352E
:0C3234003637383961626364656600005B
:043240005D02000823
:043244003502000847
:1032480000A24A040800002000000000CC31000859
:10325800EC310008AC31000800000000000000005C
:103268000000000000000000000000000000000056
:103278000000000000000000000000000000000046
:103288000000000000000000000000000000000036
:103298000000000000000000000000000000000026
:0832A80000000000000000001E
:04000005080014E5F6
:00000001FF
