:020000040800F2
:1000000000000120351300087D1300087D1300084F
:100010007D1300087D1300087D1300080000000018
:100020000000000000000000000000007D13000838
:100030007D130008000000007D1300087D130008F8
:100040007D1300087D1300087D1300087D13000850
:100050007D1300087D1300087D1300087D13000840
:100060007D1300087D1300087D1300087D13000830
:100070007D1300087D1300087D1300087D13000820
:100080007D1300087D1300087D1300087D13000810
:100090007D1300087D1300087D1300087D13000800
:1000A0007D1300087D1300087D1300087D130008F0
:1000B0007D1300087D1300087D1300087D130008E0
:1000C0007D1300087D1300087D1300087D130008D0
:1000D0007D130008650E00087D1300087D130008DD
:1000E0007D1300087D1300087D1300087D130008B0
:1000F0007D1300087D1300087D1300087D130008A0
:100100007D1300087D1300087D1300087D1300088F
:100110007D1300087D1300087D1300087D1300087F
:100120007D1300087D1300087D1300087D1300086F
:1001300000000000000000000000000000000000BF
:1001400000000000000000000000000000000000AF
:10015000000000000000000000000000000000009F
:10016000000000000000000000000000000000008F
:10017000000000000000000000000000000000007F
:10018000000000000000000000000000000000006F
:10019000000000000000000000000000000000005F
:1001A000000000000000000000000000000000004F
:1001B000000000000000000000000000000000003F
:1001C000000000000000000000000000000000002F
:1001D000000000000000000000000000000000001F
:0401E0005FF8E0F1F3
:1001E400034613F8012B002AFBD1181A0138704773
:1001F4000348044B834202D0034B03B118477047B2
:10020400680000206800002000000000054806493E
:10021400091A891001EBD171491002D0034B03B1C3
:1002240018477047680000206800002000000000A4
:1002340010B5064C237843B9FFF7DAFF044B13B12A
:100244000448AFF300800123237010BD6800002030
:10025400000000008C28000808B5054B1BB10549B7
:100264000548AFF30080BDE80840FFF7CFBF00BFEB
:10027400000000006C0000208C280008054B0022C0
:100284001A705A705A609A60DA601A619A82DA8235
:10029400704700BF8400002030B4054C054D0FCDDD
:1002A4000FC495E8030084E8030030BC704700BF26
:1002B4009C00002084000020084B1A6842F0883219
:1002C4001A605A6842F088325A601A6802F0CC32D6
:1002D4001A605A6802F0CC325A6070470018014024
:1002E400084B1A6802F033321A605A6802F033324B
:1002F4005A601A6842F033321A605A6842F0333254
:100304005A60704700180140104A10F8013B93806E
:10031400138813F0400FFBD0138823F040031B0411
:100324001B0C13800378002BEFD1084B0A229A8010
:100334001A46138813F0400FFBD0044A138823F0A5
:1003440040031B041B0C1380704700BF003801409E
:1003540008B5054B01229A704FF6FF721A800348C4
:10036400FFF7D2FF08BD00BFF4000020A428000856
:1003740008B50B48FFF7C8FF0A48FFF7C5FF0A484E
:10038400FFF7C2FF0948FFF7BFFF0948FFF7BCFFAB
:100394000848FFF7B9FF0848FFF7B6FF08BD00BFDC
:1003A400E42800080C29000828290008402900082E
:1003B40044290008602900089829000810B58AB06B
:1003C4002C48FFF7A1FF01212D2000F0D7FD0121CA
:1003D4002E2000F0D3FD0121072000F0CFFD0121E4
:1003E400062000F0CBFD0121292000F0C7FD0121EA
:1003F4002A2000F0C3FDFFF75FFF1F4B5A681F4B15
:10040400DA600021072000F0B9FD0021062000F089
:10041400B5FD00212E2000F0B1FD0021292000F0BF
:10042400ADFD00212A2000F0A9FD154B9C68012197
:10043400072000F0A3FD0121062000F09FFD01210B
:10044400292000F09BFD01212A2000F097FD0121C5
:100454002E2000F093FDA3B20A4A2821684600F03A
:10046400D1FF6846FFF750FF0748FFF74DFF0AB07A
:1004740010BD00BFC0290008840000200014014002
:1004840000180140D0290008D429000808B52548DF
:10049400FFF73AFF01212E2000F070FD01212D20ED
:1004A40000F06CFD0121292000F068FD01212A20C3
:1004B40000F064FDFFF714FF1B4B59681B4AD16021
:1004C4009A8A1B4BDA600021072000F057FD0021B7
:1004D400062000F053FD0021292000F04FFD0021EB
:1004E4002A2000F04BFD00212D2000F047FD0121C2
:1004F4002D2000F043FD0121072000F03FFD0121E4
:10050400062000F03BFD0121292000F037FD0121E8
:100514002A2000F033FD0748FFF7F6FEFFF74EFFF1
:1005240008BD00BF342A00088400002000140140E4
:1005340000180140442A0008144B1B782BB310B553
:10054400012B06D0022B12D0FFF7A6FEFFF796FE72
:1005540010BD0E4BDB8A002BF6D00C4CFFF796FF38
:10056400E38A013B9BB2E382002BF7D1ECE7074B14
:10057400DB8A002BE8D0054CFFF720FFE38A013B20
:100584009BB2E382002BF7D1DEE7704784000020A2
:10059400F8B50A283FD8DFE800F006161A1E22260E
:1005A4002A2E32363A001E4D2846FFF719FE07461A
:1005B40046191C4C0FCC78517160B260F360284628
:1005C400FFF7A2FEF8BD1848FFF79EFEFAE71748AA
:1005D400FFF79AFEF6E71648FFF796FEF2E715488E
:1005E400FFF792FEEEE71448FFF78EFEEAE71348A2
:1005F400FFF78AFEE6E71248FFF786FEE2E71148B6
:10060400FFF782FEDEE71048FFF77EFEDAE70F48C9
:10061400FFF77AFED6E70E4800F0DCFED2E700BF13
:10062400C4000020602A0008702A0008842A0008F8
:100634009C2A0008B82A0008DC2A0008002B0008BD
:100644001C2B0008382B0008582B0008882B0008A6
:10065400982B000838B50D4B1D6800F085FD0C4C37
:10066400204600F08DFD0B49204600F0A1FD691CD9
:10067400094800F09DFD094B1968094800F098FDF0
:1006840000F06AFD0748FFF73FFE38BDEC0000208C
:1006940000F000085B138F2404F00008F40000202D
:1006A40008F00008042A000808B5144B1968144A15
:1006B400516004331B681360B3F1FF3F02D0114B48
:1006C400994202D0FFF744FE08BD0F4B0F4A106851
:1006D40018601B88FF2B0CBF0D480E48FFF714FE53
:1006E400094B9B7833B90C48FFF70EFE0B48FFF714
:1006F4000BFEE9E70A48FFF707FEF7E700F00008FA
:10070400EC0000205B138F24F400002008F00008A4
:10071400AC2B0008B82B0008C42B0008E42B0008FD
:10072400D42B0008F8B5B14900F0B2FEB04B186004
:10073400002800F024830446FFF752FD05460246D4
:10074400AC49204600F092FE28B12A46AA49204628
:1007540000F08CFE08B9032D43D00322A74920469C
:1007640000F084FE38B10322A549204600F07EFE45
:10077400002840F0FA80032D00F0A9802A46A14900
:10078400204600F073FE50B12A469F49204600F0EF
:100794006DFE002840F0B381032D00F0EF802A465F
:1007A4009A49204600F062FE002840F08382042D1E
:1007B40000F03C822A469649204600F057FE002865
:1007C40000F082822A469349204600F04FFE00281A
:1007D40040F07A82042D40F07782FFF7C9FD0024AF
:1007E400CEE28D49002000F053FE04468B490020E0
:1007F40000F04EFE05467E4B5C605861002C00F014
:10080400C382002800F0C2822046FFF7E9FC0646B6
:100814002846FFF7E5FC05463146204600F0E8FC93
:1008240008B10424ACE22946714B586900F0E0FC9D
:1008340008B10424A4E2102200216D4B586800F092
:10084400F3FE6FF07F4100F0E9FC08B1022497E267
:1008540010220021664B586900F0E6FE704B19889F
:1008640000F0DCFC0446002840F092826C4B1A88AD
:100874004FF6FF739A421ED06A4D01272F705C4ECB
:1008840010220021706800F0CFFE68601022002161
:10089400706900F0C9FEA8820023AB60EB602B6195
:1008A400EF823268534B9A4207BF2B463A465D4B60
:1008B40002225A7064E2102200214D4B586800F065
:1008C400B3FE00F0B0FC0028D6D0032458E253490C
:1008D400002000F0DDFD0446454B5860002800F080
:1008E4005982FFF77DFC0146204600F081FC08B1E7
:1008F400062445E2102200213D4B586800F094FE86
:100904006FF07F4100F08AFC0446002840F04482E6
:10091400434B1A884FF6FF739A421AD0414D022373
:100924002B70334E10220021706800F07DFE686049
:100934000023AB82AB60EB602B610123EB82326856
:100944002E4B9A4207BF2B460122364B02225A7085
:1009540016E210220021264B586800F065FE00F0D4
:1009640062FC0028DAD003240AE22A4625492046FC
:1009740000F07CFD00283FF40FAF05E72A49002072
:1009840000F086FD04462449002000F081FD054660
:100994002249002000F07CFD0646154B9C60DD607A
:1009A4009861002C00F0FA81002D00F0F9810028F4
:1009B40000F0F8812046FFF713FC07462846FFF7AE
:1009C4000FFC05463046FFF70BFC06463946204629
:1009D40000F00EFC08B10624D2E12946044BD86885
:1009E40000F006FC10B30624CAE100BF0C2C00087A
:1009F400F8000020102C0008142C00081C2C0008FF
:100A0400202C0008242C0008282C0008342C000872
:100A14003C2C0008442C0008182C00080829000865
:100A2400F400002084000020E82900083146984B97
:100A3400986900F0DDFB08B10624A1E1944C102272
:100A44000021A06800F0F0FD054610220021E068B6
:100A540000F0EAFD0146284600F0E0FB08B102245C
:100A64008EE110220021E06800F0DEFD6FF07F418E
:100A740000F0D4FB0446002840F09681854B1A8888
:100A84004FF6FF739A4223D0834D05232B70002623
:100A94006E60AE827E4F10223146B86800F0C4FD0D
:100AA400A86010223146F86800F0BEFDE8602E61AF
:100AB40010223146B86900F0B7FDE8823A68774BF6
:100AC4009A4207BF2B460122734B02225A7057E108
:100AD400102200216E4B986800F0A6FD00F0A3FBE5
:100AE40008B103244CE110220021694BD86800F0BE
:100AF4009BFD00F098FB0028C6D0032440E12A4661
:100B04006749204600F0B2FC06462A46654920465D
:100B140000F0ACFC16B100287FF441AE032D7FF445
:100B24003EAE6149002000F0B3FC04465F4900205A
:100B340000F0AEFC0546564B9C60D860002C00F0DB
:100B44003581002800F034812046FFF749FB064632
:100B54002846FFF745FB05463146204600F048FB92
:100B640008B104240CE12946494BD86800F040FB45
:100B740008B1042404E1464C10220021A06800F0CE
:100B840053FD054610220021E06800F04DFD0146AA
:100B9400284600F043FB08B10224F1E010220021B2
:100BA400E06800F041FD6FF07F4100F037FB044640
:100BB400002840F0FF80374B1A884FF6FF739A42A3
:100BC4001DD0354D00266E60AE82314F1022314665
:100BD400B86800F029FDA86010223146F86800F0DA
:100BE40023FDE8602E61EE826E703A682C4B9A42C7
:100BF40007BF2B460322284B04221A70C0E01022A0
:100C04000021234B986800F00FFD00F00CFB08B1A5
:100C14000324B5E0102200211D4BD86800F004FD28
:100C240000F001FB0028CCD00324A9E01F4900F008
:100C34002FFC174B9861002800F0BE801022002181
:100C440000F0F2FC4FF0FF3100F0E8FA044600280F
:100C540040F0B480164B1A78531EDBB2012B01D935
:100C640007248DE00C4D2A70114B5A686A609A8AE9
:100C7400AA829A68AA60DA68EA601B692B6110226A
:100C84000021034B986900F0CFFCE88278E000BFB4
:100C9400F8000020F400002084000020242C000828
:100CA4002C2C0008302C0008E8290008082900082A
:100CB4009C0000202A464549204600F0D7FB002826
:100CC4007FF480AD042D21D02A464149204600F00E
:100CD400CDFB08B9072D1DD02A463E49204600F019
:100CE400C5FB18BB022D19D02A463B49204600F00B
:100CF400BDFB002868D02A463849204600F0B6FBE0
:100D040000285FD1022D32D00A2439E0FFF7A2FC7B
:100D1400002435E0FFF71CFB002431E0304BFF22B8
:100D24001A803048FFF7F0FA002429E02A462E49B9
:100D3400204600F09BFB50B9022DD5D1284B4FF62D
:100D4400FF721A802948FFF7DFFA002418E02A46C8
:100D54002149204600F08AFB0028CCD1022D2FD156
:100D640000241F4B9C702248FFF7CEFA08E01C4B6E
:100D740001229A701F48FFF7C7FA002400E00924F3
:100D84002046FFF705FCF8BD0924F9E70924F7E735
:100D94000124F5E70924F3E70224F1E70924EFE746
:100DA4000924EDE70924EBE70224E9E70924E7E74E
:100DB4000924E5E70224E3E70724E1E70824DFE761
:100DC4000A24DDE70A24DBE70A24D9E73C2C0008DF
:100DD4004C2C0008542C00085C2C0008602C0008E3
:100DE400F4000020AC2B0008582C0008B82B000895
:100DF400C42B0008D42B000838B5144BC35C03F093
:100E04000303022B08BF2038114B1B68262B16D86E
:100E1400C0B20D2805D0591C0D4A11600D4AD0549A
:100E240038BD0D48FFF770FA094C23685A1C22603C
:100E340008480025C554FFF775FC2560F0E707480E
:100E4400FFF762FA024B00221A60E9E70D2E000850
:100E5400B4000020C4000020EC290008F029000898
:100E640008B5074B1B8813F0200F05D0044B988856
:100E7400C0B2FFF7C1FF08BD0248FFF745FAFAE721
:100E840000380140202A000808B500F04BF800F0B3
:100E94008DF800F0BFF800F0CFF800F003F9FFF789
:100EA40003FC0348FFF730FAFFF746FBFCE700BFFB
:100EB400042C0008F0B41A4B03EBC0039C88072CE5
:100EC4001CD8174B53F830502E68A3000F279F40AF
:100ED40026EA07062E602E68994031432960104B9C
:100EE40053F83030D9680120A04021EA0001D960CC
:100EF400D968A2400A43DA60F0BC7047084B53F843
:100F040030305E68A4F10805AD000F27AF4026EA33
:100F140007065E605E68A94031435960DFE700BFA1
:100F2400642C000838B5134B9A6942F004029A61A4
:100F34009A6942F008029A619A6942F010029A6131
:100F44009A6942F020029A619A6942F040029A61D9
:100F54009A6942F001029A610024074D05EBC4032B
:100F6400DA799979E0B2FFF7A5FF0134352CF5D190
:100F740038BD00BF00100240642C000849B10A4B80
:100F840053F8302003EBC000818801238B401361A8
:100F94007047054B53F8302003EBC00081880123D0
:100FA4008B405361704700BF642C0008174A936953
:100FB40043F480439361A2F5584240F6A66313813B
:100FC400938943F4005343F00C039381104B596805
:100FD40021F0C0015960596841F080015960596895
:100FE40041F010015960596821F440615960596811
:100FF40041F400615960596821F4407159601388C3
:1010040023F040031B041B0C1380704700100240A4
:101014000008014062B6064B20225A60002283F881
:101024002523044A938943F020039381704700BF2A
:1010340000E100E000380140164A936943F400637C
:101044009361154B1A8842F080021A801A8822F0A4
:1010540008021204120C1A801A8822F010021204D8
:10106400120C1A801A8842F004021A800021998115
:101074000A4A12680A48A0FB0202D209013A92B253
:101084001A851A8822F001021204120C1A8099841B
:10109400704700BF00100240002C014000000020F7
:1010A400D34D62102A4A536843F40063536002F537
:1010B4008832D36943F00203D361264B1A8842F085
:1010C40080021A801A8822F008021204120C1A8074
:1010D4000021998119851A8B42F480721A831A8B24
:1010E40022F400721204120C1A831A8B42F4004286
:1010F4001A831A8C22F020021204120C1A841A8900
:1011040042F007021A811A8922F010021204120C0A
:101114001A811A8942F020021A811A8942F0400287
:101124001A811A8842F004021A809A8C9984072240
:101134009A851A8822F001021204120C1A801A8865
:1011440042F004021A801A8842F001021A807047A1
:101154000000014000040040024A136943F0800388
:101164001361704700200240034B044A5A6002F1A5
:1011740088325A60704700BF00200240230167454F
:101184000A4B1A6942F002021A6158611A6942F064
:1011940040021A611A46D36813F0010FFBD1034AC7
:1011A400136923F002031361704700BF002002405B
:1011B4000E4A136943F001031361D36813F0010F5E
:1011C400FBD18BB20380094AD36813F0010FFBD122
:1011D400090C4180054AD36813F0010FFBD1034A7F
:1011E400136923F001031361704700BF002002401C
:1011F40010B479B1431E0844441E0020064913F874
:10120400012F525C12F0440F08BF0130A342F6D103
:1012140010BC70470846FBE70D2E0008884294BFB7
:1012240000200120704700F00100704782B03C4B61
:101234001A6842F001021A6059683A4A0A405A6030
:101244001A6822F0847222F480321A601A6822F436
:1012540080221A605A6822F4FE025A604FF41F0278
:101264009A600022009201921A6842F480321A6055
:101274001A46136803F400330193009B013300936F
:10128400019B1BB9009BB3F5A06FF2D1244B1B68E3
:1012940013F4003F14BF012300230193019B012B8E
:1012A40005D0214B4FF000629A6002B070471F4B8B
:1012B4001A6842F010021A601A6822F003021A60D7
:1012C4001A6842F002021A60A3F580535A685A6001
:1012D4005A685A605A6842F480625A605A6822F422
:1012E4007C125A605A6842F4E8125A601A6842F052
:1012F40080721A601A46136813F0007FFBD0084B03
:101304005A6822F003025A605A6842F002025A6094
:101314001A46536803F00C03082BFAD1C1E700BF47
:10132400001002400000FFF800ED00E00020024041
:10133400002103E00B4B5B58435004310A480B4B2C
:1013440042189A42F6D30A4A02E0002342F8043BC8
:10135400084B9A42F9D3FFF769FF00F00FF8FFF743
:1013640093FD7047B02F00080000002068000020A3
:101374006800002024010020FEE7000070B500266C
:101384000C4D0D4C641BA410A64209D101F07CFA4B
:1013940000260A4D0A4C641BA410A64205D170BD58
:1013A40055F8043B98470136EEE755F8043B984757
:1013B4000136F2E7A82F0008A82F0008A82F00087C
:1013C400AC2F000803460244934200D1704703F84F
:1013D400011BF9E70FB40A4B13B51C6824B1A369C8
:1013E40013B9204600F082F905AB049AA16820469F
:1013F400019300F045FC02B0BDE8104004B0704712
:10140400040000200CB430B5174B0C1E9DB01D68B1
:1014140008DA8B234FF0FF302B601DB0BDE830405D
:1014240002B070474FF40273ADF814300CBF23467A
:1014340004F1FF33049307934FF6FF730290069071
:10144400ADF81630209A21AB02A92846019300F08A
:10145400F7FA431CBCBF8B232B60002CDDD0002289
:10146400029B1A70D9E700BF0400002010B56AB1CE
:101474000139841810F8013B11F8012F934203D16C
:10148400A04201D0002BF5D1981A10BD1046FCE7FC
:10149400134B2DE9F0411D680646AC6D0F46B4B9F7
:1014A400502000F0C3F9A865C0E90044C0E9024433
:1014B400C0E90444C0E90A44C0E90C44C0E90E444C
:1014C400C0E91044C0E91244846104774462AA6DFF
:1014D40039463046BDE8F041012300F003B800BFAF
:1014E40004000020F0B518B9106808B9F0BD204612
:1014F40004460F4614F8015B17F8016B1EB965B971
:1015040015602846F2E7B542F6D1002BEFD11460FE
:101514000370EBE71C460CE015B90E4614F8013BCA
:1015240016F8015BAB42F7D1002BF3D0002304F88B
:10153400013C1460DAE700002DE9F04786460846CE
:10154400384F054615F8014BE65D16F0080634D110
:101554002D2C34D14FF001082C78851C002B5CD045
:10156400102B09D1302C07D1287800F0DF0058283F
:101574004ED110236C780235B8F1000F14BF4FF030
:10158400004C6FF0004C0027BCFBF3F9384603FB1A
:1015940019CAA4F13006092E18D83446A34224DD12
:1015A4007E1C07D081451DD301D1A2451ADB01273A
:1015B40000FB034015F8014BEBE72846C1E72B2C51
:1015C40008BF2C78B04608BF851CC7E7A4F14106C4
:1015D400192E01D8373CE1E7A4F16106192E04D88D
:1015E400573CDBE74FF0FF37E4E77B1C06D12223AF
:1015F4006046CEF8003042B9BDE8F087B8F1000F7C
:1016040000D04042002AF7D007B1691E1160F3E709
:101614003024002BB0D10823AEE7302CA4D00A2309
:10162400AAE700BF0D2E000813460A4601460248E9
:101634000068FFF781BF00BF04000020002310B53D
:101644000446C0E90033836081814366C281C0E9F6
:1016540004338361194608225C30FFF7B3FE054B5F
:1016640024626362044BA362044BE362044B23636E
:1016740010BD00BF0D2200082F22000867220008B9
:101684008B220008014900F0AFB800BF65250008AF
:1016940070B568254A1E55430E4605F1740100F0E5
:1016A40019F9044640B10021C0E900160C30A060CD
:1016B40005F16802FFF786FE204670BD014800F080
:1016C400B2B800BF1C010020014800F0ADB800BF53
:1016D4001C010020014800F0A6B800BF170100203B
:1016E400014800F0A1B800BF1701002010B504465E
:1016F400FFF7F0FFA3691BB1BDE81040FFF7F0BF8F
:10170400C4E912332365134B134A1B68A262A34234
:1017140008BF0123204608BFA36100F01FF86060E2
:10172400204600F01BF8A060204600F017F80022C5
:10173400E06004216068FFF781FF01220921A068AD
:10174400FFF77CFF02221221E068FFF777FF0123F5
:10175400A361D1E7102F000889160008F8B50746E1
:10176400FFF7ACFF1E4B1E68B36913B93046FFF791
:10177400BDFF4836D6E90134013B03D533680BB3CA
:101784003668F7E7B4F90C50D5B9164B04F1580094
:10179400E360656600F046F8FFF796FF2560C4E94C
:1017A4000155C4E90455A5610822294604F15C00E9
:1017B400FFF708FEC4E90D55C4E912552046F8BDEB
:1017C4006834D9E704213846FFF762FF04463060E5
:1017D4000028D5D1FFF778FF0C233B60EEE700BF6C
:1017E400102F00080100FFFF2DE9F84380468946C9
:1017F400002600F1480414B93046BDE8F883D4E962
:101804000175013F01D52468F5E7AB89012B07D9A0
:10181400B5F90E30013303D029464046C847064384
:101824006835EEE77047704770470000024B014689
:10183400186800F04FB800BF0400002038B5054612
:10184400002943D051F8043C0C1F002BB8BFE41806
:1018540000F06EFF1E4A1368104633B963601460CB
:101864002846BDE8384000F069BFA3420BD921687F
:101874006218934201BF1A685B6852182260636061
:101884000460EDE713465A680AB1A242FAD919680E
:101894005818A0420BD1206801445818824219609C
:1018A400DED110685268014419605A60D8E702D941
:1018B4000C232B60D4E7206821188A4201BF1168E9
:1018C40052680918216062605C60C9E738BD00BFD6
:1018D400B8000020F8B5CD1C25F0030508350C2D03
:1018E40038BF0C25002D064601DBA94203D90C2381
:1018F40033600020F8BD00F01BFF21490A6814463C
:101904009CB9204F3B6823B92146304600F06CFC5B
:1019140038602946304600F067FC431C23D10C2371
:101924003046336000F00AFFE3E723685B1B17D4FB
:101934000B2B03D923601C44256004E06368A24296
:101944000CBF0B605360304600F0F8FE04F10B004E
:10195400231D20F00700C21ACCD01B1AA350C9E7DC
:1019640022466468CCE7C41C24F00304A042E3D0FC
:10197400211A304600F038FC0130DDD1CFE700BF3A
:10198400B8000020BC0000202DE9F0478E68824694
:101994009E420C469146984638D8B1F80CC01CF4C7
:1019A400906F31D062692568096902EB42026F1AAF
:1019B40002EBD272013355103B449D4238BF1D46A1
:1019C4001CF4806F30D02946FFF784FF064650B9D7
:1019D4000C234FF0FF30CAF80030A38943F04003D2
:1019E400A381BDE8F0873A46216900F079FEA38916
:1019F40023F4906343F08003A38126613E44266070
:101A040046466561ED1BA560464500D9464632460B
:101A14004946206800F072FEA36800209B1BA36067
:101A240023681E442660DCE72A4600F08DFE064645
:101A34000028E2D121695046FFF700FFC8E7000003
:101A44002DE9F04F1E468B899DB01B0607460D46B7
:101A540014460ED50B6963B94021FFF73BFF28609C
:101A6400286120B90C233B604FF0FF30C9E04023CC
:101A74006B610023099320238DF8293030234FF024
:101A8400010ADFF898918DF82A30039623461E4602
:101A940013F8012B0AB1252AF9D1B6EB040B0BD0AC
:101AA4005B46224629463846FFF76EFF013000F0B8
:101AB400A380099B5B4409933378002B00F09C803E
:101AC40000234FF0FF32CDE9052301360493079339
:101AD4008DF853301A933446052214F8011B4F48ED
:101AE40000F0F0FD049BC0B9D90644BF20228DF854
:101AF40053201A0744BF2B228DF8532032782A2A08
:101B040013D0344600200A26079A214611F8013BD7
:101B1400303B092B4BD970B914E0A0EB09000AFA49
:101B240000F0184304902646D5E7039A111D126865
:101B34000391002A01DB079204E0524243F00203BE
:101B44000792049323782E2B0CD163782A2B33D15C
:101B5400039B02341A1D1B680392002BB8BF4FF07D
:101B6400FF3305932E4E03222178304600F0AAFD60
:101B740038B14023801B03FA00F0049B0134034373
:101B8400049314F8011B062226488DF8281000F04F
:101B940099FD002838D0244B13BB039B073323F053
:101BA400070308330393099B434409936EE706FB39
:101BB400023201200C46A8E700230A261946013404
:101BC4000593204610F8012B303A092A03D9002B3B
:101BD400C8D00591C6E706FB012101230446F0E7BE
:101BE40003AB00932A46114B04A93846AFF3008097
:101BF400B0F1FF3F8046D6D1AB895B063FF534AFE9
:101C040009981DB0BDE8F08F03AB00932A46074B3B
:101C140004A9384600F0D2F9EAE700BF742F00089F
:101C24007A2F00087E2F0008000000008D1900089C
:101C3400936810B4013B002B936007DA9469A342C4
:101C440001DB0A2902D110BC00F022BB1368581C26
:101C540010601970084610BC7047F8B506460F4668
:101C64001446D518AC4201D1002007E03A4614F8D6
:101C7400011B3046FFF7DCFF431CF3D1F8BD000025
:101C84002DE9F04F0D469DB014461E46074618B187
:101C940083690BB9FFF72AFD854B9D421BD17D68F3
:101CA4006B6ED90705D4AB899A0502D4A86DFFF7EA
:101CB400BAFDAB891B0701D52B69EBB92946384618
:101CC40000F04AFBC0B16B6ED8070ED54FF0FF3061
:101CD4001DB0BDE8F08F774B9D4201D1BD68DFE7B1
:101CE400754B9D4208BFFD68DAE7AB899905EDD4D1
:101CF400A86DFFF799FDE9E70023099320238DF8E8
:101D0400293030234FF0010ADFF8B0918DF82A30E2
:101D1400039623461E4613F8012B0AB1252AF9D14E
:101D2400B6EB040B0BD05B46224629463846FFF738
:101D340094FF013000F0A380099B5B44099333783E
:101D4400002B00F09C8000234FF0FF32CDE90523E7
:101D54000136049307938DF853301A9334460522C1
:101D640014F8011B554800F0ADFC049BC0B9DA0619
:101D740044BF20228DF85320180744BF2B228DF82E
:101D8400532032782A2A13D0344600200A26079A90
:101D9400214611F8013B303B092B4BD970B914E0B3
:101DA400A0EB09000AFA00F0184304902646D5E790
:101DB400039A111D12680391002A01DB079204E0C3
:101DC400524243F002030792049323782E2B0CD142
:101DD40063782A2B33D1039B02341A1D1B680392A8
:101DE400002BB8BF4FF0FF330593354E0322217803
:101DF400304600F067FC38B14023801B03FA00F042
:101E0400049B01340343049314F8011B06222D4858
:101E14008DF8281000F056FC00283FD02A4B13BB45
:101E2400039B073323F0070308330393099B4344BD
:101E340009936EE706FB023201200C46A8E7002353
:101E44000A26194601340593204610F8012B303A2E
:101E5400092A03D9002BC8D00591C6E706FB012146
:101E640001230446F0E703AB00932A46174B04A969
:101E74003846AFF30080B0F1FF3F8046D6D16B6E99
:101E8400D90705D4AB899A0502D4A86DFFF7CCFC19
:101E9400AB895B063FF51AAF099819E703AB0093CA
:101EA4002A460A4B04A9384600F088F8E3E700BF45
:101EB400342F0008542F0008142F0008742F000832
:101EC4007A2F00087E2F0008000000005F1C000825
:101ED4002DE9F04791461F468A680B6906469342EE
:101EE400B8BF1346C9F8003091F843200C46DDF81A
:101EF400208012B10133C9F800302368990642BF2B
:101F0400D9F800300233C9F80030256815F0060509
:101F140007D104F1190AE368D9F800209B1AAB42EF
:101F240029DC94F843302268003318BF0123920659
:101F34002ED404F1430239463046C047013021D043
:101F44002368E56803F00603042B18BF0025D9F8BD
:101F540000204FF0000908BFAD1AA368226908BF2A
:101F640025EAE5759342C4BF9B1AED181A344D4512
:101F74001AD1002008E00123524639463046C047B2
:101F8400013003D14FF0FF30BDE8F0870135C2E7DF
:101F94003020E11881F843005A1C94F8451022447B
:101FA400023382F84310C4E70123224639463046FF
:101FB400C0470130E6D009F10109D8E72DE9F04323
:101FC40006460C4601F14300097E85B06E29984609
:101FD40017460C9B00F0BB8024D8632939D00AD85B
:101FE400002900F0C480582900F0928004F14205D1
:101FF40084F8421035E0642901D06929F6D12568B6
:102004001A6815F0800F02F104012CD012681960CF
:10201400002A03DA2D23524284F84330DFF8C0C18A
:102024000A233FE0732900F0A68008D86F2921D045
:102034007029DBD1226842F02002226003E0752976
:1020440018D07829D2D17822DFF898C184F84520B5
:1020540062E01A6804F14205111D1960136884F8DE
:102064004230012394E0126815F0400F196018BF44
:1020740012B2CDE7D4F800C01A681CF0800F02F148
:1020840004051D6001D0126803E01CF0400FFAD073
:1020940012886F290CBF08230A23DFF844C10021EA
:1020A40084F843106568002DA8BF2168A560A4BF0B
:1020B40021F0040121600AB9002D46D00546B2FB87
:1020C400F3F103FB112E1CF80EE0934205F801ED29
:1020D40039D9082B0BD12368DA0708D5236962683C
:1020E4009A42DEBF302305F8013C05F1FF35401B61
:1020F4002061CDF800803B4603AA21463046FFF715
:10210400E7FE013049D14FF0FF3005B0BDE8F08360
:10211400DFF8CCC084F845101D68216855F8042BFD
:102124001D600D060BD5CD0744BF41F02001216091
:102134001AB9236823F0200323601023AFE74B066A
:1021440048BF92B2EFE70A46B9E70546C1E71A6805
:10215400D4F800C0151D61691CF0800F1D60136860
:1021640001D0196003E01CF0400FFAD0198000235D
:1021740005462361BDE71A68111D19601568002121
:102184006268284600F09EFA08B1401B60606368EC
:102194002361002384F84330ABE723692A46394698
:1021A4003046C0470130AED023689B0713D4E068A3
:1021B400039B9842B8BF1846A7E701234A4639460D
:1021C4003046C04701309ED00135E368039A9B1A1C
:1021D400AB42F2DCEBE7002504F11909F5E700BF97
:1021E400852F0008962F000838B50023054C0546B6
:1021F4000846236000F032FB431C02D1236803B17C
:102204002B6038BD2001002010B50C46B1F90E102A
:1022140000F0C0FA0028ABBF636DA3891B1823F438
:102224008053ACBF6365A38110BD2DE9F0411F4607
:102234008B890546DB050C46164605D5022300228C
:10224400B1F90E1000F0C8F9A389324623F4805383
:10225400A381B4F90E103B462846BDE8F04100F0D6
:1022640069B810B50C46B1F90E1000F0B5F9431C6D
:10227400A38915BF606523F4805343F48053A3817D
:1022840018BFA38110BDB1F90E1000F0D3B800003F
:10229400F8B50E461446054618B183690BB9FFF725
:1022A40025FA214B9C422BD16C68A369A360A389B6
:1022B4001A072FD523696BB323692068F6B2C01AB5
:1022C40063693746834204DC2146284600F048F916
:1022D40030BBA3680130013BA36023685A1C226011
:1022E4001E706369834204D0A389DB0706D50A2ED6
:1022F40004D12146284600F033F988B93846F8BDA0
:102304000A4B9C4201D1AC68CFE7094B9C4208BF01
:10231400EC68CAE72146284600F01EF80028CBD016
:102324004FF0FF37EAE700BF342F0008542F0008AE
:10233400142F000838B50546084611460022054CFE
:1023440022601A4600F098FA431C02D1236803B1B4
:102354002B6038BD20010020324B70B51D68064645
:102364000C4625B1AB6913B92846FFF7BFF92E4BCC
:102374009C420FD16C68B4F90C309AB215072CD476
:10238400D00611D40922326043F04003A3814FF0F8
:10239400FF303EE0254B9C4201D1AC68EBE7244B77
:1023A4009C4208BFEC68E6E7510712D5616B41B166
:1023B40004F14403994202D03046FFF73FFA002368
:1023C4006363A38923F02403A38100236360236947
:1023D4002360A38943F00803A38123694BB9A3892C
:1023E40003F42073B3F5007F03D02146304600F098
:1023F40029F9A28912F001030CD00023A3606369B8
:102404005B42A361236953B9B4F90C3013F0800023
:10241400BAD170BD920758BF6369A360F2E7002088
:10242400F7E700BF04000020342F0008542F0008F1
:10243400142F000838B50023054C054608462360D0
:1024440000F0E4F9431C02D1236803B12B6038BDCA
:10245400200100208A892DE9F041054610070C4629
:1024640058D44B68002B05DC0B6C002B02DC0020DD
:10247400BDE8F081E66A002EF9D0002312F4805200
:102484002F682B6032D0606DA3895A0705D5636825
:10249400C01A636B0BB1236CC01A00230246E66AB0
:1024A400216A2846B047431CA38906D129681D29FF
:1024B40049D82A4ACA40D60745D500226260226913
:1024C400D904226004D5421C01D12B6803B960658C
:1024D400616B2F600029CAD004F14403994202D0F1
:1024E4002846FFF7ABF900206063C1E7216A0123A6
:1024F4002846B047411CC7D12B68002BC4D01D2BE4
:1025040001D0162B01D12F60B1E7A38943F040031A
:10251400A381ADE70F69002FA9D0930718BF00234B
:102524000E6808BF4B69A6EB07080F608B60B8F113
:10253400000F9CDD43463A46216A2846A66AB04706
:10254400002806DCA38943F04003A3814FF0FF3049
:102554008EE70744A8EB0008E9E700BF010040202C
:1025640038B50B6905460C4613B90025284638BD15
:1025740018B183690BB9FFF7B9F8144B9C421BD10E
:102584006C68B4F90C30002BEFD0626ED00704D421
:10259400990502D4A06DFFF746F928462146FFF7B6
:1025A40059FF636E0546DA07E0D4A3899B05DDD4A1
:1025B400A06DFFF739F9D9E7054B9C4201D1AC680E
:1025C400DFE7044B9C4208BFEC68DAE7342F0008CD
:1025D400542F0008142F000838B505460846114644
:1025E4000022054C22601A4600F028F9431C02D14F
:1025F400236803B12B6038BD2001002070B50E465E
:10260400B1F90E1096B0002914461D4607DA0023CE
:102614002B60B3891A0610D44FF480630EE06A4627
:1026240000F0CAF80028F2DB019A02F47042A2F525
:1026340000535A425A412A60EEE7402300202360A7
:1026440016B070BD8B8973B59D0706460C4607D539
:1026540004F14703236023610123636102B070BD69
:1026640001AB6A46FFF7CAFF009905463046FFF7FB
:1026740031F948B9B4F90C309A05EFD423F00303C7
:1026840043F00203A381E3E70D4BB362A389206007
:1026940043F08003A381009B20616361019B5BB1D4
:1026A400B4F90E10304600F099F828B1A38923F04C
:1026B400030343F00103A381A3891D43A581CDE74F
:1026C4008916000810B5C9B202449042034601D1EC
:1026D400002303E01C7801308C42F6D1184610BD6B
:1026E4000A44914200F1FF3300D1704710B511F84C
:1026F400014B914203F8014FF9D110BD884210B546
:1027040001EB020302D983421C4607D8421E9942B8
:1027140008D011F8014B02F8014FF8E783189A1A10
:102724009A4200D110BD14F8011D03F8011DF7E70A
:102734000148FFF778B800BF180100200148FFF7EF
:1027440073B800BF18010020F8B5074614460E46BA
:1027540021B91146BDE8F840FFF7BCB822B9FFF72C
:102764006DF825462846F8BD00F048F8A0420FD27F
:1027740021463846FFF7AEF805460028F2D0314628
:102784002246FFF7ADFF31463846FFF757F8E9E731
:102794003546E7E738B50546084611460022054C9C
:1027A40022601A4600F052F8431C02D1236803B198
:1027B4002B6038BD2001002038B50023064C0546A7
:1027C40008461146236000F029F8431C02D123680F
:1027D40003B12B6038BD00BF2001002038B50023B1
:1027E400054C05460846236000F020F8431C02D13E
:1027F400236803B12B6038BD2001002051F8043C4C
:10280400181F002BBCBF0B58C01870475822024B2E
:102814004FF0FF301A607047200100205822024B0D
:102824004FF0FF301A607047200100205822024BFD
:1028340000201A60704700BF200100205822024B7C
:102844004FF0FF301A607047200100205822024BDD
:102854004FF0FF301A60704720010020044A0549F8
:102864001368002B08BF0B461844106018467047C5
:10287400C0000020280100205822024B4FF0FF30F6
:102884001A60704720010020F8B500BFF8BC08BCEE
:102894009E467047F8B500BFF8BC08BC9E4670471A
:1028A4004C6F616465642064656661756C74206452
:1028B400657669636520636F6E66696775726174B6
:1028C400696F6E3A203136206269742C2073796EF8
:1028D40063206F6E2061646472657373000000008E
:1028E4003C2D2D2D2D2D2D2D2D2D2D2D2D2D2D2D05
:1028F40048454C502D2D2D2D2D2D2D2D2D2D2D2D8F
:102904002D2D2D3E0000000057524D2C20575250C3
:10291400202D20777269746520636F6D6D616E641C
:102924000000000052444D2C20524450202D2072AF
:1029340065616420636F6D6D616E6400200000004A
:10294400666F726D617420636F6D6D616E6440615A
:102954006464726573733D646174610053415645E8
:10296400202D20636F6D6D616E6420746861742026
:10297400736176652063757272656E742064657622
:1029840069636520636F6E66696775726174696FE8
:102994006E0000003C2D2D2D2D2D2D2D2D2D2D2D9A
:1029A4002D2D454E442D48454C502D2D2D2D2D2D8E
:1029B4002D2D2D2D2D2D2D3E00000000524541447E
:1029C40020436F6D6D616E640000000025580000A7
:1029D4003C2D2D2D2D7265616420636F6D706C65C7
:1029E40074652D2D2D0000003E000000546F6F20F3
:1029F4006C6F6E6720636F6D6D616E640000000024
:102A040043757272656E7420636F6E666967757262
:102A14006174696F6E2073617665640045786570D2
:102A240074696F6E202331202D20554152540000CB
:102A3400575249544520436F6D6D616E6400000028
:102A44003C2D2D2D2D2D2D2D777269746520636FEE
:102A54006D706C6574652D2D2D0000002068617605
:102A640065206E6F206572726F72730044617461C9
:102A7400206F7574206F662072616E6765000000B8
:102A840041646472657373206F7574206F6620727D
:102A9400616E6765000000004164647265737320B1
:102AA4006973206E6F74206576656E206E756D6235
:102AB4006572000041444452455353206F722044D0
:102AC4004154412068617665206E6F2068657820E6
:102AD400666F726D61740000537461727420416496
:102AE4006472657373206D6F7265207468616E2003
:102AF40053746F702041647265737300416464722F
:102B04006573732068617665206E6F206865782030
:102B1400666F726D61740000556E61626C6520743D
:102B24006F206C6F6F70206C61737420636F6D6DB8
:102B3400616E6400546F6F206D75636820726570F8
:102B440065617420636F756E746572202833326218
:102B540069742900596F7520747269656420636112
:102B64006C63756C617465206C656E67687420664F
:102B7400726F6D204E554C4C20706F696E74657287
:102B840000000000556E6B6E6F7720636F6D6D6192
:102B94006E640000556E6B6E6F77207479706520DB
:102BA4006572726F72000000382D626974206D6F57
:102BB4006465000031362D626974206D6F646500B0
:102BC40053796E63206F6E2044415441000000002D
:102BD40053796E63206F6E20414444524553530031
:102BE400436F6E66696775726174696F6E206C6F8E
:102BF400616465642066726F6D20464C41534800E1
:102C040052656164790000004000000057524D0095
:102C1400575250003D00000052444D0052445000B1
:102C240046444D004644500052414D00524F4D0021
:102C34004C4F4F5000000000534156450000000027
:102C440048454C500000000044454641554C540052
:102C54005342000053570000534400005341000006
:102C640000080140000003010008014001000301C5
:102C740000080140020003010008014003000301B1
:102C8400000801400400030100080140050003019D
:102C94000008014006000301000801400700030189
:102CA400001401400F000301001401400E00030151
:102CB400001401400D000301001401400C00030145
:102CC400001401400B000301001401400A00030139
:102CD400001401400900030100140140080003012D
:102CE4000014014007000301001401400600030121
:102CF4000014014005000301001401400400030115
:102D04000014014003000301001401400200030108
:102D140000140140010003010014014000000301FC
:102D2400001801400F000001001801400E000001CE
:102D3400001801400D000001001801400C000001C2
:102D4400001801400B000001001801400A000001B6
:102D540000180140090000010018014008000001AA
:102D6400001801400700000100180140060000019E
:102D74000018014005000001001801400400000192
:102D84000018014003000001001801400200000186
:102D9400001801400100000100180140000000017A
:102DA4000008014008000301000801400B00030172
:102DB400000801400C000301001001400000030161
:102DC4000010014001000301001001400200030152
:102DD400001001400300030100100140060000013F
:102DE4000010014007000001001001400800030129
:102DF400001001400900030100080140090003011B
:102E0400000801400A000301002020202020202087
:102E14002020282828282820202020202020202086
:102E24002020202020202020208810101010101096
:102E340010101010101010101004040404040404E2
:102E4400040404101010101010104141414141417C
:102E5400010101010101010101010101010101015E
:102E6400010101011010101010104242424242426E
:102E7400020202020202020202020202020202022E
:102E840002020202101010102000000000000000D6
:102E9400000000000000000000000000000000002E
:102EA400000000000000000000000000000000001E
:102EB400000000000000000000000000000000000E
:102EC40000000000000000000000000000000000FE
:102ED40000000000000000000000000000000000EE
:102EE40000000000000000000000000000000000DE
:102EF40000000000000000000000000000000000CE
:102F04000000000000000000000000000800002095
:102F140000000000000000000000000000000000AD
:102F2400000000000000000000000000000000009D
:102F3400000000000000000000000000000000008D
:102F4400000000000000000000000000000000007D
:102F5400000000000000000000000000000000006D
:102F6400000000000000000000000000000000005D
:102F7400232D302B2000686C4C006566674546475E
:102F840000303132333435363738394142434445E1
:102F94004600303132333435363738396162636450
:042FA400656600005E
:042FA8005D020008BE
:042FAC0035020008E2
:102FB00000A24A040800002000000000342F00088E
:102FC000542F0008142F000800000000000000002B
:102FD00000000000000000000000000000000000F1
:102FE00000000000000000000000000000000000E1
:102FF00000000000000000000000000000000000D1
:1030000000000000000000000000000000000000C0
:083010000000000000000000B8
:0400000508001335A7
:00000001FF
